:020000040000FA
:20000000005000206D0F0000650F00004D0F0000690F0000690F0000690F000000000000BC
:20002000000000000000000000000000690F0000690F000000000000690F0000690F0000E0
:20004000752E0000690F000041370000690F000031260000612B0000690F0000690F0000C2
:20006000690F000095370000690F0000690F0000690F0000690F0000690F0000690F00006C
:20008000690F0000690F0000690F0000690F0000690F0000690F0000690F0000690F0000A0
:2000A000690F0000690F0000690F0000690F0000690F0000690F0000690F0000690F000080
:2000C000690F000001460000294B1B689B0702D44FF000407047F0B5452183B0002002F06C
:2000E00011F90DF106010222012001F061F838B901A8022101F086F84FF0004003B0F0BD57
:200100000DF106010222002001F052F80028EFD0BDF806301C0A44EA0324A4B2200BADF8E8
:20012000044008F047FE08F00DFA0646C4F30B000F4608F04FFE0CA3D3E9002304460D466C
:200140003046394608F0B0FE02460B462046294608F0AAFE09F058F9064909F0B3FA09F0BE
:2001600001FC03B0F0BD00BF7B14AE47E17A843F940700200000C84208B51F4B1B68032B24
:2001800033D1431E012B30D803461C491C4A012B0988108811D008F00DFE0022194B08F0FB
:2001A00083FE0022184B08F07FFE09F02DF9174909F088FA09F0D6FB08BD084608F0FAFDFE
:2001C0000022104B08F070FE09A3D3E9002308F06BFE00220E4B08F0AFFC09F015F90B49D7
:2001E00009F070FA09F0BEFB08BD4FF0004008BD0000000000A064409C0700203017002073
:200200002E1700200000F03E000059400000C8420000444000000000F8B55F4B1B68FBB19E
:200220000546062200215D4809F0F2FD15F038073DD16A0714D002F06BF9594C6FF009068D
:20024000206005E002F064F92368F31AC34203D501F0E4FB0028F5D0524B1B78DB0703D4CF
:200260004FF000473846F8BD4C4C6821012002F049F821460622432000F09AFF0646002861
:200280005FD0002120886288A38840BA52BA5BBA208062800846A38002F034F8042D3DD0E7
:2002A000022D59D0012DDDD1B4F9040038E002F02FF93B4C6FF00906206005E002F028F9BA
:2002C0002368F31AC34203D501F0A8FB0028F5D0344B1B78D907C3D5304C6821012002F086
:2002E00011F8214606223B2000F062FF00210646084602F007F8002E43D021886288A3880F
:2003000049BA52BA5BBA202D21806280A38026D0102D30D0082D31D00027A3E7B4F90000FF
:2003200008F058FD1AA3D3E9002308F0E7FE09F06BF81D4909F0C6F909F014FB07463846AA
:20034000F8BD2046062100F05DFF3146304601F0D9FF4FF0004785E7B4F90200E0E7B4F944
:20036000000001F085FA104909F0ACF909F0FAFA07463846F8BDB4F90200F2E7B4F9040070
:20038000EFE72046062100F03DFF69E7AFF300800000000000606040EC070020C40700205E
:2003A000581700203B1700200000C842000000002DE9F04F23F0004555EA020493B03DD0F0
:2003C000DFF8B4E121F0004474450F4683462EDC1E46944639D0754529DCDFF89CE1754567
:2003E00022D0002F8A468146CDE9002336DB4FF00008BCF1000F4CD15F4B9D4200F08E80B4
:200400005E4B9D4200F09D80B6F1804F00F097845B4B9E423DD1002F3BDB4846514613B005
:20042000BDE8F04F08F026BABCF1000FD9D004F1404404F5801454EA0B0309D100234F4CB1
:200440001846214613B0BDE8F08F08B9A542C4DD4C4813B0BDE8F04F08F0DABA4A4B9D426C
:2004600075DCA3F154739D420EDD2B15A3F2FF33142B40F36C84C3F134032CFA03F202FA9B
:2004800003F3634500F0AC844FF00008BCF1000FB6D04846514608F0AFFABBF1000F20D1A3
:2004A00024B1364B27F040429A421AD1002E05DA02460B460020314908F020FE002FC1DA66
:2004C00004F1404404F5801454EA080340F0618402460B4608F030FB02460B4608F00EFE5F
:2004E000B0E7FB0F013B079358EA030332D0274B9D424FDD03F104739D4240F3BD83244B92
:200500009C4240F34183002E40F3418318A3D3E900231046194608F0C7FC93E704F14043E5
:2005200003F5801353EA0B0388D0194B9C4240F35683002EC0F22B83DDE9003418462146F2
:2005400080E7002EC0F2F383484651467AE74FF002084EE74A4653464846514608F0ECFAAE
:2005600002460B4608F0CAFD6CE700BFAFF300809C7500883CE4377E0000F07F0000F03FE3
:200580000000E03FFC9E0000FFFF3F430000E041FFFFEF3FD04B3B40002B40F03783002208
:2005A000CE4B08F081FC6FF034060C46CC4A2315C4F31304A3F2FF3344F07F55944203EB13
:2005C000060945F4401540F31383C64B9C4240F3E983002300240022CDE90C34CDE91034CE
:2005E0000024C14B09F10109CDE90823A5F58015DDE908AB294652465B46064608F09CFABC
:200600005246CDE90A015B4630462946CDE908AB08F094FA02460B460020B34908F06EFDF4
:200620000A4601461346CDE90E120246DDE90A0108F03AFC0A468346944600230146002030
:20064000CDE902BC02936B1043F0005303F50023CDE90412DDE902AB19192F4604460D46F2
:2006600002460B465046594608F01EFC02460B46DDE90A0108F060FADDE90823CDE90A012C
:200680002046294608F058FA02460B463046394608F052FA52465B4608F006FC02460B469D
:2006A000DDE90A0108F048FADDE90E2308F0FCFBDDE90445CDE9080122462B4620462946CD
:2006C00008F0F2FB72A3D3E9002304460D4608F0EBFB71A3D3E9002308F030FA22462B46D8
:2006E00008F0E2FB6EA3D3E9002308F027FA22462B4608F0D9FB6CA3D3E9002308F01EFA79
:2007000022462B4608F0D0FB69A3D3E9002308F015FA22462B4608F0C7FB67A3D3E90023CF
:2007200008F00CFA224606460F462B462046294608F0BAFB02460B463046394608F0B4FB8A
:2007400004460D46DDE9040152465B4608F0F6F9DDE9082308F0A8FB22462B4608F0EEF9CD
:20076000524606460F465B465046594608F09CFB00225E4BCDE90A0108F0E0F932463B4685
:2007800008F0DCF902980D4604462B4622465046594608F089FB002282468B46534B20460C
:2007A000294608F0C9F9DDE90A2308F0C5F902460B463046394608F0BFF9DDE9042308F044
:2007C00073FB224606460F46DDE908012B4608F06BFB02460B463046394608F0AFF906468A
:2007E0000F4602460B465046594608F0A7F934A3D3E9002302980D46044608F055FB524671
:20080000CDE904015B462046294608F095F902460B463046394608F08FF92BA3D3E9002366
:2008200008F042FB2AA3D3E9002306460F462046294608F039FB02460B463046394608F0AF
:200840007DF9DDE9102308F079F9044648460D4608F0C0FA06460F46DDE9040122462B469D
:2008600008F06CF9DDE90C2308F068F932463B4608F064F9029832463B4682468B4608F05B
:200880005BF9DDE90C2308F057F9DDE904232FE0EF4E454A287ECA3F65DBC9934A86CD3FD8
:2008A00001411DA96074D13F4D268F515555D53FFFAB6FDBB66DDB3F033333333333E33FE6
:2008C000000000E009C7EE3FFD033ADC09C7EE3FF5015B14E02F3EBE0000F07F00004043C6
:2008E0008E98030079B60B000000F03F0000084008F022F902460B462046294608F01CF990
:20090000079A08F1FF3313434FF000064FF000030CBFD34CD34CCDE90201CDE90434DDE9B8
:2009200000231046194632461F4608F005F95B46524608F0B9FADDE9002380468946DDE9E4
:20094000020108F0B1FA02460B464046494608F0F5F83246CDE900013B465946504608F081
:20096000A3FA0B46024680468946DDE9000108F0E5F8BD4B044699420D468B4640F30C81FF
:2009800001F13F4303F5E003034340F0F481A0A3D3E90023DDE9000108F0D0F842460646A0
:2009A0000F464B462046294608F0C6F802460B463046394608F008FD002840F0DC81CBF3C8
:2009C0000A534FF480120020A3F2FE3342FA03F35B44C3F30A52A54DA2F2FF321541C3F359
:2009E000130423EA0501C2F1140A44F48014BBF1000F02460B4644FA0AFA40464946B8BF0E
:200A0000CAF1000A08F098F880468946DDE9000142464B4608F092F80D464FEA0A5B00247D
:200A20007DA3D3E900232046294608F03DFA424606460F464B462046294608F07DF802466F
:200A40000B46DDE9000108F077F875A3D3E9002308F02AFA74A3D3E9002380468946204613
:200A6000294608F021FA02460B464046494608F065F88046894602460B463046394608F0D6
:200A80005DF832463B4604460D4608F055F802460B464046494608F04FF82246804689463C
:200AA0002B462046294608F0FFF961A3D3E9002306460F4608F0F8F95FA3D3E9002308F0BA
:200AC0003BF832463B4608F0EFF95DA3D3E9002308F034F832463B4608F0E6F95AA3D3E97E
:200AE000002308F029F832463B4608F0DDF958A3D3E9002308F022F832463B4608F0D4F949
:200B000002460B462046294608F016F806460F4602460B462046294608F0C6F90022CDE9C3
:200B200000014FF080433046394608F005F802460B46DDE9000108F0E1FA424606460F466C
:200B40004B462046294608F0AFF942464B4607F0F5FF02460B463046394607F0EDFF2246B2
:200B60002B4607F0E9FF02460B4600203D4907F0E3FF8B44BBF5801FC0F22E815946DDE929
:200B8000042308F091F95DE4002EFFF6BFAC002300241846214655E4DFF8D8C021F00043D5
:200BA000634540F3E280324B0B4403430AD142464B4607F0C1FFDDE9002308F0FBFB00283C
:200BC0003FF4FDAE24A3D3E90023DDE9040108F06BF921A3D3E9002308F066F932E4002E2C
:200BE000D5DADDE90034184604F10043194629E4002300241A462346CDE90C23CDE910236C
:200C00000022184B0024CDE90823F1E40026CDE4FE822B654715973C00000000432EE63FC9
:200C2000EF39FAFE422EE63F396CA80C615C20BED0A4BE726937663EF16BD2C541BDBB3E39
:200C40002CDE25AF6A56113F93BDBE166CC1663F3E5555555555C53F59F3F8C21F6EA5018C
:200C60000000F0BF0000F03FFFFF8F40FFFF0F0000346F3FFFCB9040714B9C4284DD714B89
:200C80009C423FF740AC00226E4B07F055FF5EA3D3E9002304460D4608F006F95CA3D3E9FF
:200CA000002306460F462046294608F0FDF8002282468B46644B2046294608F0F5F8024642
:200CC0000B4655A1D1E9000107F036FF22462B4608F0EAF802460B4600205C4907F02CFFB3
:200CE0002246CDE902012B462046294608F0DCF802460B46DDE9020108F0D6F848A3D3E9F2
:200D0000002308F0D1F802460B465046594607F013FF02460B4604460D463046394607F0F6
:200D20000DFF00208B46824632463B46E0E54A4653460020434908F0E1F9FFF783BB4A46C5
:200D400048465346514608F0AFF8FFF77BBBBCF1000F38D1C3F1140345FA03F202FA03F354
:200D6000AB4247D0E046FFF74BBB384A934247DCB346B24653E62CA3D3E90023DDE9040130
:200D800008F092F828A3D3E9002308F08DF8FFF759BBB8F1010F7FF455AB01F100431946E0
:200DA000FFF750BB22A3D3E90023CDE90C2322A3D3E90023CDE910230022254B4FF48024A3
:200DC000CDE9082314E407F017FEBBF1000F7FF4C1ABD846FFF764BB524600F03DF8CEE6F0
:200DE00002F00102C2F10208BCF1000F3FF408ABFFF74FBB02F00102C2F10208FFF700BB3C
:200E00001B15DEE5AFF30080000000604715F73F44DF5DF80BAE543E555555555555D53FF6
:200E2000FE822B654715F73F9C7500883CE4377E0000004003B8E23F06D0CF43EBFD4C3E2C
:200E4000FEFFEF3F0000F03F0000D03F0000E03F0000F83F00000000F8B5C1F30A530446CB
:200E60000D460E46174673BB034621F00046334328D0314B002208F017F8304B04469F42E7
:200E80000D461ADB0E46C1F30A53363B40F2FE723B44934220DC002B3DDC13F1350F2CDAB0
:200EA0004CF250339F4217DC05F0004343F0D27141F4B731224841F01F011BA3D3E900237A
:200EC00007F0F2FFF8BD40F2FF729342DED102460B4607F033FEF8BD05F0004444F0FC412E
:200EE00041F45F1141F4105111A3D3E90023154841F03C0107F0D8FFF8BD26F0FF4626F461
:200F0000E006363346EA03552046294600220E4B07F0CAFFF8BD26F0FF4626F4E00646EAAA
:200F2000035520462946F8BD59F3F8C21F6EA5019C7500883CE4377E00005043B03CFFFFAB
:200F400059F3F8C29C7500880000903C044B1A68B2F5806F03D01B689B0500D4FEE7704759
:200F600028ED00E0FEE700BFFEE700BF08B505F049FF104A10498A420DD210480139034601
:200F8000891A21F003010431014453F8040B8B4242F8040BF9D10A480A494FF00002884235
:200FA000B8BF40F8042BFADB03F0DCFCFFF7CEFF08BD00BF00000020B606002098A3000035
:200FC000B80600209B170020F0B5002706463C463D4683B0304604F009FC0195019B9C4292
:200FE00006DD00BF019B01330193019BA342F8DB304604F01DFC0195019BC4F5C8749C420F
:2010000006DD00BF019B01330193019BA342F8DB0137B7F5487F06D0B7F5C87FCCBFC7F5BB
:2010200048743C46D6E703B0F0BD00BF38B5194D194C2B6820465B680121984701222B686B
:2010400011461B682046984705F05CFF01F06CFF01F0EAFE00F0FAFD04F026FC04F078FB88
:201060000120FFF7B1FF01230C490D4A0D480968136003600B691020A2F5FF521268984758
:2010800005F044FF01F046FABDE838400020FFF79BBF00BFD801001000400340B00100106E
:2010A0000C4009400800094008B541F2342003F0B9F901F021FD04F0B5FA0548082101F048
:2010C000E9FB04F003FABDE808400220FFF77CBF88170020002370B584B002A80821294C78
:2010E000CDE9003301F0D6FB9DF80E309DF80F60E56A46EA03264AF6CD310220A847314600
:201100000320A8471A210120A847636B02A908221D4D0B209847A46A69460120A0472B6803
:20112000022B1ADC01A90220A04778B92B68022B08DC0021154803F093FF0020FFF744FFA8
:2011400004B070BD0199124806F062FE2B68022BEFDD104806F05CFEEBE70F4A0F49104855
:2011600006F056FE0F4806F053FE2B68022BD9DD094A0A490A4806F04BFE00990A4806F0F9
:2011800047FECFE708A000000406002048060020109F000074A10000C09E0000D09E000084
:2011A000D89E0000E89E0000009F000001F00CBD00B583B013468DF807000A460DF10700B8
:2011C000012100F0CBFF03B05DF804FB0C4B187082B110B4541EE4B201340C4411F8010BB4
:2011E000A14203F8010FF9D10132D1B2044810BC00F064BE0132D1B2014800F05FBE00BF8C
:20120000E006002041B1CC224B1EDBB20133034403F8012D8342FBD1704700BF8138012865
:201220009ABF024B18680020704700BF180700200322024B02481A6004F0B6BB18070020D9
:20124000489F000010B5044682B07721002001F059F8002C14BF2523002301220DF10701D9
:20126000F4208DF80730FFF7B1FF02B010BD00BF30B5802885B005D081281ED01E4B1868A3
:2012800005B030BD01251C4C77210020256001F039F8182219498820FFF78AFFB6232A46B3
:2012A0000DF10F01E0208DF80F30FFF78FFF0020FFF7C8FF206805B030BD0F4C20680028C6
:2012C000DED061B10120FFF7BDFF00230C4A03210C4803F09FFC0220206005B030BD094867
:2012E000019103F0A3FC01990846FFF7ABFF01231846236005B030BD180700200007002035
:201300003112000024070020F8B5524B1B68032B40F09D80431E012B00F299804E4C06229D
:2013200000210546204608F073FD7721002000F0E9FF21460622F720FFF73AFF00287FD097
:2013400023794649E27860791B0143EA02330A8843EA1013C2EB131000FB00F0B1F9046006
:2013600007135200B1F9020006FB07F7C2EBD30300FB03F3B81300EBE3264FEA660CACF5D7
:201380007A4C4FEAAC0707FB07F7B1F90830B1F90A007A130CFB03F302FB00F25B1003EB33
:2013A000E2039B14C88803F5004300FB03F08E61C01322786378A4783AD0B1F90EE0FF121A
:2013C0000CFB0EFCB1F910E04FEA4C0C0EFB07CCB1F90C70240944EA03143F0444EA0234B6
:2013E00007EBAC071E4A04EB273402FB04F202F1434202F5A002002AB3BFB2FBF0F0520017
:20140000B2FBF0F04000C30803FB03F2B1F91430B1F916408708520B03FB07F304FB02F27C
:20142000B1F912105B1303EB22330B4400EB2310012D00D0F8BD06EB860080300012F8BD21
:2014400020460621FFF7DEFE4FF00040F8BD4FF00040F8BD180700201C070020000700201C
:20146000CBF3FFFF813801289ABF024B18680020704700BF4C0700200322024B02481A6069
:2014800004F092BA4C070020689F000010B504464421002000F036FF002C14BF1024002482
:2014A0000222044B10461C801946BDE81040FFF78DBE00BF2C17002010B5802882B005D09C
:2014C00081281DD01E4B186802B010BD1D4C012023689B6B984723684FF480419B69012060
:2014E000984723684FF08041DB69012098470020FFF7CCFF01231846114A136002B010BD8E
:201500000F4C20680028DFD061B10120FFF7BEFF00230D4A24210D4803F07CFB022020600B
:2015200002B010BD0948019103F080FB01990846FFF7ACFF01231846236002B010BD00BF0F
:201540004C070020B4010010791400005407002038B5354B1B68032B0FD182070DD00328BC
:201560000ED0012805D0022807D1304B1B68184638BD2F4B1B68184638BD4FF00043F6E78D
:201580002C4D44210446002000F0BCFE294602220420FFF70DFE002844D02A88130A43EA69
:2015A00002239BB22B805B043CD5234D022229460120FFF7FDFD68BB1F480421FFF722FEC5
:2015C00000202C786B78A978EA7843EA042442EA01220028D1D0900808F020F84FF07451C8
:2015E00008F070F8154908F06DF808F0BBF9104B0E4D1860A00808F011F84FF0745108F051
:2016000061F80E4908F05EF808F0ACF901232860184638BD02222046A918FFF7C9FD002801
:20162000CFD1C9E7044DC7E74C07002044070020500700202C1700204807002000007A4476
:20164000014B1868704700BF9407002070B506460E4C82B045210020256800F053FE6EB11D
:2016600041F2C2020123ADF80620236002220DF106010120FFF7AAFD02B070BD4FF486531F
:2016800005F002052560ADF80630EFE79407002000B5452183B0002000F034FE02220DF1AB
:2016A00006010120FFF784FDBDF90630002B08DB0023084A1021084803F0ACFA03B05DF8FA
:2016C00004FB064804F070F90222054B1A6003B05DF804FB9116000074070020789F000012
:2016E00094070020802810B50ED081280FD10C4679B10120FFF7AAFF00230A4A10210A4825
:2017000003F088FA012010BD0020FFF79FFF002010BD054803F08AFA2046FFF797FF2046A9
:2017200010BD00BF9116000074070020813801289ABF024B18680020704700BF9C0700207A
:20174000032138B5134C144A2378116033B9012312482370BDE8384004F026B9104D432101
:20176000002000F0CFFD2846042100F079FC00212070084600F0C6FD28886988020A42EA0A
:201780000022084D0B0A084843EA01232A800380DDE700BF381700209C070020909F00000B
:2017A00098070020301700202E17002030B5802883B005D0812826D0264B186803B030BDD9
:2017C0000024254B254D2146042225481C802C8008F01EFB2046432100F094FD022210230E
:2017E00010460DF10601ADF80630FFF7EFFC1D4B21461870204600F085FD01231846154AC2
:20180000136003B030BD134C20680028D6D061B1144D2B788BB90023134A0321134803F0B4
:20182000F9F90220206003B030BD104803F0FEF901231846236003B030BD4321002000F019
:2018400061FD002000F0D4FB00212870084600F059FDE0E79C0700202E17002030170020A8
:20186000980700203817002041170000A007002008B5174B1B78032B28D8DFE803F0151E4E
:201880000C0207F0A7FA00224FF07D5307F00CFB07F0BAFD08BD07F09DFA00220D4B07F001
:2018A00003FB07F0B1FD08BD07F094FA00220A4B07F0FAFA07F0A8FD08BD07F08BFA0022DA
:2018C000064B07F0F1FA07F09FFD08BD002008BD391700200000303F0000103F0000203F0B
:2018E000813801289ABF024B18680020704700BFEC0700200222024B02481A6004F054B802
:20190000EC070020A89F000010B56821012000F0F9FC3F23094C012221466C202370FFF7C3
:2019200055FC4F23214601226B202370FFF74EFCBDE810400021084600F0E4BC3D17002094
:20194000802838B50BD0812806D111F03F012DD1294B1B68DB043BD4284B186838BD284C17
:20196000072023689B6B984723684FF400519B690720984723684FF08041DB6907209847D2
:2019800023680C20DB6B984723684FF440729B6A4FF480610C2098474FF48054002219481D
:2019A000194B164904601A60086838BD4FF480500124154B154A114D196010600023144A62
:2019C000082114482C6003F025F92C60204638BD0D4B1048196003F029F9FFF795FF0E4ADE
:2019E000136813F00103FBD14FF48050034A054913600860106838BD80200240EC070020AE
:201A0000B4010010A0200240C007002090200240451A0000CC0700200428004010B5084C4F
:201A20006821012000F06EFC214601223A20FFF7BFFB0021084600F065FC207810BD00BF2A
:201A40003B1700202DE9F041354C236813F0380F28D1344D03F03F032E78DCB25EB9002B52
:201A60003AD1FFF751FFBDE8F04100232E4A05212E4803F0CFB82C70002BF2D02C4FE44363
:201A8000682101203C7000F03DFC012228496C20FFF79CFB0021084600F034FC254805F029
:201AA00039FAE0E7244E3278002AD2D00025234F682101203D7000F025FC394601221C2067
:201AC000FFF784FB07462946284600F01BFC2368002FBED03570BCE76821012000F012FC28
:201AE0000923134F012239466B203B70FFF76EFB3F23394601226C203B70FFF767FB01226B
:201B00000E491C202E70FFF761FB394601223A20FFF74EFB3146304600F0F4FB2C70AEE70A
:201B2000C00700203C170020F5180000CC0700203D17002080380100391700203A1700203D
:201B40000022014B1A7070473E17002070B50024144B15481C7001F061F9144A144D13684B
:201B6000296823F0010313600B6A204698472B6820469B6A98472B6820461B6B9847012133
:201B80000C4B0D4A196013689B07FCD50B4C152023689B6B984723680021BDE870401B6AAE
:201BA000152018473E170020400500200C000140B80100102820086028200840B40100109C
:201BC00010B5064C042023685B699847236804205B6B98470128F9D110BD00BFB801001000
:201BE000FFF7EEBF032801D000F016B908B5FFF7ADFF104B00219B68812098470E4B0021AF
:201C00009B68812098470D4B00219B68812098470B4B00219B68812098470A4B00219B68D2
:201C2000812098474FF48052074B1A60BDE8084000F0F2B8489F0000789F0000689F0000B7
:201C4000909F0000A89F0000A020024070B505F059F90646FFF7B4FF3A4B4FF4A0601B6860
:201C6000DB6998470121384B384A196013689B07FCD54FF40055364C00F0A0F8FFF760FFBC
:201C8000002004F0B9FD334801F0C2F8236819209B6B9847236829469B691920984723680A
:201CA00018209B6B9847236829469B6918209847236817209B6B9847236829469B69172016
:201CC000984723681B209B6B9847236829469B691B20984723681E209B6B984723684FF4E6
:201CE00080419B691E20984723680D20DB6B9847194A2368156000214FF480729B6A0D203A
:201D00009847236802209B6B9847236829469B690220984723680B209B6B984723682946BE
:201D20009B690B20984723681D209B6B9847236829469B691D20984706B170BDBDE8704095
:201D400005F0E4B8B80100102820086028200840B401001054050020A020024010B50B4B8E
:201D60000B481B685B68984710F00C0F044603D1B4FA84F0400910BD0422064B02201A6067
:201D800005F0C8F8B4FA84F0400910BDAC010010002000400428004008B5064B02201B681A
:201DA0005B6B9847012809BF034B0020186800F0010008BDB80100106020084070B5104DD6
:201DC00002202B685B6998472B6802205B6B984701280446F8D12B684FF44070DB6998476C
:201DE000084B094A1C6013689B07FCD5BDE87040064B01221B6806491B680648184700BF49
:201E0000B80100102820086028200840AC010010006CDC0200200040FF22214B10B51A7076
:201E2000FFF7BAFF20B100231E491F4A0B6013601E4B4FF440701B681B6A984701211C4B85
:201E40001C4A196013689B07FCD51B4C082023689B6B984723684FF400519B69082098478C
:201E6000236809209B6B984723684FF400519B6909209847236805209B6B984723684FF43B
:201E800080419B6905209847236806209B6B984723684FF48041BDE810409B6906201847D6
:201EA000B20600200428004010040542B80100102820086028200840B40100102DE9F84F58
:201EC0000746474B47481B78474A5B0003603B780D46136000F01CFB444E00F5CC5419343E
:201EE00033685B0608D500F013FB001B0028F7DB00242046BDE8F88F03230220336005F070
:201F000009F800F005FB394E00F5CC5419343368D80737D4FFF722FF012D034638D900289B
:201F2000E6D00124A046DFF8C0A0304E05F1FF39631E3B4402E00134AC422BD213F8012FC0
:201F4000A145CAF80020F6D90220C6F8008004F0E1FF00F0DDFA00F5CC5B0BF1190B336818
:201F6000D90708D4FFF7FAFE0134AC4203460FD20028DDD1BCE700F0CBFAA0EB0B0000287E
:201F8000EDDBB5E700F0C4FA001B0028BFDBAFE7002BADD00523154C0220236004F0BAFF39
:201FA00000F0B6FA00F5CC5519352368DA0711D4FFF7D4FE044600F0ABFA0C4E00F5CC55B5
:201FC000193533685B0694D500F0A2FA401B0028F7DB8DE700F09CFA401B0028E5DB87E7C2
:201FE0003F17002000280040082800400428004038B5174B17491B78174A5B000B6010604E
:2020000000F086FA154D00F5CC5419342B685A0606D500F07DFA001B0028F7DB002038BD2D
:20202000072302202B6004F075FF00F071FA0B4D00F5CC5419342B68DB0703D4BDE83840E3
:20204000FFF78CBE00F064FA001B0028F3DBE5E73F1700200028004008280040042800405B
:202060002DE9F84F394B3A4A1B7882465B0043F001031360894600F04BFA364E00F5CC55FD
:202080001935346814F0400408D000F041FA401B0028F6DB00242046BDE8F88F0B230220B1
:2020A000336004F037FF41F699162A4D09F1FF38E7B247451CDA00F02BFA00EB060B2B6816
:2020C000D9070ED4FFF74AFE01340028E2D00923214A022012680AF807202B6004F01AFFFD
:2020E000E6E700F015FAA0EB0B000028E7DBD1E70523184C0220236004F00CFF00F008FABA
:2021000000F5CC5519352368DA0718D4FFF726FE04460028BED0104BD1441B680D4E09F89A
:20212000013C00F0F5F900F5CC55193533685B06B1D500F0EDF9401B0028F7DBAAE700F0F2
:20214000E7F9401B0028DEDBA4E700BF3F1700200028004004280040082800402DE9F04F0A
:202160000446DFF89C91634D99F800000E46400028602078604983B008609246019300F07C
:20218000C7F95E4F00F5CC5519353B685A0609D500F0BEF9401B0028F7DB0024204603B054
:2021A000BDE8F08F032302203B6004F0B3FE00F0AFF9524F00F5CC5519353B68DB072CD451
:2021C000FFF7CCFD012E03462DD90028E5D04FF001082644484F494D444406E0FFF7BEFDE7
:2021E000B44203461FD00028D7D014F8013B02203B60C5F8008004F08DFE00F089F900F5BA
:20220000CC5B0BF1190B2A68D007E7D500F080F9A0EB0B000028F6DBBFE700F079F9401BF7
:202220000028CADBB9E7002BB7D00B2241F6991599F800302F495B00304C43F001030B60BB
:202240000220226004F066FE019BAAF10206DFF8A8801E440AF1FF37BE421BD000F058F985
:2022600000EB05092368D9070DD4FFF777FD002893D00923D8F80020022007F8012F236034
:2022800004F048FEE8E700F043F9A0EB09000028E8DB82E70523194C0220236004F03AFEC3
:2022A00000F036F900F5CC5519352368DA071BD4FFF754FD044600283FF46FAF0E4B019A42
:2022C0001B6892440AF8013C00F022F90B4E00F5CC55193533685B067FF560AF00F018F91E
:2022E000401B0028F6DB58E700F012F9401B0028DBDB52E70028004008280040042800409A
:202300003F1700202C4B10B504461970FFF744FD00284ED0294B1A78A24249D00022284826
:2023200028491C7002600A601B782BB3012B1AD1254C4FF4C041236808209B699847236876
:202340004FF4C0419B690920984723680922DB6C08211E489847236805209B6B98472368A2
:2023600006209B6B9847BDE81040194B01221B6818491B6815481847134C4FF4C041236885
:2023800005209B69984723684FF4C0419B6906209847236806220521DB6C0C48984723687F
:2023A00008209B6B9847236809209B6B9847DAE710BDFFF703FDADE73F170020B206002011
:2023C0000428004010040542B401001000200040AC010010006CDC0210B5064C0420236844
:2023E0005B699847236804205B6B98470128F9D110BD00BFB80100100020002170B51B4AD3
:202400001B4BC2E900011B6804205B6B9847012801D0FFF7E1FF164B00201B68DB69984767
:202420000121144B144A196013689B07FCD5134A13491368096823F4807323F00103114C33
:2024400013600B682046104998470423312640F22120012223600D4D0D4903F1864303F5FC
:2024600010132E6008601A6070BD00BFB8060020B801001028200860282008400C000140A9
:20248000C801001000000140002100043C0001400800014010B40949094A0B68146808686F
:2024A0008342FAD1DA010023064902EB5462C1E9002310BCD1E90001704700BF0820094061
:2024C0000C200940B806002010B50B490B4A0B68146808688342FAD1DA010023084902EB10
:2024E0005462C1E9002302F0D5FC00B910BDBDE8104002F0AFBC00BF082009400C20094019
:20250000B8060020704700BF0146012000F052B804F018BF2DE9F04104F0F4FC01240025C5
:2025200080464FF480314FF480701A4E1A4B1B4F32683D601C6018601960136828462321A6
:202540009847336820461B6824219847336825211B6802209847124A1249136843F4E02323
:2025600013600D6004F0EEFE0F4B1049104A1B6800F50070086014603C601B691420984797
:20258000B8F1000F01D0BDE8F081BDE8F04104F0BDBC00BF84010010042009400000244331
:2025A0000020094008200940B00100101C200940A0022443431E012B10B416D9042812D1A3
:2025C00000231A4610F004001CBF104C216013B101210F4B196012B101220E4B1A6010B189
:2025E00001220D4B1A6010BC7047012808D103460A4A116010F0020204D0094C2160E1E7DD
:202600000023F7E7002BEED01046E1E72020094080022443A0022443C0022443182009408D
:202620001C200940014B1868704700BFF007002008B5FFF76DFF184B1860FFF745FF174B26
:202640001B686BB9164B1B68E3B9164B1B6833B100204FF480321449144B08601A6008BD13
:202660004FF48072114B1A6004F06CFE00F205200F4B20F4FF7020F001001860084B1B689E
:20268000002BE2D0002001220A49084B08601A6002F0AEFDD9E700BFF0070020A000244358
:2026A00080002443C0002443C0022443042009401C20094080022443012203490348044BFF
:2026C00008601A60704700BF00000840FFFF0F00000C084038B504F015FC114AB0FA80F092
:2026E0001368012B0AD001230E4C0F4D0F49104A400925600B60136068B938BD0D4C094960
:20270000094D14600D60094C0949400923600B6013600028F1D0BDE8384004F0F7BB00BFC6
:20272000000C084000000840FFFF0F000C0008400401004351E5CC1A012203490348044B2F
:2027400008601A60704700BF00000840FFFF0F000C00084008B5064803F050F930B101212E
:20276000044B054A196013689B06FCD508BD00BFF4070020000222431410094070B5054672
:2027800004F0C0FB0B4C294606460B4803F038F9FFF7E0FF236868681B6898472368686814
:2027A0009B6898471128F9D106B170BDBDE8704004F0ACBBA0010010F407002038B598B19E
:2027C0000022134913480B68134D144C006823F4C0530B602A602260C36801209847104A5F
:2027E00013689B06FCD438BD04460E4803F006F90028E5D005C814430028FBD1002CDFD096
:20280000034A136823F4C05343F40063136038BD04100940A0010010800122430002224369
:2028200014100940F407002038B5054604F06AFB04462946054803F009F90020FFF7BEFFB1
:2028400004B138BDBDE8384004F060BBF4070020F8B50546C0B10078C0B1C9B12C460D44F8
:20286000C4F1010704E014F8010F38B1AC4205D000F056F9631C07EB0406F4D100F064F923
:202880000128FBD03046F8BD0646F7E70646F5E70E46F3E710B40D4B0D4C1A780133FF2A35
:2028A00011D1A342F9D10B4C59B101392144013800E019460B4613F80129A14200F8012F7E
:2028C000F7D110BC7047014CEEE700BFC8FF0100D0FF0100F012005038B50C4D02202B68E7
:2028E0005B6998472B6802205B6B984701280446F8D12B684FF40070DB699847044B054A98
:202900001C6013689B07FCD538BD00BFB801001028200860282008402DE9F04340F2F275AE
:20292000DFF8DC8083B0FFF7D7FFD8F800302A4EDB682A4898473368294C5B691520984771
:202940002368DFF8C090274F23F4FE63D9F8002023F0020323603D60D36B1D2098474FF015
:20296000FF334FF000502049D9F8002008600093D2F840901C211D221848C847D8F80020CC
:202980006023D2F8048019494FF4E1321348C047142140F2011340F2013C154A1548116035
:2029A0000268154942F0100202600868134A002818BF634613603D600B6853B115202368ED
:2029C000326843F050032360136903B0BDE8F043184703B0BDE8F083B00100100010004012
:2029E000381000404410004090200240006CDC02341000402C100040F807002030100040E0
:202A0000D0010010B401001008B5064B02201B685B6B9847012809BF034B0020186800F0E9
:202A2000010008BDB80100106C20084038B50446FFF7EAFF18B1264A13681907FCD4032C4A
:202A400003D0244B1B6803B138BDFFF7DDFFA0B1214B22481B68DB689847214B15201B6846
:202A60005B69984740F2F2701E4A1F49136823F4FE6323F00203136008601C4D4FF400704D
:202A80002B681B6A9847032C16D00121184B194A196013689B07FCD51D2000F0D5F91C20A4
:202AA00000F0D2F94FF0FF3000F0CEF9BDE838404FF0FF3000F0C8B92B684FF400709B6AEF
:202AC00098472B684FF400701B6B9847DDE700BF18100040F8070020D00100100010004031
:202AE000B00100103810004044100040B8010010282008602820084010B504F003FA0446F0
:202B0000054800F085F90022044B1A6004B110BDBDE8104004F0FAB968050020F807002045
:202B200010B50446FFF770FF38B1054B2146BDE810401B680348DB691847FFF7EDFEF4E75F
:202B4000D00100100010004008B5FFF75DFF18B1024B1868C0F3C00008BD00BF1810004040
:202B600070B5FFF7B9FE40F2F2710C4B0C4A1B68116013F0500F0DD00A4C0B4E0B4D06E021
:202B8000336828461B699847094B1B681BB92368DB06F5D570BDC0B29847EFE74010004004
:202BA0004410004018100040D001001000100040F8070020034A136823F00403136030BF85
:202BC000704700BF10ED00E070B504F09BF902F0D5FA18B1BDE8704004F098B97D4802F01A
:202BE0000DFF0224054648B16B6823B19847844228BF0446E4B22D68002DF5D1FFF788FC4A
:202C0000754B06461B686BB3744B1B681B1A022B3ED4A3F28F23002B24DA022C22D102F0CE
:202C200039F930B3012402F03DF90546FFF732FC2D1A002DCEDDFFF7F5FC00EB45218B1BC6
:202C4000A3F28F23002B2FDA013C012CC2D88B1B082B26D406F58036731A31EA230128BFBE
:202C6000314608E002F016F90028DCD1012C40F0A58006F580310220FFF79CFC584A136824
:202C800023F00403136030BFBDE8704004F03EB9002C00F0988002F0FDF800289AD00024A7
:202CA000C1E706F10801E6E7012CD0D0022C91D12046FFF77FFC474802F0A0FE04460028DA
:202CC0006CD00625A3680BB1022098472369246825EA0305002CF5D1FFF72EFD6B0760D4DD
:202CE000002D61D100F080F90020FFF767FD3D493D4A0B683D4823F003030B601368016825
:202D000043F00F0313608B69392098470023384A38491360184613600B6004F08BF9062D4F
:202D200048D0354C354D364E2B682368326823F00303236053680321324898472B4B1B686F
:202D40009B6B98472B6804F08DFA00212E4A336811602C485B6801219847012123682B4A81
:202D600043F00303236011602B6804F0ADFAFFF7F1FCFFF7A9FBFFF7DFFC164802F03EFE1E
:202D8000044628B1E36803B198472468002CF9D104F0BCF8BDE8704004F0B8B8FFF7CCFC91
:202DA00006250022194B1A60104B28461B689B69984797E7022004F0B1F8B2E7022C7FF442
:202DC00009AF711E74E702F065F800287FF42BAF00E700BFFC07002080022443182009405A
:202DE00010ED00E00010094008100940B80100104010094020042243242208402C2009402E
:202E0000D801001000400340800104430C4009400146014802F0F4BDFC0700200146014803
:202E200002F014BEFC07002010B5054802F0E2FDBDE81040034B20211B6803201B681847BC
:202E4000FC07002084010010431C0ED010B5074B04461B684FF4C0421B68002198470022AF
:202E6000034B43EA84031A6010BD7047B4010010001A4442024B1868186002F001BD00BF39
:202E8000E020024070B51B4B0C461B6805465B68984714F00C0320F0E06222F4EC2207D043
:202EA000042B1DD0082B21D00C2B08BF42F4403214F003030DD142F4C04223060D4B28461D
:202EC000BDE870401B6848BF42F480221B6800211847022B07D0012B08BF42F48042ECE776
:202EE00042F40032E4E742F40052E6E742F48032DEE700BFB4010010094B1968C140CA0772
:202F000006D4084B1B6823FA00F000F00100704753F8502C22FA00F000F00100704700BF12
:202F2000D0200240C02002400022412300B585B002A8CDE90223FFF721FC042004F0DEFA45
:202F4000032805D102A8FFF76FFC05B05DF804FB0321042004F0A6FA042004F0CFFA032874
:202F6000FAD100901C234FF040520021044804F01BF802A8FFF758FC05B05DF804FB00BFB6
:202F800000A00C400022412300B583B06846CDE90023FFF7F3FB012004F0B0FA012803D0B1
:202FA0000121032004F07EFA6846FFF73DFC03B05DF804FB0022412300B583B06846CDE9AA
:202FC0000023FFF7DBFB012004F098FA012803D0044B986B03F082FF6846FFF725FC03B021
:202FE0005DF804FB4800001010B54123002482B06846CDE90043FFF7C1FB0320214604F0CF
:2030000051FA012004F07AFA20B96846FFF70CFC02B010BD044B986B03F060FF6846FFF790
:2030200003FC02B010BD00BF4800001070B50388044653B1B3F52F7F03D182290AD001202D
:2030400070BD00232380032070BD4FF42F732380012070BD094B0A4E1D69FFF76DFB02F0D5
:20306000B1FE02F069FE8021A847002880B2ECDD02F05CFEF3689847EFE700BF08A00000D2
:20308000E4A20000024B186800F00100704700BF9C21084038B510F0030305460C4602D10E
:2030A0000288110508D403F02DFF1B4B1B68DB0714D450B3002038BD438003F023FF164B71
:2030C0001B68DA07F5D52B8813F4405F06D003F44063B3F5006F04BF104B1D60104B114992
:2030E0001D600B684CF25032236003E00B68013A2360DED013F0FF0FF8D050B12078A0F1D8
:203100000100B0FA80F0400938BD03F0FFFE0020D1E703F0FBFEF1E79C210840000800209D
:2031200000100440041004400A4A01E0013A0ED0438803F44063B3F5806FF7D1428802F411
:203140004062A2F58060B0FA80F0400970471046704700BF20A1070030B583B003F0D2FECD
:20316000254C0546236819201B6A9847236812201B6A9847236819205B6998472368122026
:203180005B6908349847236801205B699847236801205B6B98470128F9D11849184B194A96
:2031A0000860186013689B07FCD50023124C16481649226803600B6013691920984723688C
:2031C00012201B699847A5B140F2FF350024104B104A114911480D60046001A91A601048C5
:2031E000FFF758FFA0F10100B0FA80F0400903B030BD03F08BFEE7E7B00100102C2008404E
:20320000282008602820084010100460141004600010044051000706000004601C100440DC
:203220000100060410B586B01422002101A806F0EFFD012140F60A0214489DF811300468A4
:2032400061F3030301A869468DF811300594ADF80420FFF71FFF012815D10D4801E0013802
:203260000FD0BDF8063003F44063B3F5806FF6D1BDF8060000F44060A0F58060B0FA80F0AE
:20328000400906B010BD002006B010BD1008002020A1070000B587B01422002101A806F0DD
:2032A000B7FD012140F609029DF8113001A861F3030369468DF81130ADF80420FFF7EAFE02
:2032C000012803D0C0B207B05DF804FB104801E00138F8D0BDF8063003F44063B3F5806F1F
:2032E000F6D1BDF8063003F44063B3F5806F0BD1084B01201A78002AE5D1074A05991870B2
:20330000116007B05DF804FB002007B05DF804FB20A10700401700201008002030B587B073
:2033200003F0F0FD324C0546236819205B699847236812205B6998472E4B1B68DA072AD442
:20334000FFF7A8FF002401212B482C4B2C4A0460196013689B07FCD52A4C012023689B6939
:203360009847236801205B6B98470228F9D1204C192023681B6A9847236812201B6A984774
:20338000236819201B699847236812201B69984755B307B030BD00231B491C4A0B6002A838
:2033A00019461360102206F033FD012140F60D029DF8153002A861F3030301A98DF815302A
:2033C000ADF80820FFF766FE0128B9D1104A01E0013AB5D0BDF80A3003F44063B3F5806FF8
:2033E000F6D1BDF80A30ABE703F090FD07B030BDB00100109C2108402C2008402820086057
:2034000028200840B8010010101004601410046020A1070008B503F0CDFF052803460CD0B1
:20342000032805D068B903220A4B01201A6008BD0222084B01201A6008BD064A01201360D6
:2034400008BD012801D0002008BD0521014A116008BD00BFD021084008B5FFF77DFE0128D2
:2034600004D1FFF7DFFE012800D108BDFFF756FF002008BD08B5FFF70DFFFFF7D3FE012806
:2034800000D108BDFFF74AFF002008BD70B5164B164A197812680029154C18BF0024D30722
:2034A00000D470BD03F02EFD00210646114A1248124B134D10601C602B6842F8081C1B6AAC
:2034C000192098472B6812201B6A98472B6819201B6998472B6812201B699847002EE0D175
:2034E000BDE8704003F012BD421700209C2108400000C08018100460000040801410046023
:20350000B0010010084B1B7833B1002002460749074B0A6018607047064B0749074A002863
:2035200014BF18460846F2E74217002010100460141004600800C0800200C0800000C080E4
:20354000044A054B1178054A002918BF00231360704700BF421700200000C08014100460A8
:20356000014B1868704700BF0008002038B5044615460A46002106F04BFC0122637B2580FB
:2035800062F30303637338BD014B1860704700BF0408002038B5064B064C1D68064A002317
:2035A0004FF434410548256001F034FB012038BD043004400C0800204136000018080020E8
:2035C0001A4B1B6883B32DE9F0419B68984710B90020BDE8F08103F095FC154B80460020DB
:2035E0001F680023134E17F18044326840EB00059D4208BF944206D33760B8F1000F0ED0A8
:203600000120BDE8F081FEF783FF0B4A0B4913680860013313603760B8F1000FF0D103F0C6
:2036200075FC0120BDE8F0810020704704080020043004400C0800201408002008080020C7
:2036400070B5134B1B68B3B19B689847D8B9114C236A984701280ED1FFF7B2FF636A0546FD
:20366000984745B1BDE8704000230B4A4FF434410A4801F0CFBA0023BDE87040064A8021BB
:20368000064801F0C7BAFFF79BFF0546E9E700BF0408002008A00000413600001808002075
:2036A000F8B5224E3368002B3DD09B680546984728BB1F4C236A9847FFF782FF636A984710
:2036C0001C4BB5F1404F1C6820D8002033681A49B3F90C600968F717721A67EBE17356197C
:2036E00043F10007301847EB0401090241EA106143F609520023000206F05AF9F8BDFFF7BC
:203700005FFF0C4BB5F1404F1C68DED9FEF700FF0A4B1B68C3F17E4303F57203C34248BFCA
:2037200004F1FF34D1E71846F8BD00BF0408002008A000001408002010080020080800205F
:2037400010B5104B1B68DA0704D4FFF705FD012800D010BD0C4C23685B0204D46FF0004296
:20376000094B1A6010BD0122084B09481A7001F02FFD6FF480036FF000422360024B1A606F
:20378000F0E700BF9C21084010100460431700207C05002008B5124B1B68D90707D411483E
:2037A00004F036FBFFF7D8FC012800D008BD03F0A9FB0D4B1A6812020BD40B4B1A6812F01E
:2037C0000A0F1CBF6FF00A021A60BDE8084003F09DBB6FF4000205481A6001F0F9FCECE7F3
:2037E0009C210840C09F0000101004607C050020014B1878704700BF4417002008B5FFF7C0
:2038000041FC30B1034B5888A0F10200B0FA80F0400908BD3C08002030B583B0FFF732FC01
:20382000154C10B16388022B08D001A91248FFF731FC012805D0002003B030BD012003B0BD
:2038400030BDFEF765FE6388022B0DD06FF03F052D1A04E0FEF770FF6388022B04D0FEF71B
:2038600057FEE842F6D46388A3F10200B0FA80F0400903B030BD00BF3C08002008B5B429BE
:203880000A46014628BFB422024806F04BFA002008BD00BF120B002010B5012488B002A8A2
:2038A00040F602021821FFF761FE104A9DF8183011680F4A898823F00F03ADF81A1002A888
:2038C00001A98DF818308DF816400792FFF7E2FBA04202D0002008B010BD02A8FFF724FC11
:2038E000001BB0FA80F0400908B010BDCC050020A005002008B5FFF7CFFF012801D0002074
:2039000008BDFFF789FFC0B208BD00BFF8B50E4D00200E4F2C680E4E06E02379022B06D074
:2039200024682B68A34209D02379032BF5D13B782BB124682B680120A342F5D1F8BD304675
:2039400001F046FC0120EBE7040B0020421700207C05002030B583B0FFF702FE0446FFF7AA
:2039600091FB08B903B030BD01A90E48FFF792FB0128F7D1FEF7CCFD638803F44063002B78
:20398000F0D16FF03F052D1A06E0FEF7D5FE638803F44063002BE5D1FEF7BAFDE842F4D4CA
:2039A000E0E700BF010001040B280BD00C2801D001207047042A08D139B10A4B00201B68A7
:2039C0000B607047082A00D109B902207047064A4B1E073112F8010903F8010F8B42F9D180
:2039E00000207047380800206B08002008B5FFF749FB30B1044B5B88022B14BF02200120B0
:203A000008BD022008BD00BF3C08002000B585B0002102A8082206F0FBF942F2034302A8EA
:203A200001A9ADF80830FFF735FB20B19DF90A30803303D0002005B05DF804FB9DF80C00E8
:203A400000F00C00A0F10400B0FA80F0400905B05DF804FB30B583B0FFF714FB18B1204C17
:203A60006388022B02D0012003B030BDFEF750FD1C4D2D1AFFF706FB60B1FFF7C7FF48B1EC
:203A8000FEF746FDC54205D5FEF756FEFFF7FAFA0028F2D101A91448FFF7FCFA6FF03F055A
:203AA000FEF736FD2D1AFFF7EDFA60B1608802280AD1FEF72DFDC54205D5FEF73DFEFFF796
:203AC000E1FA0028F2D1608842F202439842CAD042F20743C01AB0FA80F0400903B030BDF0
:203AE0003C08002000FEFFFF010001040B2810B502D00124204610BD082A13D191B1114A8B
:203B000001F1080313F8010D8B4202F8010BF9D1FFF7B8FA18B10C4B5B88022B05D0002421
:203B2000204610BD0224204610BDFFF793FF012814BF03240024FFF76FFE012818BF0324A0
:203B4000D8E700BF640800203C08002030B585B0FFF798FA20B3144B5D88022D20D142F2EA
:203B6000034402A80822002106F052F99DF80C3065F301038DF80C309DF80C0000F0030343
:203B8000022B0ED1082200210DEB020006F040F901A902A8ADF80840FFF77CFA0028EBD114
:203BA000FF2005B030BD00BF3C08002008B5FFF71FFE012814D0FFF765FA88B1094B5B887F
:203BC000022B0DD1FFF75EFA30B9FFF7BFFFFF2806D0C0F3801008BDFFF718FF0028F4D0F1
:203BE000002008BD3C08002010B5FEF791FC194C241AFFF747FA60B1FFF708FF48B1FEF75F
:203C000087FCC44205D5FEF797FDFFF73BFA0028F2D1FFF71FFFFFF781FBFFF7E5F9002226
:203C20000D4B0E4819794280022900D11A710C4B1A79022A04BF00221A710A4B1A79022A61
:203C400004BF00221A71084B1A79022A04BF00221A7110BD00FEFFFFD40800203C08002049
:203C600060090020EC090020780A002008B5FFF7BFFD012801D0FFF7B7FF012008BD00BF4A
:203C8000F8B5FFF7B5FD01282ED0FFF77BF9FFF7F9F918B11A4B5B88022B25D00125842455
:203CA000184A1948577946791849194B65F3830765F38306577146714F795E7965F383072A
:203CC00065F3830610600160C480D480CC804F710B601A60DC805E71FFF76CF9FFF7BCFB76
:203CE000A84203D00020F8BD0120F8BDFFF7CEFBFFF7D2FD0128F5D1BDE8F840FFF78CBDCD
:203D00003C080020D408002060090020EC090020780A002010B584B0072800F2B080DFE8F2
:203D200000F01E622731345D6D04564C2177FFF7A9F918B36388022B20D1FFF78BFE01286B
:203D40000CBF00240324FFF795FB01287ED0FFF763FD012818BF0324204604B010BD0129C2
:203D600000F08780002974D00224204604B010BD444C6186FFF786F90028DBD10024204688
:203D800004B010BD3F4C2186D1E731F00703EBD147F605733B4CC1F34000227E61F30002AB
:203DA00060F382022276208B374A03401078C1F3800143F00203814223831170B7D104F1C9
:203DC00018010222314805F0ADFF03A93048FFF761F900280CBF03240024BDE731F0010311
:203DE000C2D1CCB2B8E7A1F10B030F2BBCD8254CC9B2A37B8B42C1D0A17398E701F11503A0
:203E00001A2BB1D86FF014030C24224A01E052F83430994227DD14F1FF34F8D2FFF732F931
:203E20000028ABD003A80422002105F0F1FF1022184B03A803EBC404A38802A9ADF80E3059
:203E4000ADF80C200024FFF725F985E7FFF7B8FB7DE70191FFF7CCFC01288FD0FFF7C4FE50
:203E600001990C4678E70B4B0B4A03EBC4031360D4E7FFF705FF012880D003246CE7012457
:203E80006AE700BF3C08002042170020BE080020BC08002050A00000CC050020B9B170B5FB
:203EA0000C4684B0172800F2B280DFE800F09E99AB2F180C1283504A45B0B0B0413D3834BF
:203EC000B095918D0C890020086004B070BD022070475C4B00201B681B680B60F5E7002371
:203EE000594A0B60137E03F001030B60127E520744BF43F002030B60544B1B78002B57D0AE
:203F00000B68002043F004030B60DEE74E4B00201B8E0B60D9E7052300200B60D5E76FF049
:203F2000140300200B60D0E71A2300200B60CCE70B2300200B60C8E7454B00201B780B6097
:203F4000C3E7444B00201B785BB20B60BDE7FFF799F800285DD03C4B5B88022B59D1002696
:203F6000082202A8002105F053FF02229DF80C3042F2034562F383038DF80C300BE00021EC
:203F800002A805F045FF01A902A8ADF80850FFF781F8002848D09DF80C2002F00C02082A4B
:203FA000EDD0002E45D19DF90A302360803347D000208AE7244B002093F91C300B6084E715
:203FC000182300200B6080E70A2300200B607CE7202300200B6078E7032300200B6074E760
:203FE000194B00209B7B0B606FE7FFF74BF830B1154B5888A0F10200B0FA80F04009206096
:20400000002062E7104B00205B8E0B605DE701205BE7FFF735FE012808BF0646A0D06FF08D
:204020007F030320236050E780238DF80A30002EF5D0FFF7DDFB0128B5D0FFF7D5FDB2E7EF
:20404000032042E7CC0500203C0800204217002041170020B306002070B588B00546FFF757
:2040600011F818B1344B5B88022B1ED0FFF708FE012816D10446FEF74BFA6FF01F031E1AA8
:20408000FFF700F8A8B1FFF7C1FC01280FD1FEF73FFAC642F4D4002C47D10225284608B08E
:2040A00070BD0125284608B070BD0024E3E70028F1D1182102A842F60142FFF757FA0022BB
:2040C0001E4BEDB28DF81750069304929DF81430012062F303038DF81430FFF713FA02A8F2
:2040E00001A9FEF7D7FFD8B1154D2A7800E0CAB1BDF80A3003F44063002BF8D0BDF80A50D8
:20410000ADB2B5F5105518BF0125FFF719FA002CC8D0FFF76DFB0128C4D0FFF765FDC1E74C
:204120000125F2E7FEF746FDDFE7FFF761FB0128B3D0FFF759FDB0E73C080020120B002000
:204140004217002010B50C46B42C2246014628BFB422044805F0E6FD2046BDE81040FFF70E
:204160007BBF00BF120B002010B5FFF741FB012823D0FEF787FF18B1214B5B88022B1FD047
:20418000FFF77EFD0128044611D1FFF7DFFCFF2805D000F0030010F1FF3418BF0124FFF773
:2041A00027FB01280AD0FFF71FFD204610BDFFF71FFB012801D0FFF717FD0124204610BD29
:2041C000FEF7A6F90F4C241AFEF75CFF60B1FFF71DFC48B1FEF79CF9C44205D5FEF7ACFA44
:2041E000FEF750FF0028F2D1FFF7B0FCFF28E4D000F0030010F1FF3418BF0124DEE700BF6C
:204200003C08002000FEFFFF2DE9F043324F83B0814688463E68FEF77BF9304D2D1A03E0F6
:20422000FEF776F9C5421AD53479022CF8D0032C10D139680E7AF6B2062E02DDB51F45452F
:204240000FDD002528460B680D720D713B6003B0BDE8F0830025284603B0BDE8F0833479FE
:20426000E5E7093148462A4605F05CFD04223968F31CCB5CDFF870905BB289F80030331D0A
:20428000CB5C0536DFF8648003F03F030DEB0200314488F8003005F045FD0198FFF700FAED
:2042A0000F4B104A1B7810604BB1002228463B6819681A7239601A7103B0BDE8F08399F88B
:2042C0000010042049B289B201F0D0FD98F80010204601F0CBFDE8E70C0B0020FAFEFFFFFB
:2042E0004217002038080020B3060020411700202DE9F0410025394F3948FEF789FDFFF7AE
:2043000089F838468C22294605F082FD8C222946344805F07DFD8C2229463348334C05F0F9
:2043200077FD8C222946324805F072FDDFF8E480304B314E2946802220461F60C8E90075BD
:2043400005F066FD304642F202024FF2F0034FF0A60C012742F6010E20F8022BE2682749C4
:204360001340A26984F81CC01140254A94F837C01A43244BE260244A0B4367F3030CC4F855
:2043800000E0A36184F837C004F118016261C4F8108002226560A560E583C4E90855A56341
:2043A00005F0C0FC3A4604F11A01301D05F0BAFCFFF766FCB84203D02C462046BDE8F081B1
:2043C00004461248FFF7E0F8FFF7E4F82946104800F046FE2046BDE8F08100BFD408002067
:2043E0008C05002060090020EC0900203C080020780A00200C0B0020BC080020007C008051
:2044000000011AB10702FF6FC408002040A000007C050020040B002008B500F08BF880B25B
:2044200008BD00BF00F014B938B50C4D04202B685B6998472B6804205B6B984701280446CC
:20444000F8D12B6840F20140DB699847044B054A1C6013689B07FCD538BD00BFB8010010E5
:204460002820086028200840034B1B68002B0CBF02200120704700BFC80B0020F8B5038851
:204480000446002B2ED0B3F5847F05D1184B1B788B4205D00120F8BD002323800320F8BD1C
:2044A000144D2B6873B1144B144A1B6812685B68022017460026984730182B6847F10001CF
:2044C00098472E600E4B40F201401B689B6A984701210C4B0C4A196013689B07FCD50B48B3
:2044E000FEF79CFC4FF4847323800120F8BD00BFB4060020C80B0020CC010010048002404D
:20450000B80100102820086028200840D005002008B5064B04201B685B6B9847012809BF52
:20452000034B00201868C0F3400008BDB80100103C2008402DE9F041284B1B6883B1284887
:204540000023024612F8011B002939D10133042BF8D100274FF0000838464146BDE8F081E2
:20456000FFF7D6FF002836D01E4A1F4B12681A420ED11E4A0121134611601A68002AFCD1EE
:2045800010464FF4807102F08DFC0122184B1A6002F0B8FC0646134A1368DB07FCD5154B39
:2045A000154A1B6812685B680220154600249847271845F10008002ECED102F0A7FCCBE7CB
:2045C00000210E4AC15402EBC303D3E9007838464146BDE8F081FFF727FFC5E7C80B002090
:2045E000CC0B00200880024001000080F09F0240A8025042CC01001004800240C0060020E3
:2046000038B500240D4D0E4A2C6013680D4923F00103096813604B693120984722462046CD
:204620004FF4807102F03EFC0122074B2A6019782246BDE83840054800F0AABDA802504225
:204640000C800240B0010010B4060020E405002010B5074C2378802B00D010BD00F0F8FC09
:20466000002120700348BDE8104000F0F9BC00BFB4060020E405002008B502F043FC0030E4
:2046800018BF012008BD00BF80F31088704700BF827A044B03EBC2035B68181AB0FA80F010
:2046A00040097047D00B0020474A837A02EBC303D3E84F1F11F0FF0F03D0BFF35F8F0320F0
:2046C00070472DE9F041012184B0C3E8471FBFF35F8F002F76D10446817A3C4B02EBC102E3
:2046E00050601B68C078DB6B394E9847394DA37A326805EB031352695868B0469047A37AFB
:20470000D8F8002005EB03135868536B984701280646F4D1A37AD8F8002005EB0313D269BE
:20472000986890472C4B2D4A1E6013689B07FCD50320A37A2A491B01EA58536923F00F0356
:204740005361A37A1B01EB581862A37A096822891B01E8580E683AB1227A637A002A2CD01A
:20476000002B14BF03270227082163683A46CDE9003100231B49B047144A2178A37A126881
:204780001B010091566CE858A2784FF0FF336178B047A37A124E1B01EA58536843F0020341
:2047A0005360A37A32681B01E85803A9136998470028F6D104B0BDE8F081002B0CBF032753
:2047C0000127D1E70320F5E7D00B0020B4010010B8010010D4A000002820086028200840BD
:2047E000C4010010006CDC0270B5214D837A05EBC3025268904201D0042070BD1D491E4AD9
:20480000096802EB031304460A6A9868904701211A4B1B4A196013689B07FCD5194E6078FD
:2048200033689B6B984733684FF4005160789B6998473368A0789B6B984733684FF4005147
:20484000A0789B699847336820789B6B9847336820784FF400519B6998470020A37A05EB6E
:20486000C3035860A37ABFF35F8F05F8330070BDD00B0020B8010010D4A0000028200860B8
:2048800028200840B40100102DE9F04F304D877A85B005EBC7056C68A04203D0042005B09D
:2048A000BDE8F08F9A462B4B01912B4E90461A6806EB07130446526B58689047012845D133
:2048C000A07A264A00013318DB6812681A423DD0DDE90E329F184745B8BF4746002F33D05D
:2048E000D8BF0DF10C0B24DD0025DFF874900DF10C0BA845D4BF0021019B3058C8BF595DF4
:204900000391D9F800305B689847A17AD9F8003009017058DB68594698470E9BAB42C4BF98
:20492000039B0AF80530A07A0135AF424FEA0010DFD10B4D01E0A07A00012B6830581B6975
:20494000594698470028F6D10020A8E70520A6E7D00B0020B8010010D4A000007820084071
:20496000C401001010B54F4CFCF760FBFDF744FD00F03CFC00F098FB00214B4800F070FBC5
:2049800000F00EF9FDF798FE00F0B0F900F068FCFCF78AFB01F0FAF801F092FA00F0BAFA2D
:2049A0002368022B11DCFCF795FB404800F0A2F8FDF790FE00F092FB0446FDF7BDFE14F0C1
:2049C000FF0FF7D1FCF7F2FBF4E7394A39493A4803F01EFA394803F01BFA2368022BE2DDB4
:2049E000334A3449344803F013FA354B3548196803F00EFA2368022BD5DD2D4A2D492E48FB
:204A000003F006FA304B3148196803F001FA2368022BC8DD264A2749274803F0F9F92C4B38
:204A20002C48196803F0F4F92368022BBBDD204A2049214803F0ECF94AF6CD31264803F09E
:204A4000E7F92368022BAEDD194A1A491A4803F0DFF91A21214803F0DBF92368022BA2DD9E
:204A6000134A1449144803F0D3F91D4B1D48198803F0CEF92368022B95DD0D4A0D490E480C
:204A800003F0C6F9184803F0C3F92368022B8ADD164800F001F92368022B84DD144803F086
:204AA000B7F980E704060020080600207CA30000F4A00000D09E0000D89E0000FCA0000054
:204AC00020A3000034A1000008A3000044A10000E4A2000050A100005CA1000078A1000021
:204AE0003217002098A10000A8A100008817002074A1000010B50446006830B1002100F08E
:204B0000AFFA54F8040F0028F8D110BDF0B5038883B0054633B14A2B18D188291BD0012022
:204B200003B0F0BD1B4800F069FF044630B1A168201D00F095F92468002CF8D10122164B66
:204B40001A704A2301202B8003B0F0BD002303202B8003B0F0BD0F48019200F04FFF04466F
:204B60000028EED0019A031D9A4205D02468231D002CE6D09A42F9D1084E2146054800F095
:204B800065FFD4E90523376832600BB1E06998473760D6E7E00B0020451700206C0D002043
:204BA00010B50024054B06481C7000F023FF2146BDE81040034800F053BA00BF45170020F1
:204BC000E00B0020F405002070B504460D48049D0078C4E90623656130B9A1600A48214695
:204BE000BDE8704000F00CBF084D094B2E68201D2B6000F035F92E602146BDE870400248EC
:204C000000F0FEBE45170020E00B00206C0D0020F405002010B5044C82B024680094FFF752
:204C2000D3FF02B010BD00BF6C0D002010B50A4B04461B783BB9C0E903332146BDE81040A5
:204C4000064800F003BF043000F036F92146BDE81040024800F0FABE45170020E00B00202C
:204C600038B50B4B1D785DB904460A4800F0C6FE10B90AE0006840B18442FBD1002038BD43
:204C80000430BDE8384000F0FFB8012038BD00BF45170020E00B0020F8B1F8B500240546FB
:204CA0000F4E104F54B1E3070DD5295D304603F0AFF8072C10D00134002CF4D12978304681
:204CC00003F0A6F8F7E7384603F0A2F8295D304603F09EF8072CEED1F8BD034803F098B8A0
:204CE000E4A10000E0A10000D0A10000704700BF10B5FDF7CFFB0B4B1A68D2E90031926886
:204D00000B44191A52B1D2E9003423441B1A9268994228BF1946002AF5D14318024A13605E
:204D200010BD00BFE80B0020E40B00202DE9F843038805464BB3592B2AD187292DD08229C9
:204D40001ED14FF000092B4FDFF8B0803C68BCB1002603E0A368264693B11C46204600F00E
:204D600071FA0028F6D022468821E06800F010FA18B3404600F02CFAA3682646002BECD1C1
:204D800059232B800120BDE8F8831A4A1360F7E700232B800320BDE8F883164F39680029B6
:204DA000EED0CB689A4203D014E0CB68934210D189680029F9D13960E2E7E060A368BEB176
:204DC000B3603B68C4F808907BB1FFF791FF3C68BDE739608B68002BD2D0D3E902049442DE
:204DE00014BF194688600346F5E7034A1360C7E73B60E7E7E80B0020E40B0020080600204D
:204E000010B50446104800F0E3F91049E3680A684BB142B194420FD0134601E09C420BD0B2
:204E20009B68002BFAD10A4BA2601B680C60E360BDE81040FFF75CBF054B1B68E360BDE82F
:204E40001040FFF755BF00BF08060020E80B00206C0D0020014800F0BBB900BF08060020C5
:204E600010B5044600F0D8F92046BDE81040FFF7C7BF00BF10B5044600F0D6F92046BDE8F3
:204E80001040FFF7BDBF00BFC068B0FA80F04009704700BF024B1868003018BF01207047E4
:204EA000E80B0020024B186808B1024B18687047E80B0020E40B002010B5144B04461A68C3
:204EC000824218D05AB19368984208BF13460AD02BB19A68A24206D01346002BF9D1002343
:204EE000C4E9023310BDA2689A60FFF701FF0023C4E9023310BD82681A60002AF5D1044B94
:204F00001A600023C4E9023310BD00BFE80B0020E40B0020034A04499079D37903EB002364
:204F20000B80704788170020321700202DE9F843294F3D68854249D0002D3AD02B4601E030
:204F4000002B36D01B689842FAD1002B31D0234E837B89460446D6F80080DBB10023837351
:204F6000002D35D0AC4207D0AB7BDB0704D522468721284600F034F82D68002DF2D1A3682F
:204F80003BB14C4505D034600022832104F10C0098473D68AC4214D04DB12B68A3420AD0BE
:204FA0002BB11A68A24207D01346002BF9D1C6F80080BDE8F8832B4622681A60C6F8008079
:204FC000F7E72368C6F800803B60F2E72B46BCE78368002BD5D1EAE7700D00206C0D0020DF
:204FE00070B586687EB1044602200A4BA0731C6004F10C000D46B0470238012804D9832DE4
:2050000002D00123A37370BD21462046BDE87040FFF78CBF6C0D0020002238B50A490B4BA3
:205020000C681A707CB1012501E024685CB1E37B002BFAD0E581204600228221FFF7D0FFFC
:205040002468002CF3D138BD700D002049170020024B1878421C1A70704700BF4717002009
:2050600070B50F4D2C68844206D034B1234600E01BB11B689842FBD170BD0028FCD00346F2
:205080000A46012000211C60064C987326689981184681212B60FFF7A3FF266070BD00BF68
:2050A000700D00206C0D002030B48A250023064A064815700649074A074C03700B6013609D
:2050C000237030BC704700BF4717002048170020700D00206C0D0020461700202DE9F041E4
:2050E000214D2B78F3B9214E3378BBB12048214F0278013B02EB4201890001327C1802F06D
:205100001F020270A068DBB233707F5CD4F8048058B1812F1DD0827BD2071CD42878184431
:20512000BDE8F081FFF778FFDDE7134A146854B9F4E7A37BD90704D5424639462046FFF72D
:205140004FFF24685CB12B78002BF2D0FFF764FFEFE70123837342463946FFF741FF3378A7
:2051600028781844BDE8F081491700204817002046170020EC0B0020700D0020024A034B53
:2051800010781B7818447047481700204917002070B40C4D2C78202C11D00B4B0B4E1B7852
:2051A000234403F01F0303EB43039B0001342C70F418C4E90120F154002070BC7047012090
:2051C00070BC70474817002046170020EC0B002018B1837B013B012B00D970470123024AAA
:2051E000C3731370704700BF49170020FDF78AB910B5084C206858B1D0E901310022226090
:205200009847236823B1BDE810401868FDF77CB910BD00BF740D002010B541600446FDF7E1
:2052200039F9206010BD00BF10B50446FDF732F9D4E90021C2F101031844884284BF52189A
:20524000226010BD10B50446FDF724F9D4E90032C3F10103184482422CBF0020012010BD1F
:2052600082B0074B01AA9A42019304D9CD2103F8011B9342FBD10021024802B0FFF7F0BE4B
:205280009B1700201806002038B5124CFDF754FA2378114DCD2B08D0AC4202D30EE0AC4209
:2052A00013D014F8013FCD2BF9D1AC4202D30CE0AC420AD014F8013FCD2BF9D0FDF73CFA4F
:2052C000AC4204D22C1BA0B238BDFDF735FA4FF6FF7038BD9B1700200050002070B50388BE
:2052E00004463BB1902B0ED11748FFF7CDFD70B9012070BD4FF4A0611348FFF7B1FD902352
:205300002380012070BD00232380032070BDFFF7BBFF0E4D0E4B0646ED1AABB2984203D9BC
:205320000C4B1B68002B03DC0748FFF7A3FDE6E7094A0A490A4802F06BFDAAB23146094861
:2053400002F066FDF0E700BF780D0020005000209B17002004060020F8A1000000A2000016
:20536000D89E000004A2000010B5044690F84C200346013280F84C2080212030054AFFF778
:2053800049FC054B2246BDE8104019780020FFF7FFBE00BF6953000097170020F8B5038836
:2053A00004462BB1CB2B07D1822909D00120F8BDCB2323800120F8BD002323800320F8BD9A
:2053C000FFF75AF9BFF35F8F0022114B1E681A60BFF35F8F0F4DFFF757F928680028E7D0B5
:2053E0000D4F03E055F8040F0028E1D090F8453026FA03F3DB07F5D5FFF732FC0028F1D069
:205400002B683A4618460221FFF704FCEAE700BF940D00204004002059540000034A1368D8
:20542000034303481360FFF7D3BE00BF940D00202806002010B5044690F84500FDF75CFDEA
:2054400010B994F8440010BD01280ABF94F84400002080F0010010BD70B50446FFF700FC65
:2054600000B970BD04F120052846FFF7F9FB06462046FFF7DFFF01280ED00028F1D1002E2F
:20548000EFD12846FFF7D2FB0D4B22463046BDE870401978FFF77CBE002EE2D0002628465B
:2054A000234684F84C60074A7E21FFF7B3FB064B30462246BDE870401978FFF769BE00BFD6
:2054C0009617002069530000981700202DE9F843FFF7BEFD214B224C1870FFF7B9FD214BF8
:2054E000214D1870FFF7B4FD0021204A204B10702268C5E9013142B30126DFF880801D4FD0
:20550000D8F80030916C92F845009B6B41F08C0998472368494693F84500FDF7B3FC2268FD
:20552000D8F8003092F8450006FA00F23A601B6B98472368A96893F8453054F8042F06FA90
:2055400003F30B43AB60002ADAD10B480021FFF787FDBDE8F843044800F08CB99817002009
:205560004004002096170020880D0020971700201D540000E020024028060020B4010010B1
:20558000F8B5048807466C2C0BD07E2C04D0D4B100233B800320F8BD852936D11C4E002317
:2055A00033601C4D1A4C05E00A282646236811D07E2B25DD284600F0D7FA431CF4D16C230D
:2055C0003B800120F8BDFFF743FD134A104B10701C60E6E70025114A0F49D55409780133CD
:2055E00028462360FFF7D4FD0D4B2A4618688521FFF7CEFD0028D2D17E233B800120F8BD47
:2056000006495A1CC8542260D4E70120F8BD00BF180E00201C0E002099170020980D0020B2
:205620006C0D002008B505490548802200F094FABDE8084000210348FFF712BD240E0020E9
:205640001C0E00203806002010B1837A012B01D901207047FFF728B810B1837A012B01D96C
:2056600001207047FFF7C0B810B50446FFF710F830B10123E178034A8B401360002010BD01
:20568000042010BDA02002400123C178024A8B4013600020704700BF9020024010B584B0AF
:2056A0008DF80F1018B1827A0446012A02D9012004B010BDFEF7ECFF50B100232046CDE96F
:2056C000003301220DF10F01FFF7DEF804B010BD032004B010BD00BFB8B170B5847A82B0F8
:2056E000012C02D9012002B070BD044616460D46FEF7CEFF58B10023324629462046CDE9B8
:205700000033FFF7C1F802B070BD01207047032002B070BDB8B170B5837A82B0012B0446BB
:2057200002D9012002B070BD16460D46FEF7B0FF58B1002200962B46204601921146FFF7C3
:20574000A3F802B070BD01207047032002B070BD70B50F4C0F4E257833682846DB6B98474D
:205760003368A078DB6B984701206378A84063B9094B18600123A178E2788B4012B9064A08
:20578000136070BD054A136070BD044B1860F1E7209F0000B4010010A02002409020024063
:2057A00001280DD80123074A02EB4001497812F81020934011B1044A13607047034A136070
:2057C000704700BF209F000090200240A0200240012806D801230349034A11F810108B40E8
:2057E00013607047209F0000B0200240C20707D501230C4A117852788B407AB10A4A13607F
:2058000083070AD50123074A9178D2788B4012B1054A13607047054A13607047034A136017
:20582000EEE700BF209F0000A020024090200240C20707D501230C4A117852788B407AB1B9
:205840000A4A136083070AD50123074A9178D2788B4012B1054A13607047054A13607047D0
:20586000034A1360EEE700BF209F000090200240A02002400146014800F0C2B8A40E002055
:2058800038B50546074800F0B9F848B10446A068284002D0636803B198472468002CF6D17E
:2058A00038BD00BFA40E0020014800F0A3B800BFA40E00202DE9F04104880646772C07D0A4
:2058C0007E2C37D0A4B1002303203380BDE8F081DFF8D0802E4D98F800202E4F00233B6026
:2058E0002B6012B32C4CE256002A41DB2B6832E0FFF7AEFB294F2A4B254D3A6818702C6009
:20590000002A43D02346A046234C04F8038093680021802098472B68013357F823202B608E
:20592000002AF2D1DBB21F4A1370772333800120BDE8F0811A4B1B788B4216D1144D164C0E
:20594000DFF86080134F2B683A68E15C013201F07F01E1543A6098F80020013393422B6005
:20596000C1DB3B68002BB9D1DFE70120BDE8F0810A4A0B4952F8232009780020FFF708FC66
:205980000028E0D17E23012033809FE71346CAE7AC0E0020A80E00205017002028040020A6
:2059A0009A1700204A17002010B40E4B1C7864B10D4A1368984213D0002303E052F8041FCD
:2059C00088420BD00133A342F8D1084A0848135D63F07F03135510BCFFF7FABB1C46F4E73D
:2059E0000024F2E74A17002028040020501700204806002000230360704700BF00687047CD
:205A000010B404685CB1A142236819D00BB906E0134699421A680ED01C46002AF8D100233C
:205A20000B6002680AB90FE01A461368002BFBD1116010BC70472CB1226000221A60EEE749
:205A40001A460B460260F8E70160F2E710B404685CB18C4212D023680BB906E013468B42D2
:205A600005D01A681C46002AF8D110BC70470B682CB12360002310BC0B6070470B6803603D
:205A8000F8E700BF03682BB100201B680130002BFBD170471846704700B10068704700BFFB
:205AA00010B5044642880021406804F0B1F923886288A06802FB03F2BDE81040002104F00D
:205AC000A7B900BF30B44588BDB141680B7863B100234A1C03E01478114601322CB10133B5
:205AE000AB42F8D1002030BC704701220A700588806803FB050030BC70472846F3E700BF6E
:205B000070B4448882685CB18A4206460BD00023058801E0914207D00133A3422A44F9D11F
:205B2000FF2070BC704700237268D05C0028F8D00138D054726870BCD05C704783688B424C
:205B400008D84288008800FB023081422CBF002001207047002070470023013A0160027137
:205B600043718371704700BF10B4817942790479521A224207D003464A1C00682240405C55
:205B80009A7110BC70474FF0FF30FAE708B50448FFF786FFBDE808400248FFF781BF00BF78
:205BA000640600205806002038B50E48FFF78AFF044678B10C48FFF785FF0546206058B106
:205BC00000F048F805F19C01A5F8800005F1820000F028F9204638BD214602482C46FFF7E8
:205BE0008FFFF7E75806002064060020006800F19C01823000F016B910B504460748214605
:205C0000FFF79CFF00B910BD21680548FFF778FF2146BDE810400148FFF772BF58060020E0
:205C20006406002010B5044609482146FFF786FF00B910BD2468B4F88010204600F0D2F82A
:205C400004F19C0104F18200BDE8104000F0FCB858060020F8B50E4D0E4C2A78238813441E
:205C6000802B01DD0020F8BD06460B4F394604F059F80A4B29781B7870181944C9B23944F6
:205C8000228804F04FF8287823881844F8BD00BF4B17002034170020401400203617002036
:205CA00070B4134B134D1B782C78134A23441288DBB213449BB21A18802A15DC013B1BB266
:205CC000002B0CDB0D4A591C1E181144324411F8016D013B1BB202F801695E1CF7D120445B
:205CE0002870012070BC7047002070BC704700BF361700204B170020341700204014002078
:205D0000084A138883420ADB10B4074980B20C881B1A204408801380012010BC704700209A
:205D2000704700BF3417002036170020014B1880704700BF34170020044A054B12781B7895
:205D400004481344DBB21844704700BF361700204B1700204014002000487047401400206B
:205D6000014B1888704700BF34170020054B064A18781278054B10441B88C0B2184480B255
:205D8000704700BF4B170020361700203417002038B5094D094C1A220021094804F038F8C9
:205DA0002946204600F09EF8294604F10800BDE8384000F097B800BF58A200005C17002074
:205DC0006C170020002304480449054A03800B801370FFF7DDBF00BF36170020341700205B
:205DE0004B170020802928BF802170B500230C4606460849084A094D0B8013702B80FFF762
:205E0000C7FF31462246064803F08CFF2C80204670BD00BF361700204B17002034170020B9
:205E20004014002010B50C461A22054903F07AFF2046BDE810401022024903F073BF00BF25
:205E40006C1700205C17002010B50C461A220146044803F067FF2146BDE8104010220248F5
:205E600003F060BF6C1700205C170020024B23F810100120704700BF6C170020014B33F8A1
:205E8000100070476C17002008B5044B0D3803EBC00000F027F8012008BD00BF5C17002052
:205EA000024B0D3803EBC000704700BF5C1700200149024800F01AB858A2000064170020AE
:205EC000054B10B51B689847044B5B689847BDE81040034B5B68184708A00000E4A20000C7
:205EE00008A30000082203F01DBF00BF08B5082203F0E6FEB0FA80F0400908BDF8B5FCF7B9
:205F0000C9FA104E0746344600250D20FFF7C8FF2146FFF7EBFF103420B90135102DF4D1EE
:205F20000020F8BD0720FFF7A9FF06EB05152B7B8342F5D1A868381AB0F5206F8CBF00208A
:205F40000120F8BDC0140020F8B5174E0024374635460D20FFF7A4FF2946FFF7C7FF103513
:205F6000631CF0B9102B1C46F3D10F2407EB0410A0F110042146102203F0D4FEB442204600
:205F8000F6D10720FFF77AFF3873FCF783FAB8600D20FFF785FFBDE8F84001460248FFF766
:205FA000A1BF002CE2D1ECE7C014002040B130B40D460446114628461A46234630BC184790
:205FC000704700BF30B591B0FFF7B6FE0446FFF7C7FE6A460146204600F09AFA00283ED05F
:205FE0000446FFF78DFED0B39DF810100C20FFF73DFF9DF813100820FFF738FF9DF8173057
:206000008BB1BDF81C5000F0E9F8854205D04FF6FF73BDF81C209A4221D169469DF81700E5
:2060200000F094F9B0B102A90D20FFF72DFF9DF815303BB14FF6FF710720FFF717FF204674
:2060400011B030BD9DF81A100720FFF70FFF204611B030BD69460E20FFF716FFE3E74FF0A3
:20606000FF34ECE7F8B505460C2014460E46A84700232074A37496B3E37463750920A847FB
:2060800000270123A075237667740720A847A07600F0A4F8E0830A20A84701280CBF3B4683
:2060A0000323637600F09AF8A0830B20A84701281AD066B90323E375637E022B0CD0E37D28
:2060C000A3F10203B3FA83F35B092375F8BD0223E375637E022BF2D101232375F8BD08206C
:2060E000A8476675E074C9E7E775E5E730B591B0044600F073F84FF6FF7398425CD04022C0
:206100006846002103F084FE2D4B1A7822B35CBBFFF7CEFE6A46C1B22A48FFF7A3FFFFF760
:20612000C7FE00283CD04FF6FF73ADF800300D20FFF7B6FE014602A8FFF7D4FEFFF7FCFD5B
:206140000E90FFF70DFE0F90684600F011F90546D4B9284611B030BD01221A70FEF75CF96E
:20616000194B1870002CD3D00720FFF787FE0028CED1154D2978D9B189B20720FFF776FEA2
:206180002B7801332B70C3E7FFF78AFDA0B1FFF7E3FD0146684600F037F9284611B030BD0E
:2061A0000E20FFF77DFE01466846FFF79BFEBEE7012319462B70E0E74FF0FF35C9E700BF50
:2061C0004C1700207D5E00004D1700200120FFF78DBF00BF0020FFF789BF00BF014B1888B2
:2061E000704700BFB0060020002840D030B4037A022B10D00378022B15D00379B3B100241C
:20620000C37913F0030318BF012301B10C6002B1136030BC7047C579447A037965B90CB9FC
:20622000012BF2D0EBB100231C46EEE7447A14F0030418BF0124E3E753EA040018D0032D92
:206240002CD1032C26D0022C1CD103BB022D34D00123032D1CD1A4F10204B4FA84F46409A1
:20626000D3E7023C012C8CBF00240124CDE77047022D08BF0123EBD1A4F10304B4FA84F462
:206280006409C2E7002BCED1022DE2D1F4E701230024BAE7002BC6D10123DCE7022DD2D1FD
:2062A0003CB1002BF3D1022C4FF00103E4D11C46ABE7002BB7D12346DEE701231C46A4E7F6
:2062C00030B504460D46084683B00021062203F09FFD637DD9075CBF01232B70237E012B7C
:2062E00024D901AA694604F11000FFF77DFF009B0BB10223EB70019BABB9E37D03F00303A0
:20630000022B03D0032B0CBF08230023AB70637E03F00303022B03D0032B0CBF08230023FA
:206320002B7103B030BD02236B70E6E7E37D9A0706D0637E9B0703D0E28BA38B9A4202D0DE
:2063400000232375CDE701232375CAE702280CBF012207220A4400E01A46134613F8010924
:20636000FF2803D19142F7D1012070470020704700B583B06946FFF7A3FF9DF800309DF84F
:2063800001009DF80220023303449DF8030013449DF8042003449DF805001344184403B0DA
:2063A0005DF804FB43788278DB00120170B402F010020578C47803F008031343027905F041
:2063C000070564012B4304F020049201234302F0400213430B7043798579467AC479027A95
:2063E00003F001036D0043EA861305F00205A4002B4304F00C041201234302F0300213436E
:206400004B7070BC704700BF70B504460D4682B06946FFF755FF294604F11000FFF7C2FF07
:206420009DF80030012B02BFA37E0322AB709DF8013018BF0222022B08D1A18B531CA954EA
:20644000A18BDBB2090A0232E954D2B29DF802303BB3591E13442144DBB211F80169501C27
:20646000AE54C2B29A42F8D19DF80320022A08D1E18B5A1CE954E18BD2B2090A0233A954F0
:20648000DBB29DF8040070B1C21D18442244C0B212F80149591CEC54CBB29842F8D102B0C7
:2064A00070BD1346E0E7184602B070BD70B50278437884B002F007040846C2F30011C2F3FE
:2064C000C0058DF804408DF80610C2F34014C3F34001C2F380128DF8055003F001068DF8F3
:2064E0000740C3F381058DF80820C3F301148DF80A109B090A2201A98DF809608DF80B50BA
:206500008DF80C408DF80D3003F00CFC04B070BD012944DD2DE9F041144686B00F4603A9E9
:206520000546FFF7C3FF03A90A2204F1100003F0F9FB9DF8113073B3AE1C03A802AA01A9CD
:20654000FFF752FE9DF81380B8F1000F44D0029B002B32D1B8F1020FA38368D0B8F1030F63
:206560004ED09DF81580B8F1000F2DD0019BC3B9A38BE383B8F1020F4ED0B8F1030F32D0DD
:20658000701B8742A7EB0003B8BF0020C4E90E6306B0BDE8F081AB78EE1CA376CDE7002077
:2065A0007047717816F8023B029A03EB01239BB2E383002ADED1A383DCE7727816F8023B98
:2065C00003EB02239BB2C5E71E4904F10800FFF789FCA4F81E80D3E71A492046FFF782FC9F
:2065E000A4F81C80BDE706F10800034604F1080213F8011D9E4202F8011BF9D10646BFE79D
:2066000006F108000346621E13F8011D9E4202F8011FF9D10646A4E70A4904F10800FFF7A8
:2066200061FC7378237216F8023B6372A8E705492046FFF757FC7378237016F8023B637035
:206640008FE700BF58A20000002230B51A4B83B01B68ADF8002005460193FFF705F810B191
:20666000FE2003B030BD042228460DEB0201FFF733F8C8B9022269462846FFF74BF8044667
:206680002846FFF701F8A4B99DF80030C22B02D0204603B030BD9DF80100A0F11400B0FAD1
:2066A00080F0400903B030BD2846FEF7EDFFFF20D7E7FF20D5E700BF6CA20000052330B5A0
:2066C00083B004468DF80430FEF7CEFF10B1002003B030BD0546012201A92046FEF7FCFFD3
:2066E00020B117E09DF80730DB070DD501220DF107012046FFF70EF80028F3D02046FEF771
:20670000C3FF002003B030BD2046FEF7BDFF012003B030BD2046FEF7B7FF2846D8E700BF22
:2067200010B582B0E8B103780446FF2B03D02046FEF78AFF10B1002002B010BD2046FEF768
:20674000A3FFAB2320468DF80730FEF78DFF78B12046FFF779FF0128EED02046FEF77CFF6C
:20676000E9E70B4C2046FEF76FFF0028E3D1E5E701220DF107012046FEF7AEFF18B1204621
:20678000FEF782FFE4E72046FFF798FFF7E700BF70A2000070B5174C002818BF04462046DF
:2067A000FFF78CFF40B900252046FEF755FF00280CBF2846002070BD05462046FEF754FFE4
:2067C00006460028EFD1B9212046FEF767FF60B92046FEF759FF0A262046FFF735FF731ECD
:2067E0000028E1D013F0FF06F6D120463546FEF74BFFD9E770A2000010B50446FFF790FF6B
:2068000000B910BD2046BDE81040FFF7C3BF00BF064B1868C20C830D02F4407203F01C0377
:206820001343C0F381501843704700BF98130050044B05481B681A0302F47C131040184346
:20684000704700BF9813005000F0C0FF6FF00902154B16491B68C3F30463152B88BF203B6D
:2068600003EB207301339342B8BF1346152BA8BF152303F01F030E4A43F4F8530B801368EA
:206880000C4913F002030ABF0B4A40F0406013606FEAD0636FEA9060084A03F0010300F02C
:2068A00001000B6010607047B81200506E620840000009400000204394042A4308002043F7
:2068C00038B5C0F38143012B37D0022B03D04FF00042544B1A60544B1B681B0724D54FF407
:2068E0000071524A524B11601B68C0F38150C3F3C14343F03003012882F8883065D000289E
:206900004DD0022814D10321042000F0CBFD47F61800484B484C1B68484903F03F03484AF4
