:020000040000FA
:20000000005000206D0F0000650F00004D0F0000690F0000690F0000690F000000000000BC
:20002000000000000000000000000000690F0000690F000000000000690F0000690F0000E0
:20004000752E0000690F000041370000690F000031260000612B0000690F0000690F0000C2
:20006000690F000095370000690F0000690F0000690F0000690F0000690F0000690F00006C
:20008000690F0000690F0000690F0000690F0000690F0000690F0000690F0000690F0000A0
:2000A000690F0000690F0000690F0000690F0000690F0000690F0000690F0000690F000080
:2000C000690F000001460000294B1B689B0702D44FF000407047F0B5452183B0002002F06C
:2000E00011F90DF106010222012001F061F838B901A8022101F086F84FF0004003B0F0BD57
:200100000DF106010222002001F052F80028EFD0BDF806301C0A44EA0324A4B2200BADF8E8
:20012000044008F009FF08F0CFFA0646C4F30B000F4608F011FF0CA3D3E9002304460D4624
:200140003046394608F072FF02460B462046294608F06CFF09F01AFA064909F075FB09F0B2
:20016000C3FC03B0F0BD00BF7B14AE47E17A843F940700200000C84208B51F4B1B68032B62
:2001800033D1431E012B30D803461C491C4A012B0988108811D008F0CFFE0022194B08F039
:2001A00045FF0022184B08F041FF09F0EFF9174909F04AFB09F098FC08BD084608F0BCFE6D
:2001C0000022104B08F032FF09A3D3E9002308F02DFF00220E4B08F071FD09F0D7F90B49CC
:2001E00009F032FB09F080FC08BD4FF0004008BD0000000000A064409C0700205C170020C1
:200200005A1700200000F03E000059400000C8420000444000000000F8B55F4B1B68FBB172
:200220000546062200215D4809F0B4FE15F038073DD16A0714D002F06BF9594C6FF00906CA
:20024000206005E002F064F92368F31AC34203D501F0E4FB0028F5D0524B1B78DB0703D4CF
:200260004FF000473846F8BD4C4C6821012002F049F821460622432000F09AFF0646002861
:200280005FD0002120886288A38840BA52BA5BBA208062800846A38002F034F8042D3DD0E7
:2002A000022D59D0012DDDD1B4F9040038E002F02FF93B4C6FF00906206005E002F028F9BA
:2002C0002368F31AC34203D501F0A8FB0028F5D0344B1B78D907C3D5304C6821012002F086
:2002E00011F8214606223B2000F062FF00210646084602F007F8002E43D021886288A3880F
:2003000049BA52BA5BBA202D21806280A38026D0102D30D0082D31D00027A3E7B4F90000FF
:2003200008F01AFE1AA3D3E9002308F0A9FF09F02DF91D4909F088FA09F0D6FB07463846DC
:20034000F8BD2046062100F05DFF3146304601F0D9FF4FF0004785E7B4F90200E0E7B4F944
:20036000000001F085FA104909F06EFA09F0BCFB07463846F8BDB4F90200F2E7B4F90400EA
:20038000EFE72046062100F03DFF69E7AFF300800000000000606040EC070020C40700205E
:2003A00084170020671700200000C842000000002DE9F04F23F0004555EA020493B03DD098
:2003C000DFF8B4E121F0004474450F4683462EDC1E46944639D0754529DCDFF89CE1754567
:2003E00022D0002F8A468146CDE9002336DB4FF00008BCF1000F4CD15F4B9D4200F08E80B4
:200400005E4B9D4200F09D80B6F1804F00F097845B4B9E423DD1002F3BDB4846514613B005
:20042000BDE8F04F08F0E8BABCF1000FD9D004F1404404F5801454EA0B0309D100234F4CEF
:200440001846214613B0BDE8F08F08B9A542C4DD4C4813B0BDE8F04F08F09CBB4A4B9D42A9
:2004600075DCA3F154739D420EDD2B15A3F2FF33142B40F36C84C3F134032CFA03F202FA9B
:2004800003F3634500F0AC844FF00008BCF1000FB6D04846514608F071FBBBF1000F20D1E0
:2004A00024B1364B27F040429A421AD1002E05DA02460B460020314908F0E2FE002FC1DAA4
:2004C00004F1404404F5801454EA080340F0618402460B4608F0F2FB02460B4608F0D0FEDB
:2004E000B0E7FB0F013B079358EA030332D0274B9D424FDD03F104739D4240F3BD83244B92
:200500009C4240F34183002E40F3418318A3D3E900231046194608F089FD93E704F1404322
:2005200003F5801353EA0B0388D0194B9C4240F35683002EC0F22B83DDE9003418462146F2
:2005400080E7002EC0F2F383484651467AE74FF002084EE74A4653464846514608F0AEFBEB
:2005600002460B4608F08CFE6CE700BFAFF300809C7500883CE4377E0000F07F0000F03F20
:200580000000E03F84A50000FFFF3F430000E041FFFFEF3FD04B3B40002B40F03783002279
:2005A000CE4B08F043FD6FF034060C46CC4A2315C4F31304A3F2FF3344F07F55944203EB50
:2005C000060945F4401540F31383C64B9C4240F3E983002300240022CDE90C34CDE91034CE
:2005E0000024C14B09F10109CDE90823A5F58015DDE908AB294652465B46064608F05EFBF9
:200600005246CDE90A015B4630462946CDE908AB08F056FB02460B460020B34908F030FE6E
:200620000A4601461346CDE90E120246DDE90A0108F0FCFC0A46834694460023014600206E
:20064000CDE902BC02936B1043F0005303F50023CDE90412DDE902AB19192F4604460D46F2
:2006600002460B465046594608F0E0FC02460B46DDE90A0108F022FBDDE90823CDE90A01A7
:200680002046294608F01AFB02460B463046394608F014FB52465B4608F0C8FC02460B4655
:2006A000DDE90A0108F00AFBDDE90E2308F0BEFCDDE90445CDE9080122462B462046294647
:2006C00008F0B4FC72A3D3E9002304460D4608F0ADFC71A3D3E9002308F0F2FA22462B4690
:2006E00008F0A4FC6EA3D3E9002308F0E9FA22462B4608F09BFC6CA3D3E9002308F0E0FA6F
:2007000022462B4608F092FC69A3D3E9002308F0D7FA22462B4608F089FC67A3D3E9002387
:2007200008F0CEFA224606460F462B462046294608F07CFC02460B463046394608F076FC42
:2007400004460D46DDE9040152465B4608F0B8FADDE9082308F06AFC22462B4608F0B0FA84
:20076000524606460F465B465046594608F05EFC00225E4BCDE90A0108F0A2FA32463B46FF
:2007800008F09EFA02980D4604462B4622465046594608F04BFC002282468B46534B204686
:2007A000294608F08BFADDE90A2308F087FA02460B463046394608F081FADDE9042308F0FB
:2007C00035FC224606460F46DDE908012B4608F02DFC02460B463046394608F071FA064641
:2007E0000F4602460B465046594608F069FA34A3D3E9002302980D46044608F017FC5246EB
:20080000CDE904015B462046294608F057FA02460B463046394608F051FA2BA3D3E90023E0
:2008200008F004FC2AA3D3E9002306460F462046294608F0FBFB02460B463046394608F02A
:200840003FFADDE9102308F03BFA044648460D4608F082FB06460F46DDE9040122462B4654
:2008600008F02EFADDE90C2308F02AFA32463B4608F026FA029832463B4682468B4608F012
:200880001DFADDE90C2308F019FADDE904232FE0EF4E454A287ECA3F65DBC9934A86CD3F52
:2008A00001411DA96074D13F4D268F515555D53FFFAB6FDBB66DDB3F033333333333E33FE6
:2008C000000000E009C7EE3FFD033ADC09C7EE3FF5015B14E02F3EBE0000F07F00004043C6
:2008E0008E98030079B60B000000F03F0000084008F0E4F902460B462046294608F0DEF90C
:20090000079A08F1FF3313434FF000064FF000030CBFD34CD34CCDE90201CDE90434DDE9B8
:2009200000231046194632461F4608F0C7F95B46524608F07BFBDDE9002380468946DDE95F
:20094000020108F073FB02460B464046494608F0B7F93246CDE900013B465946504608F0FB
:2009600065FB0B46024680468946DDE9000108F0A7F9BD4B044699420D468B4640F30C8179
:2009800001F13F4303F5E003034340F0F481A0A3D3E90023DDE9000108F092F942460646DD
:2009A0000F464B462046294608F088F902460B463046394608F0CAFD002840F0DC81CBF343
:2009C0000A534FF480120020A3F2FE3342FA03F35B44C3F30A52A54DA2F2FF321541C3F359
:2009E000130423EA0501C2F1140A44F48014BBF1000F02460B4644FA0AFA40464946B8BF0E
:200A0000CAF1000A08F05AF980468946DDE9000142464B4608F054F90D464FEA0A5B0024F7
:200A20007DA3D3E900232046294608F0FFFA424606460F464B462046294608F03FF90246EA
:200A40000B46DDE9000108F039F975A3D3E9002308F0ECFA74A3D3E900238046894620468E
:200A6000294608F0E3FA02460B464046494608F027F98046894602460B463046394608F051
:200A80001FF932463B4604460D4608F017F902460B464046494608F011F9224680468946F3
:200AA0002B462046294608F0C1FA61A3D3E9002306460F4608F0BAFA5FA3D3E9002308F034
:200AC000FDF832463B4608F0B1FA5DA3D3E9002308F0F6F832463B4608F0A8FA5AA3D3E974
:200AE000002308F0EBF832463B4608F09FFA58A3D3E9002308F0E4F832463B4608F096FA3F
:200B000002460B462046294608F0D8F806460F4602460B462046294608F088FA0022CDE93E
:200B200000014FF080433046394608F0C7F802460B46DDE9000108F0A3FB424606460F46E7
:200B40004B462046294608F071FA42464B4608F0B7F802460B463046394608F0AFF8224677
:200B60002B4608F0ABF802460B4600203D4908F0A5F88B44BBF5801FC0F22E815946DDE9B1
:200B8000042308F053FA5DE4002EFFF6BFAC002300241846214655E4DFF8D8C021F0004312
:200BA000634540F3E280324B0B4403430AD142464B4608F083F8DDE9002308F0BDFC0028BD
:200BC0003FF4FDAE24A3D3E90023DDE9040108F02DFA21A3D3E9002308F028FA32E4002EA6
:200BE000D5DADDE90034184604F10043194629E4002300241A462346CDE90C23CDE910236C
:200C00000022184B0024CDE90823F1E40026CDE4FE822B654715973C00000000432EE63FC9
:200C2000EF39FAFE422EE63F396CA80C615C20BED0A4BE726937663EF16BD2C541BDBB3E39
:200C40002CDE25AF6A56113F93BDBE166CC1663F3E5555555555C53F59F3F8C21F6EA5018C
:200C60000000F0BF0000F03FFFFF8F40FFFF0F0000346F3FFFCB9040714B9C4284DD714B89
:200C80009C423FF740AC00226E4B08F017F85EA3D3E9002304460D4608F0C8F95CA3D3E981
:200CA000002306460F462046294608F0BFF9002282468B46644B2046294608F0B7F90246BC
:200CC0000B4655A1D1E9000107F0F8FF22462B4608F0ACF902460B4600205C4907F0EEFF6C
:200CE0002246CDE902012B462046294608F09EF902460B46DDE9020108F098F948A3D3E96C
:200D0000002308F093F902460B465046594607F0D5FF02460B4604460D463046394607F071
:200D2000CFFF00208B46824632463B46E0E54A4653460020434908F0A3FAFFF783BB4A4640
:200D400048465346514608F071F9FFF77BBBBCF1000F38D1C3F1140345FA03F202FA03F391
:200D6000AB4247D0E046FFF74BBB384A934247DCB346B24653E62CA3D3E90023DDE9040130
:200D800008F054F928A3D3E9002308F04FF9FFF759BBB8F1010F7FF455AB01F1004319465A
:200DA000FFF750BB22A3D3E90023CDE90C2322A3D3E90023CDE910230022254B4FF48024A3
:200DC000CDE9082314E407F0D9FEBBF1000F7FF4C1ABD846FFF764BB524600F03DF8CEE62E
:200DE00002F00102C2F10208BCF1000F3FF408ABFFF74FBB02F00102C2F10208FFF700BB3C
:200E00001B15DEE5AFF30080000000604715F73F44DF5DF80BAE543E555555555555D53FF6
:200E2000FE822B654715F73F9C7500883CE4377E0000004003B8E23F06D0CF43EBFD4C3E2C
:200E4000FEFFEF3F0000F03F0000D03F0000E03F0000F83F00000000F8B5C1F30A530446CB
:200E60000D460E46174673BB034621F00046334328D0314B002208F0D9F8304B04469F4225
:200E80000D461ADB0E46C1F30A53363B40F2FE723B44934220DC002B3DDC13F1350F2CDAB0
:200EA0004CF250339F4217DC05F0004343F0D27141F4B731224841F01F011BA3D3E900237A
:200EC00008F0B4F8F8BD40F2FF729342DED102460B4607F0F5FEF8BD05F0004444F0FC41B0
:200EE00041F45F1141F4105111A3D3E90023154841F03C0108F09AF8F8BD26F0FF4626F4A5
:200F0000E006363346EA03552046294600220E4B08F08CF8F8BD26F0FF4626F4E00646EAEE
:200F2000035520462946F8BD59F3F8C21F6EA5019C7500883CE4377E00005043B03CFFFFAB
:200F400059F3F8C29C7500880000903C044B1A68B2F5806F03D01B689B0500D4FEE7704759
:200F600028ED00E0FEE700BFFEE700BF08B505F0ABFF104A10498A420DD21048013903469F
:200F8000891A21F003010431014453F8040B8B4242F8040BF9D10A480A494FF00002884235
:200FA000B8BF40F8042BFADB03F0DCFCFFF7CEFF08BD00BF00000020B6060020DDA50000EE
:200FC000B8060020C7170020F0B5002706463C463D4683B0304604F06BFC0195019B9C4204
:200FE00006DD00BF019B01330193019BA342F8DB304604F07FFC0195019BC4F5C8749C42AD
:2010000006DD00BF019B01330193019BA342F8DB0137B7F5487F06D0B7F5C87FCCBFC7F5BB
:2010200048743C46D6E703B0F0BD00BF38B5194D194C2B6820465B680121984701222B686B
:2010400011461B682046984705F0BEFF01F06CFF01F0EAFE00F0FAFD04F088FC04F0DAFB62
:201060000120FFF7B1FF01230C490D4A0D480968136003600B691020A2F5FF521268984758
:2010800005F0A6FF01F046FABDE838400020FFF79BBF00BFD801001000400340B00100100C
:2010A0000C4009400800094008B541F2342003F0B9F901F021FD04F017FB0548082101F0E5
:2010C000E9FB04F065FABDE808400220FFF77CBFB4170020002370B584B002A80821294CEA
:2010E000CDE9003301F0D6FB9DF80E309DF80F60E56A46EA03264AF6CD310220A847314600
:201100000320A8471A210120A847636B02A908221D4D0B209847A46A69460120A0472B6803
:20112000022B1ADC01A90220A04778B92B68022B08DC0021154803F0E1FF0020FFF744FF5A
:2011400004B070BD0199124806F0C4FE2B68022BEFDD104806F0BEFEEBE70F4A0F49104891
:2011600006F0B8FE0F4806F0B5FE2B68022BD9DD094A0A490A4806F0ADFE00990A4806F0D3
:20118000A9FECFE7C8A100000406002048060020D0A00000B4A5000080A0000090A00000D8
:2011A00098A00000A8A00000C0A0000001F00CBD00B583B013468DF807000A460DF1070073
:2011C000012100F0CBFF03B05DF804FB0C4B187082B110B4541EE4B201340C4411F8010BB4
:2011E000A14203F8010FF9D10132D1B2044810BC00F064BE0132D1B2014800F05FBE00BF8C
:20120000E006002041B1CC224B1EDBB20133034403F8012D8342FBD1704700BF8138012865
:201220009ABF024B18680020704700BF180700200322024B02481A6004F018BC1807002076
:2012400008A1000010B5044682B07721002001F059F8002C14BF2523002301220DF1070117
:20126000F4208DF80730FFF7B1FF02B010BD00BF30B5802885B005D081281ED01E4B1868A3
:2012800005B030BD01251C4C77210020256001F039F8182219498820FFF78AFFB6232A46B3
:2012A0000DF10F01E0208DF80F30FFF78FFF0020FFF7C8FF206805B030BD0F4C20680028C6
:2012C000DED061B10120FFF7BDFF00230C4A03210C4803F09FFC0220206005B030BD094867
:2012E000019103F0E7FC01990846FFF7ABFF01231846236005B030BD1807002000070020F1
:201300003112000024070020F8B5524B1B68032B40F09D80431E012B00F299804E4C06229D
:2013200000210546204608F035FE7721002000F0E9FF21460622F720FFF73AFF00287FD0D4
:2013400023794649E27860791B0143EA02330A8843EA1013C2EB131000FB00F0B1F9046006
:2013600007135200B1F9020006FB07F7C2EBD30300FB03F3B81300EBE3264FEA660CACF5D7
:201380007A4C4FEAAC0707FB07F7B1F90830B1F90A007A130CFB03F302FB00F25B1003EB33
:2013A000E2039B14C88803F5004300FB03F08E61C01322786378A4783AD0B1F90EE0FF121A
:2013C0000CFB0EFCB1F910E04FEA4C0C0EFB07CCB1F90C70240944EA03143F0444EA0234B6
:2013E00007EBAC071E4A04EB273402FB04F202F1434202F5A002002AB3BFB2FBF0F0520017
:20140000B2FBF0F04000C30803FB03F2B1F91430B1F916408708520B03FB07F304FB02F27C
:20142000B1F912105B1303EB22330B4400EB2310012D00D0F8BD06EB860080300012F8BD21
:2014400020460621FFF7DEFE4FF00040F8BD4FF00040F8BD180700201C070020000700201C
:20146000CBF3FFFF813801289ABF024B18680020704700BF4C0700200322024B02481A6069
:2014800004F0F4BA4C07002028A1000010B504464421002000F036FF002C14BF102400245E
:2014A0000222044B10461C801946BDE81040FFF78DBE00BF5817002010B5802882B005D070
:2014C00081281DD01E4B186802B010BD1D4C012023689B6B984723684FF480419B69012060
:2014E000984723684FF08041DB69012098470020FFF7CCFF01231846114A136002B010BD8E
:201500000F4C20680028DFD061B10120FFF7BEFF00230D4A24210D4803F07CFB022020600B
:2015200002B010BD0948019103F0C4FB01990846FFF7ACFF01231846236002B010BD00BFCB
:201540004C070020B4010010791400005407002038B5354B1B68032B0FD182070DD00328BC
:201560000ED0012805D0022807D1304B1B68184638BD2F4B1B68184638BD4FF00043F6E78D
:201580002C4D44210446002000F0BCFE294602220420FFF70DFE002844D02A88130A43EA69
:2015A00002239BB22B805B043CD5234D022229460120FFF7FDFD68BB1F480421FFF722FEC5
:2015C00000202C786B78A978EA7843EA042442EA01220028D1D0900808F0E2F84FF0745106
:2015E00008F032F9154908F02FF908F07DFA104B0E4D1860A00808F0D3F84FF0745108F046
:2016000023F90E4908F020F908F06EFA01232860184638BD02222046A918FFF7C9FD0028B8
:20162000CFD1C9E7044DC7E74C0700204407002050070020581700204807002000007A444A
:20164000014B1868704700BF9407002070B506460E4C82B045210020256800F053FE6EB11D
:2016600041F2C2020123ADF80620236002220DF106010120FFF7AAFD02B070BD4FF486531F
:2016800005F002052560ADF80630EFE79407002000B5452183B0002000F034FE02220DF1AB
:2016A00006010120FFF784FDBDF90630002B08DB0023084A1021084803F0ACFA03B05DF8FA
:2016C00004FB064804F0D2F90222054B1A6003B05DF804FB911600007407002038A10000EE
:2016E00094070020802810B50ED081280FD10C4679B10120FFF7AAFF00230A4A10210A4825
:2017000003F088FA012010BD0020FFF79FFF002010BD054803F0CEFA2046FFF797FF204665
:2017200010BD00BF9116000074070020813801289ABF024B18680020704700BF9C0700207A
:20174000032138B5134C144A2378116033B9012312482370BDE8384004F088B9104D43219F
:20176000002000F0CFFD2846042100F079FC00212070084600F0C6FD28886988020A42EA0A
:201780000022084D0B0A084843EA01232A800380DDE700BF641700209C07002050A100001D
:2017A000980700205C1700205A17002030B5802883B005D0812826D0264B186803B030BD81
:2017C0000024254B254D2146042225481C802C8008F0E0FB2046432100F094FD022210234C
:2017E00010460DF10601ADF80630FFF7EFFC1D4B21461870204600F085FD01231846154AC2
:20180000136003B030BD134C20680028D6D061B1144D2B788BB90023134A0321134803F0B4
:20182000F9F90220206003B030BD104803F042FA01231846236003B030BD4321002000F0D4
:2018400061FD002000F0D4FB00212870084600F059FDE0E79C0700205A1700205C17002050
:20186000980700206417002041170000A007002008B5174B1B78032B28D8DFE803F0151E22
:201880000C0207F069FB00224FF07D5307F0CEFB07F07CFE08BD07F05FFB00220D4B07F0F6
:2018A000C5FB07F073FE08BD07F056FB00220A4B07F0BCFB07F06AFE08BD07F04DFB002249
:2018C000064B07F0B3FB07F061FE08BD002008BD651700200000303F0000103F0000203F59
:2018E000813801289ABF024B18680020704700BFEC0700200222024B02481A6004F0B6B8A0
:20190000EC07002068A1000010B56821012000F0F9FC3F23094C012221466C202370FFF701
:2019200055FC4F23214601226B202370FFF74EFCBDE810400021084600F0E4BC6917002068
:20194000802838B50BD0812806D111F03F012DD1294B1B68DB043BD4284B186838BD284C17
:20196000072023689B6B984723684FF400519B690720984723684FF08041DB6907209847D2
:2019800023680C20DB6B984723684FF440729B6A4FF480610C2098474FF48054002219481D
:2019A000194B164904601A60086838BD4FF480500124154B154A114D196010600023144A62
:2019C000082114482C6003F025F92C60204638BD0D4B1048196003F06DF9FFF795FF0E4A9A
:2019E000136813F00103FBD14FF48050034A054913600860106838BD80200240EC070020AE
:201A0000B4010010A0200240C007002090200240451A0000CC0700200428004010B5084C4F
:201A20006821012000F06EFC214601223A20FFF7BFFB0021084600F065FC207810BD00BF2A
:201A4000671700202DE9F041354C236813F0380F28D1344D03F03F032E78DCB25EB9002B26
:201A60003AD1FFF751FFBDE8F04100232E4A05212E4803F0CFB82C70002BF2D02C4FE44363
:201A8000682101203C7000F03DFC012228496C20FFF79CFB0021084600F034FC254805F029
:201AA0009BFAE0E7244E3278002AD2D00025234F682101203D7000F025FC394601221C2005
:201AC000FFF784FB07462946284600F01BFC2368002FBED03570BCE76821012000F012FC28
:201AE0000923134F012239466B203B70FFF76EFB3F23394601226C203B70FFF767FB01226B
:201B00000E491C202E70FFF761FB394601223A20FFF74EFB3146304600F0F4FB2C70AEE70A
:201B2000C007002068170020F5180000CC070020691700208038010065170020661700208D
:201B40000022014B1A7070476A17002070B50024144B15481C7001F061F9144A144D13681F
:201B6000296823F0010313600B6A204698472B6820469B6A98472B6820461B6B9847012133
:201B80000C4B0D4A196013689B07FCD50B4C152023689B6B984723680021BDE870401B6AAE
:201BA000152018476A170020400500200C000140B80100102820086028200840B401001070
:201BC00010B5064C042023685B699847236804205B6B98470128F9D110BD00BFB801001000
:201BE000FFF7EEBF032801D000F016B908B5FFF7ADFF104B00219B68812098470E4B0021AF
:201C00009B68812098470D4B00219B68812098470B4B00219B68812098470A4B00219B68D2
:201C2000812098474FF48052074B1A60BDE8084000F0F2B808A1000038A1000028A1000071
:201C400050A1000068A10000A020024070B505F0BBF90646FFF7B4FF3A4B4FF4A0601B687A
:201C6000DB6998470121384B384A196013689B07FCD54FF40055364C00F0A0F8FFF760FFBC
:201C8000002004F01BFE334801F0C2F8236819209B6B9847236829469B69192098472368A7
:201CA00018209B6B9847236829469B6918209847236817209B6B9847236829469B69172016
:201CC000984723681B209B6B9847236829469B691B20984723681E209B6B984723684FF4E6
:201CE00080419B691E20984723680D20DB6B9847194A2368156000214FF480729B6A0D203A
:201D00009847236802209B6B9847236829469B690220984723680B209B6B984723682946BE
:201D20009B690B20984723681D209B6B9847236829469B691D20984706B170BDBDE8704095
:201D400005F046B9B80100102820086028200840B401001054050020A020024010B50B4B2B
:201D60000B481B685B68984710F00C0F044603D1B4FA84F0400910BD0422064B02201A6067
:201D800005F02AF9B4FA84F0400910BDAC010010002000400428004008B5064B02201B68B7
:201DA0005B6B9847012809BF034B0020186800F0010008BDB80100106020084070B5104DD6
:201DC00002202B685B6998472B6802205B6B984701280446F8D12B684FF44070DB6998476C
:201DE000084B094A1C6013689B07FCD5BDE87040064B01221B6806491B680648184700BF49
:201E0000B80100102820086028200840AC010010006CDC0200200040FF22214B10B51A7076
:201E2000FFF7BAFF20B100231E491F4A0B6013601E4B4FF440701B681B6A984701211C4B85
:201E40001C4A196013689B07FCD51B4C082023689B6B984723684FF400519B69082098478C
:201E6000236809209B6B984723684FF400519B6909209847236805209B6B984723684FF43B
:201E800080419B6905209847236806209B6B984723684FF48041BDE810409B6906201847D6
:201EA000B20600200428004010040542B80100102820086028200840B40100102DE9F84F58
:201EC0000746474B47481B78474A5B0003603B780D46136000F01CFB444E00F5CC5419343E
:201EE00033685B0608D500F013FB001B0028F7DB00242046BDE8F88F03230220336005F070
:201F00006BF800F005FB394E00F5CC5419343368D80737D4FFF722FF012D034638D9002839
:201F2000E6D00124A046DFF8C0A0304E05F1FF39631E3B4402E00134AC422BD213F8012FC0
:201F4000A145CAF80020F6D90220C6F8008005F043F800F0DDFA00F5CC5B0BF1190B3368BC
:201F6000D90708D4FFF7FAFE0134AC4203460FD20028DDD1BCE700F0CBFAA0EB0B0000287E
:201F8000EDDBB5E700F0C4FA001B0028BFDBAFE7002BADD00523154C0220236005F01CF8DD
:201FA00000F0B6FA00F5CC5519352368DA0711D4FFF7D4FE044600F0ABFA0C4E00F5CC55B5
:201FC000193533685B0694D500F0A2FA401B0028F7DB8DE700F09CFA401B0028E5DB87E7C2
:201FE0006B17002000280040082800400428004038B5174B17491B78174A5B000B60106022
:2020000000F086FA154D00F5CC5419342B685A0606D500F07DFA001B0028F7DB002038BD2D
:20202000072302202B6004F0D7FF00F071FA0B4D00F5CC5419342B68DB0703D4BDE8384081
:20204000FFF78CBE00F064FA001B0028F3DBE5E76B1700200028004008280040042800402F
:202060002DE9F84F394B3A4A1B7882465B0043F001031360894600F04BFA364E00F5CC55FD
:202080001935346814F0400408D000F041FA401B0028F6DB00242046BDE8F88F0B230220B1
:2020A000336004F099FF41F699162A4D09F1FF38E7B247451CDA00F02BFA00EB060B2B68B4
:2020C000D9070ED4FFF74AFE01340028E2D00923214A022012680AF807202B6004F07CFF9B
:2020E000E6E700F015FAA0EB0B000028E7DBD1E70523184C0220236004F06EFF00F008FA58
:2021000000F5CC5519352368DA0718D4FFF726FE04460028BED0104BD1441B680D4E09F89A
:20212000013C00F0F5F900F5CC55193533685B06B1D500F0EDF9401B0028F7DBAAE700F0F2
:20214000E7F9401B0028DEDBA4E700BF6B1700200028004004280040082800402DE9F04FDE
:202160000446DFF89C91634D99F800000E46400028602078604983B008609246019300F07C
:20218000C7F95E4F00F5CC5519353B685A0609D500F0BEF9401B0028F7DB0024204603B054
:2021A000BDE8F08F032302203B6004F015FF00F0AFF9524F00F5CC5519353B68DB072CD4EE
:2021C000FFF7CCFD012E03462DD90028E5D04FF001082644484F494D444406E0FFF7BEFDE7
:2021E000B44203461FD00028D7D014F8013B02203B60C5F8008004F0EFFE00F089F900F558
:20220000CC5B0BF1190B2A68D007E7D500F080F9A0EB0B000028F6DBBFE700F079F9401BF7
:202220000028CADBB9E7002BB7D00B2241F6991599F800302F495B00304C43F001030B60BB
:202240000220226004F0C8FE019BAAF10206DFF8A8801E440AF1FF37BE421BD000F058F923
:2022600000EB05092368D9070DD4FFF777FD002893D00923D8F80020022007F8012F236034
:2022800004F0AAFEE8E700F043F9A0EB09000028E8DB82E70523194C0220236004F09CFEFF
:2022A00000F036F900F5CC5519352368DA071BD4FFF754FD044600283FF46FAF0E4B019A42
:2022C0001B6892440AF8013C00F022F90B4E00F5CC55193533685B067FF560AF00F018F91E
:2022E000401B0028F6DB58E700F012F9401B0028DBDB52E70028004008280040042800409A
:202300006B1700202C4B10B504461970FFF744FD00284ED0294B1A78A24249D000222848FA
:2023200028491C7002600A601B782BB3012B1AD1254C4FF4C041236808209B699847236876
:202340004FF4C0419B690920984723680922DB6C08211E489847236805209B6B98472368A2
:2023600006209B6B9847BDE81040194B01221B6818491B6815481847134C4FF4C041236885
:2023800005209B69984723684FF4C0419B6906209847236806220521DB6C0C48984723687F
:2023A00008209B6B9847236809209B6B9847DAE710BDFFF703FDADE76B170020B2060020E5
:2023C0000428004010040542B401001000200040AC010010006CDC0210B5064C0420236844
:2023E0005B699847236804205B6B98470128F9D110BD00BFB80100100020002170B51B4AD3
:202400001B4BC2E900011B6804205B6B9847012801D0FFF7E1FF164B00201B68DB69984767
:202420000121144B144A196013689B07FCD5134A13491368096823F4807323F00103114C33
:2024400013600B682046104998470423312640F22120012223600D4D0D4903F1864303F5FC
:2024600010132E6008601A6070BD00BFB8060020B801001028200860282008400C000140A9
:20248000C801001000000140002100043C0001400800014010B40949094A0B68146808686F
:2024A0008342FAD1DA010023064902EB5462C1E9002310BCD1E90001704700BF0820094061
:2024C0000C200940B806002010B50B490B4A0B68146808688342FAD1DA010023084902EB10
:2024E0005462C1E9002302F023FD00B910BDBDE8104002F0F3BC00BF082009400C20094086
:20250000B8060020704700BF0146012000F052B804F07ABF2DE9F04104F056FD0124002500
:2025200080464FF480314FF480701A4E1A4B1B4F32683D601C6018601960136828462321A6
:202540009847336820461B6824219847336825211B6802209847124A1249136843F4E02323
:2025600013600D6004F050FF0F4B1049104A1B6800F50070086014603C601B691420984734
:20258000B8F1000F01D0BDE8F081BDE8F04104F01FBD00BF840100100420094000002443CE
:2025A0000020094008200940B00100101C200940A0022443431E012B10B416D9042812D1A3
:2025C00000231A4610F004001CBF104C216013B101210F4B196012B101220E4B1A6010B189
:2025E00001220D4B1A6010BC7047012808D103460A4A116010F0020204D0094C2160E1E7DD
:202600000023F7E7002BEED01046E1E72020094080022443A0022443C0022443182009408D
:202620001C200940014B1868704700BFF007002008B5FFF76DFF184B1860FFF745FF174B26
:202640001B686BB9164B1B68E3B9164B1B6833B100204FF480321449144B08601A6008BD13
:202660004FF48072114B1A6004F0CEFE00F205200F4B20F4FF7020F001001860084B1B683C
:20268000002BE2D0002001220A49084B08601A6002F0FCFDD9E700BFF0070020A00024430A
:2026A00080002443C0002443C0022443042009401C20094080022443012203490348044BFF
:2026C00008601A60704700BF00000840FFFF0F00000C084038B504F077FC114AB0FA80F030
:2026E0001368012B0AD001230E4C0F4D0F49104A400925600B60136068B938BD0D4C094960
:20270000094D14600D60094C0949400923600B6013600028F1D0BDE8384004F059BC00BF63
:20272000000C084000000840FFFF0F000C0008400401004351E5CC1A012203490348044B2F
:2027400008601A60704700BF00000840FFFF0F000C00084008B5064803F0B2F930B10121CC
:20276000044B054A196013689B06FCD508BD00BFF4070020000222431410094070B5054672
:2027800004F022FC0B4C294606460B4803F09AF9FFF7E0FF236868681B689847236868684F
:2027A0009B6898471128F9D106B170BDBDE8704004F00EBCA0010010F407002038B598B13B
:2027C0000022134913480B68134D144C006823F4C0530B602A602260C36801209847104A5F
:2027E00013689B06FCD438BD04460E4803F068F90028E5D005C814430028FBD1002CDFD034
:20280000034A136823F4C05343F40063136038BD04100940A0010010800122430002224369
:2028200014100940F407002038B5054604F0CCFB04462946054803F06BF90020FFF7BEFFED
:2028400004B138BDBDE8384004F0C2BBF4070020F8B50546C0B10078C0B1C9B12C460D4496
:20286000C4F1010704E014F8010F38B1AC4205D000F056F9631C07EB0406F4D100F064F923
:202880000128FBD03046F8BD0646F7E70646F5E70E46F3E710B40D4B0D4C1A780133FF2A35
:2028A00011D1A342F9D10B4C59B101392144013800E019460B4613F80129A14200F8012F7E
:2028C000F7D110BC7047014CEEE700BFC8FF0100D0FF0100F012005038B50C4D02202B68E7
:2028E0005B6998472B6802205B6B984701280446F8D12B684FF40070DB699847044B054A98
:202900001C6013689B07FCD538BD00BFB801001028200860282008402DE9F04340F2F275AE
:20292000DFF8DC8083B0FFF7D7FFD8F800302A4EDB682A4898473368294C5B691520984771
:202940002368DFF8C090274F23F4FE63D9F8002023F0020323603D60D36B1D2098474FF015
:20296000FF334FF000502049D9F8002008600093D2F840901C211D221848C847D8F80020CC
:202980006023D2F8048019494FF4E1321348C047142140F2011340F2013C154A1548116035
:2029A0000268154942F0100202600868134A002818BF634613603D600B6853B115202368ED
:2029C000326843F050032360136903B0BDE8F043184703B0BDE8F083B00100100010004012
:2029E000381000404410004090200240006CDC02341000402C100040F807002030100040E0
:202A0000D0010010B401001008B5064B02201B685B6B9847012809BF034B0020186800F0E9
:202A2000010008BDB80100106C20084038B50446FFF7EAFF18B1264A13681907FCD4032C4A
:202A400003D0244B1B6803B138BDFFF7DDFFA0B1214B22481B68DB689847214B15201B6846
:202A60005B69984740F2F2701E4A1F49136823F4FE6323F00203136008601C4D4FF400704D
:202A80002B681B6A9847032C16D00121184B194A196013689B07FCD51D2000F0D5F91C20A4
:202AA00000F0D2F94FF0FF3000F0CEF9BDE838404FF0FF3000F0C8B92B684FF400709B6AEF
:202AC00098472B684FF400701B6B9847DDE700BF18100040F8070020D00100100010004031
:202AE000B00100103810004044100040B8010010282008602820084010B504F065FA04468E
:202B0000054800F085F90022044B1A6004B110BDBDE8104004F05CBA68050020F8070020E2
:202B200010B50446FFF770FF38B1054B2146BDE810401B680348DB691847FFF7EDFEF4E75F
:202B4000D00100100010004008B5FFF75DFF18B1024B1868C0F3C00008BD00BF1810004040
:202B600070B5FFF7B9FE40F2F2710C4B0C4A1B68116013F0500F0DD00A4C0B4E0B4D06E021
:202B8000336828461B699847094B1B681BB92368DB06F5D570BDC0B29847EFE74010004004
:202BA0004410004018100040D001001000100040F8070020034A136823F00403136030BF85
:202BC000704700BF10ED00E070B504F0FDF902F023FB18B1BDE8704004F0FAB97D4802F007
:202BE0006FFF0224054648B16B6823B19847844228BF0446E4B22D68002DF5D1FFF788FCE8
:202C0000754B06461B686BB3744B1B681B1A022B3ED4A3F28F23002B24DA022C22D102F0CE
:202C200087F930B3012402F08BF90546FFF732FC2D1A002DCEDDFFF7F5FC00EB45218B1B2A
:202C4000A3F28F23002B2FDA013C012CC2D88B1B082B26D406F58036731A31EA230128BFBE
:202C6000314608E002F064F90028DCD1012C40F0A58006F580310220FFF79CFC584A1368D6
:202C800023F00403136030BFBDE8704004F0A0B9002C00F0988002F04BF900289AD00024F6
:202CA000C1E706F10801E6E7012CD0D0022C91D12046FFF77FFC474802F002FF0446002877
:202CC0006CD00625A3680BB1022098472369246825EA0305002CF5D1FFF72EFD6B0760D4DD
:202CE000002D61D100F080F90020FFF767FD3D493D4A0B683D4823F003030B601368016825
:202D000043F00F0313608B69392098470023384A38491360184613600B6004F0EDF9062DED
:202D200048D0354C354D364E2B682368326823F00303236053680321324898472B4B1B686F
:202D40009B6B98472B6804F0EFFA00212E4A336811602C485B6801219847012123682B4A1F
:202D600043F00303236011602B6804F00FFBFFF7F1FCFFF7A9FBFFF7DFFC164802F0A0FE59
:202D8000044628B1E36803B198472468002CF9D104F01EF9BDE8704004F01AB9FFF7CCFCCB
:202DA00006250022194B1A60104B28461B689B69984797E7022004F013F9B2E7022C7FF4DF
:202DC00009AF711E74E702F0B3F800287FF42BAF00E700BFFC07002080022443182009400C
:202DE00010ED00E00010094008100940B80100104010094020042243242208402C2009402E
:202E0000D801001000400340800104430C4009400146014802F056BEFC07002001460148A0
:202E200002F076BEFC07002010B5054802F044FEBDE81040034B20211B6803201B681847F7
:202E4000FC07002084010010431C0ED010B5074B04461B684FF4C0421B68002198470022AF
:202E6000034B43EA84031A6010BD7047B4010010001A4442024B1868186002F063BD00BFD7
:202E8000E020024070B51B4B0C461B6805465B68984714F00C0320F0E06222F4EC2207D043
:202EA000042B1DD0082B21D00C2B08BF42F4403214F003030DD142F4C04223060D4B28461D
:202EC000BDE870401B6848BF42F480221B6800211847022B07D0012B08BF42F48042ECE776
:202EE00042F40032E4E742F40052E6E742F48032DEE700BFB4010010094B1968C140CA0772
:202F000006D4084B1B6823FA00F000F00100704753F8502C22FA00F000F00100704700BF12
:202F2000D0200240C02002400022412300B585B002A8CDE90223FFF721FC042004F040FBE2
:202F4000032805D102A8FFF76FFC05B05DF804FB0321042004F008FB042004F031FB0328AE
:202F6000FAD100901C234FF040520021044804F07DF802A8FFF758FC05B05DF804FB00BF54
:202F800000A00C400022412300B583B06846CDE90023FFF7F3FB012004F012FB012803D04E
:202FA0000121032004F0E0FA6846FFF73DFC03B05DF804FB0022412300B583B06846CDE948
:202FC0000023FFF7DBFB012004F0FAFA012803D0044B986B03F0E4FF6846FFF725FC03B05D
:202FE0005DF804FB4800001010B54123002482B06846CDE90043FFF7C1FB0320214604F0CF
:20300000B3FA012004F0DCFA20B96846FFF70CFC02B010BD044B986B03F0C2FF6846FFF76A
:2030200003FC02B010BD00BF4800001070B50388044653B1B3F52F7F03D182290AD001202D
:2030400070BD00232380032070BD4FF42F732380012070BD094B0A4E1D69FFF76DFB02F0D5
:2030600013FF02F0CBFE8021A847002880B2ECDD02F0BEFEF3689847EFE700BFC8A10000EA
:20308000A4A40000024B186800F00100704700BF9C21084038B510F0030305460C4602D14C
:2030A0000288110508D403F08FFF1B4B1B68DB0714D450B3002038BD438003F085FF164BAD
:2030C0001B68DA07F5D52B8813F4405F06D003F44063B3F5006F04BF104B1D60104B114992
:2030E0001D600B684CF25032236003E00B68013A2360DED013F0FF0FF8D050B12078A0F1D8
:203100000100B0FA80F0400938BD03F061FF0020D1E703F05DFFF1E79C21084000080020D7
:2031200000100440041004400A4A01E0013A0ED0438803F44063B3F5806FF7D1428802F411
:203140004062A2F58060B0FA80F0400970471046704700BF20A1070030B583B003F034FF6A
:20316000254C0546236819201B6A9847236812201B6A9847236819205B6998472368122026
:203180005B6908349847236801205B699847236801205B6B98470128F9D11849184B194A96
:2031A0000860186013689B07FCD50023124C16481649226803600B6013691920984723688C
:2031C00012201B699847A5B140F2FF350024104B104A114911480D60046001A91A601048C5
:2031E000FFF758FFA0F10100B0FA80F0400903B030BD03F0EDFEE7E7B00100102C200840EC
:20320000282008602820084010100460141004600010044051000706000004601C100440DC
:203220000100060410B586B01422002101A806F0B1FE012140F60A0214489DF811300468E1
:2032400061F3030301A869468DF811300594ADF80420FFF71FFF012815D10D4801E0013802
:203260000FD0BDF8063003F44063B3F5806FF6D1BDF8060000F44060A0F58060B0FA80F0AE
:20328000400906B010BD002006B010BD1008002020A1070000B587B01422002101A806F0DD
:2032A00079FE012140F609029DF8113001A861F3030369468DF81130ADF80420FFF7EAFE3F
:2032C000012803D0C0B207B05DF804FB104801E00138F8D0BDF8063003F44063B3F5806F1F
:2032E000F6D1BDF8063003F44063B3F5806F0BD1084B01201A78002AE5D1074A05991870B2
:20330000116007B05DF804FB002007B05DF804FB20A107006C1700201008002030B587B047
:2033200003F052FE324C0546236819205B699847236812205B6998472E4B1B68DA072AD4DF
:20334000FFF7A8FF002401212B482C4B2C4A0460196013689B07FCD52A4C012023689B6939
:203360009847236801205B6B98470228F9D1204C192023681B6A9847236812201B6A984774
:20338000236819201B699847236812201B69984755B307B030BD00231B491C4A0B6002A838
:2033A00019461360102206F0F5FD012140F60D029DF8153002A861F3030301A98DF8153068
:2033C000ADF80820FFF766FE0128B9D1104A01E0013AB5D0BDF80A3003F44063B3F5806FF8
:2033E000F6D1BDF80A30ABE703F0F2FD07B030BDB00100109C2108402C20084028200860F5
:2034000028200840B8010010101004601410046020A1070008B504F02FF8052803460CD055
:20342000032805D068B903220A4B01201A6008BD0222084B01201A6008BD064A01201360D6
:2034400008BD012801D0002008BD0521014A116008BD00BFD021084008B5FFF77DFE0128D2
:2034600004D1FFF7DFFE012800D108BDFFF756FF002008BD08B5FFF70DFFFFF7D3FE012806
:2034800000D108BDFFF74AFF002008BD70B5164B164A197812680029154C18BF0024D30722
:2034A00000D470BD03F090FD00210646114A1248124B134D10601C602B6842F8081C1B6A4A
:2034C000192098472B6812201B6A98472B6819201B6998472B6812201B699847002EE0D175
:2034E000BDE8704003F074BD6E1700209C2108400000C08018100460000040801410046095
:20350000B0010010084B1B7833B1002002460749074B0A6018607047064B0749074A002863
:2035200014BF18460846F2E76E17002010100460141004600800C0800200C0800000C080B8
:20354000044A054B1178054A002918BF00231360704700BF6E1700200000C080141004607C
:20356000014B1868704700BF0008002038B5044615460A46002106F00DFD0122637B258038
:2035800062F30303637338BD014B1860704700BF0408002038B5064B064C1D68064A002317
:2035A0004FF434410548256001F034FB012038BD043004400C0800204136000018080020E8
:2035C0001A4B1B6883B32DE9F0419B68984710B90020BDE8F08103F0F7FC154B8046002079
:2035E0001F680023134E17F18044326840EB00059D4208BF944206D33760B8F1000F0ED0A8
:203600000120BDE8F081FEF783FF0B4A0B4913680860013313603760B8F1000FF0D103F0C6
:20362000D7FC0120BDE8F0810020704704080020043004400C080020140800200808002065
:2036400070B5134B1B68B3B19B689847D8B9114C236A984701280ED1FFF7B2FF636A0546FD
:20366000984745B1BDE8704000230B4A4FF434410A4801F0CFBA0023BDE87040064A8021BB
:20368000064801F0C7BAFFF79BFF0546E9E700BF04080020C8A100004136000018080020B4
:2036A000F8B5224E3368002B3DD09B680546984728BB1F4C236A9847FFF782FF636A984710
:2036C0001C4BB5F1404F1C6820D8002033681A49B3F90C600968F717721A67EBE17356197C
:2036E00043F10007301847EB0401090241EA106143F609520023000206F01CFAF8BDFFF7F9
:203700005FFF0C4BB5F1404F1C68DED9FEF700FF0A4B1B68C3F17E4303F57203C34248BFCA
:2037200004F1FF34D1E71846F8BD00BF04080020C8A100001408002010080020080800209E
:2037400010B5104B1B68DA0704D4FFF705FD012800D010BD0C4C23685B0204D46FF0004296
:20376000094B1A6010BD0122084B09481A7001F07DFD6FF480036FF000422360024B1A6021
:20378000F0E700BF9C210840101004606F1700207C05002008B5124B1B68D90707D4114812
:2037A00004F098FBFFF7D8FC012800D008BD03F00BFC0D4B1A6812020BD40B4B1A6812F059
:2037C0000A0F1CBF6FF00A021A60BDE8084003F0FFBB6FF4000205481A6001F047FDECE742
:2037E0009C21084080A10000101004607C050020014B1878704700BF7017002008B5FFF7D2
:2038000041FC30B1034B5888A0F10200B0FA80F0400908BD3C08002030B583B0FFF732FC01
:20382000154C10B16388022B08D001A91248FFF731FC012805D0002003B030BD012003B0BD
:2038400030BDFEF765FE6388022B0DD06FF03F052D1A04E0FEF770FF6388022B04D0FEF71B
:2038600057FEE842F6D46388A3F10200B0FA80F0400903B030BD00BF3C08002008B5B429BE
:203880000A46014628BFB422024806F00DFB002008BD00BF120B002010B5012488B002A8DF
:2038A00040F602021821FFF761FE104A9DF8183011680F4A898823F00F03ADF81A1002A888
:2038C00001A98DF818308DF816400792FFF7E2FBA04202D0002008B010BD02A8FFF724FC11
:2038E000001BB0FA80F0400908B010BDCC050020A005002008B5FFF7CFFF012801D0002074
:2039000008BDFFF789FFC0B208BD00BFF8B50E4D00200E4F2C680E4E06E02379022B06D074
:2039200024682B68A34209D02379032BF5D13B782BB124682B680120A342F5D1F8BD304675
:2039400001F094FC0120EBE7040B00206E1700207C05002030B583B0FFF702FE0446FFF730
:2039600091FB08B903B030BD01A90E48FFF792FB0128F7D1FEF7CCFD638803F44063002B78
:20398000F0D16FF03F052D1A06E0FEF7D5FE638803F44063002BE5D1FEF7BAFDE842F4D4CA
:2039A000E0E700BF010001040B280BD00C2801D001207047042A08D139B10A4B00201B68A7
:2039C0000B607047082A00D109B902207047064A4B1E073112F8010903F8010F8B42F9D180
:2039E00000207047380800206B08002008B5FFF749FB30B1044B5B88022B14BF02200120B0
:203A000008BD022008BD00BF3C08002000B585B0002102A8082206F0BDFA42F2034302A827
:203A200001A9ADF80830FFF735FB20B19DF90A30803303D0002005B05DF804FB9DF80C00E8
:203A400000F00C00A0F10400B0FA80F0400905B05DF804FB30B583B0FFF714FB18B1204C17
:203A60006388022B02D0012003B030BDFEF750FD1C4D2D1AFFF706FB60B1FFF7C7FF48B1EC
:203A8000FEF746FDC54205D5FEF756FEFFF7FAFA0028F2D101A91448FFF7FCFA6FF03F055A
:203AA000FEF736FD2D1AFFF7EDFA60B1608802280AD1FEF72DFDC54205D5FEF73DFEFFF796
:203AC000E1FA0028F2D1608842F202439842CAD042F20743C01AB0FA80F0400903B030BDF0
:203AE0003C08002000FEFFFF010001040B2810B502D00124204610BD082A13D191B1114A8B
:203B000001F1080313F8010D8B4202F8010BF9D1FFF7B8FA18B10C4B5B88022B05D0002421
:203B2000204610BD0224204610BDFFF793FF012814BF03240024FFF76FFE012818BF0324A0
:203B4000D8E700BF640800203C08002030B585B0FFF798FA20B3144B5D88022D20D142F2EA
:203B6000034402A80822002106F014FA9DF80C3065F301038DF80C309DF80C0000F0030380
:203B8000022B0ED1082200210DEB020006F002FA01A902A8ADF80840FFF77CFA0028EBD151
:203BA000FF2005B030BD00BF3C08002008B5FFF71FFE012814D0FFF765FA88B1094B5B887F
:203BC000022B0DD1FFF75EFA30B9FFF7BFFFFF2806D0C0F3801008BDFFF718FF0028F4D0F1
:203BE000002008BD3C08002010B5FEF791FC194C241AFFF747FA60B1FFF708FF48B1FEF75F
:203C000087FCC44205D5FEF797FDFFF73BFA0028F2D1FFF71FFFFFF781FBFFF7E5F9002226
:203C20000D4B0E4819794280022900D11A710C4B1A79022A04BF00221A710A4B1A79022A61
:203C400004BF00221A71084B1A79022A04BF00221A7110BD00FEFFFFD40800203C08002049
:203C600060090020EC090020780A002008B5FFF7BFFD012801D0FFF7B7FF012008BD00BF4A
:203C8000F8B5FFF7B5FD01282ED0FFF77BF9FFF7F9F918B11A4B5B88022B25D00125842455
:203CA000184A1948577946791849194B65F3830765F38306577146714F795E7965F383072A
:203CC00065F3830610600160C480D480CC804F710B601A60DC805E71FFF76CF9FFF7BCFB76
:203CE000A84203D00020F8BD0120F8BDFFF7CEFBFFF7D2FD0128F5D1BDE8F840FFF78CBDCD
:203D00003C080020D408002060090020EC090020780A002010B584B0072800F2B080DFE8F2
:203D200000F01E622731345D6D04564C2177FFF7A9F918B36388022B20D1FFF78BFE01286B
:203D40000CBF00240324FFF795FB01287ED0FFF763FD012818BF0324204604B010BD0129C2
:203D600000F08780002974D00224204604B010BD444C6186FFF786F90028DBD10024204688
:203D800004B010BD3F4C2186D1E731F00703EBD147F605733B4CC1F34000227E61F30002AB
:203DA00060F382022276208B374A03401078C1F3800143F00203814223831170B7D104F1C9
:203DC00018010222314806F06FF803A93048FFF761F900280CBF03240024BDE731F0010355
:203DE000C2D1CCB2B8E7A1F10B030F2BBCD8254CC9B2A37B8B42C1D0A17398E701F11503A0
:203E00001A2BB1D86FF014030C24224A01E052F83430994227DD14F1FF34F8D2FFF732F931
:203E20000028ABD003A80422002106F0B3F81022184B03A803EBC404A38802A9ADF80E309D
:203E4000ADF80C200024FFF725F985E7FFF7B8FB7DE70191FFF7CCFC01288FD0FFF7C4FE50
:203E600001990C4678E70B4B0B4A03EBC4031360D4E7FFF705FF012880D003246CE7012457
:203E80006AE700BF3C0800206E170020BE080020BC08002010A20000CC050020B9B170B50D
:203EA0000C4684B0172800F2B280DFE800F09E99AB2F180C1283504A45B0B0B0413D3834BF
:203EC000B095918D0C890020086004B070BD022070475C4B00201B681B680B60F5E7002371
:203EE000594A0B60137E03F001030B60127E520744BF43F002030B60544B1B78002B57D0AE
:203F00000B68002043F004030B60DEE74E4B00201B8E0B60D9E7052300200B60D5E76FF049
:203F2000140300200B60D0E71A2300200B60CCE70B2300200B60C8E7454B00201B780B6097
:203F4000C3E7444B00201B785BB20B60BDE7FFF799F800285DD03C4B5B88022B59D1002696
:203F6000082202A8002106F015F802229DF80C3042F2034562F383038DF80C300BE0002130
:203F800002A806F007F801A902A8ADF80850FFF781F8002848D09DF80C2002F00C02082A8F
:203FA000EDD0002E45D19DF90A302360803347D000208AE7244B002093F91C300B6084E715
:203FC000182300200B6080E70A2300200B607CE7202300200B6078E7032300200B6074E760
:203FE000194B00209B7B0B606FE7FFF74BF830B1154B5888A0F10200B0FA80F04009206096
:20400000002062E7104B00205B8E0B605DE701205BE7FFF735FE012808BF0646A0D06FF08D
:204020007F030320236050E780238DF80A30002EF5D0FFF7DDFB0128B5D0FFF7D5FDB2E7EF
:20404000032042E7CC0500203C0800206E1700206D170020B306002070B588B00546FFF7FF
:2040600011F818B1344B5B88022B1ED0FFF708FE012816D10446FEF74BFA6FF01F031E1AA8
:20408000FFF700F8A8B1FFF7C1FC01280FD1FEF73FFAC642F4D4002C47D10225284608B08E
:2040A00070BD0125284608B070BD0024E3E70028F1D1182102A842F60142FFF757FA0022BB
:2040C0001E4BEDB28DF81750069304929DF81430012062F303038DF81430FFF713FA02A8F2
:2040E00001A9FEF7D7FFD8B1154D2A7800E0CAB1BDF80A3003F44063002BF8D0BDF80A50D8
:20410000ADB2B5F5105518BF0125FFF719FA002CC8D0FFF76DFB0128C4D0FFF765FDC1E74C
:204120000125F2E7FEF746FDDFE7FFF761FB0128B3D0FFF759FDB0E73C080020120B002000
:204140006E17002010B50C46B42C2246014628BFB422044805F0A8FE2046BDE81040FFF71F
:204160007BBF00BF120B002010B5FFF741FB012823D0FEF787FF18B1214B5B88022B1FD047
:20418000FFF77EFD0128044611D1FFF7DFFCFF2805D000F0030010F1FF3418BF0124FFF773
:2041A00027FB01280AD0FFF71FFD204610BDFFF71FFB012801D0FFF717FD0124204610BD29
:2041C000FEF7A6F90F4C241AFEF75CFF60B1FFF71DFC48B1FEF79CF9C44205D5FEF7ACFA44
:2041E000FEF750FF0028F2D1FFF7B0FCFF28E4D000F0030010F1FF3418BF0124DEE700BF6C
:204200003C08002000FEFFFF2DE9F043324F83B0814688463E68FEF77BF9304D2D1A03E0F6
:20422000FEF776F9C5421AD53479022CF8D0032C10D139680E7AF6B2062E02DDB51F45452F
:204240000FDD002528460B680D720D713B6003B0BDE8F0830025284603B0BDE8F0833479FE
:20426000E5E7093148462A4605F01EFE04223968F31CCB5CDFF870905BB289F80030331D47
:20428000CB5C0536DFF8648003F03F030DEB0200314488F8003005F007FE0198FFF700FA2A
:2042A0000F4B104A1B7810604BB1002228463B6819681A7239601A7103B0BDE8F08399F88B
:2042C0000010042049B289B201F032FE98F80010204601F02DFEE8E70C0B0020FAFEFFFF35
:2042E0006E17002038080020B30600206D1700202DE9F0410025394F3948FEF789FDFFF756
:2043000089F838468C22294605F044FE8C222946344805F03FFE8C2229463348334C05F073
:2043200039FE8C222946324805F034FEDFF8E480304B314E2946802220461F60C8E9007537
:2043400005F028FE304642F202024FF2F0034FF0A60C012742F6010E20F8022BE268274901
:204360001340A26984F81CC01140254A94F837C01A43244BE260244A0B4367F3030CC4F855
:2043800000E0A36184F837C004F118016261C4F8108002226560A560E583C4E90855A56341
:2043A00005F082FD3A4604F11A01301D05F07CFDFFF766FCB84203D02C462046BDE8F0812B
:2043C00004461248FFF7E0F8FFF7E4F82946104800F094FE2046BDE8F08100BFD408002019
:2043E0008C05002060090020EC0900203C080020780A00200C0B0020BC080020007C008051
:2044000000011AB10702FF6FC408002000A200007C050020040B002008B500F08BF880B299
:2044200008BD00BF00F014B938B50C4D04202B685B6998472B6804205B6B984701280446CC
:20444000F8D12B6840F20140DB699847044B054A1C6013689B07FCD538BD00BFB8010010E5
:204460002820086028200840034B1B68002B0CBF02200120704700BFC80B0020F8B5038851
:204480000446002B2ED0B3F5847F05D1184B1B788B4205D00120F8BD002323800320F8BD1C
:2044A000144D2B6873B1144B144A1B6812685B68022017460026984730182B6847F10001CF
:2044C00098472E600E4B40F201401B689B6A984701210C4B0C4A196013689B07FCD50B48B3
:2044E000FEF79CFC4FF4847323800120F8BD00BFB4060020C80B0020CC010010048002404D
:20450000B80100102820086028200840D005002008B5064B04201B685B6B9847012809BF52
:20452000034B00201868C0F3400008BDB80100103C2008402DE9F041284B1B6883B1284887
:204540000023024612F8011B002939D10133042BF8D100274FF0000838464146BDE8F081E2
:20456000FFF7D6FF002836D01E4A1F4B12681A420ED11E4A0121134611601A68002AFCD1EE
:2045800010464FF4807102F0EFFC0122184B1A6002F01AFD0646134A1368DB07FCD5154B74
:2045A000154A1B6812685B680220154600249847271845F10008002ECED102F009FDCBE768
:2045C00000210E4AC15402EBC303D3E9007838464146BDE8F081FFF727FFC5E7C80B002090
:2045E000CC0B00200880024001000080F09F0240A8025042CC01001004800240C0060020E3
:2046000038B500240D4D0E4A2C6013680D4923F00103096813604B693120984722462046CD
:204620004FF4807102F0A0FC0122074B2A6019782246BDE83840054800F0F8BDA802504275
:204640000C800240B0010010B4060020E405002010B5074C2378802B00D010BD00F046FDBA
:20466000002120700348BDE8104000F047BD00BFB4060020E405002008B502F0A5FC003033
:2046800018BF012008BD00BF80F31088704700BF827A044B03EBC2035B68181AB0FA80F010
:2046A00040097047D00B0020474A837A02EBC303D3E84F1F11F0FF0F03D0BFF35F8F0320F0
:2046C00070472DE9F041012184B0C3E8471FBFF35F8F002F76D10446817A3C4B02EBC102E3
:2046E00050601B68C078DB6B394E9847394DA37A326805EB031352695868B0469047A37AFB
:20470000D8F8002005EB03135868536B984701280646F4D1A37AD8F8002005EB0313D269BE
:20472000986890472C4B2D4A1E6013689B07FCD50320A37A2A491B01EA58536923F00F0356
:204740005361A37A1B01EB581862A37A096822891B01E8580E683AB1227A637A002A2CD01A
:20476000002B14BF03270227082163683A46CDE9003100231B49B047144A2178A37A126881
:204780001B010091566CE858A2784FF0FF336178B047A37A124E1B01EA58536843F0020341
:2047A0005360A37A32681B01E85803A9136998470028F6D104B0BDE8F081002B0CBF032753
:2047C0000127D1E70320F5E7D00B0020B4010010B801001094A200002820086028200840FB
:2047E000C4010010006CDC0270B5214D837A05EBC3025268904201D0042070BD1D491E4AD9
:20480000096802EB031304460A6A9868904701211A4B1B4A196013689B07FCD5194E6078FD
:2048200033689B6B984733684FF4005160789B6998473368A0789B6B984733684FF4005147
:20484000A0789B699847336820789B6B9847336820784FF400519B6998470020A37A05EB6E
:20486000C3035860A37ABFF35F8F05F8330070BDD00B0020B801001094A2000028200860F6
:2048800028200840B40100102DE9F04F304D877A85B005EBC7056C68A04203D0042005B09D
:2048A000BDE8F08F9A462B4B01912B4E90461A6806EB07130446526B58689047012845D133
:2048C000A07A264A00013318DB6812681A423DD0DDE90E329F184745B8BF4746002F33D05D
:2048E000D8BF0DF10C0B24DD0025DFF874900DF10C0BA845D4BF0021019B3058C8BF595DF4
:204900000391D9F800305B689847A17AD9F8003009017058DB68594698470E9BAB42C4BF98
:20492000039B0AF80530A07A0135AF424FEA0010DFD10B4D01E0A07A00012B6830581B6975
:20494000594698470028F6D10020A8E70520A6E7D00B0020B801001094A2000078200840AF
:20496000C401001010B54F4CFCF760FBFDF744FD00F08AFC00F0E6FB00214B4800F0BEFBDB
:2049800000F00EF9FDF798FE00F0F4F900F0BCFCFCF78AFB01F05CF901F0F4FA00F008FB81
:2049A0002368022B11DCFCF795FB404800F0A2F8FDF790FE00F0E0FB0446FDF7BDFE14F073
:2049C000FF0FF7D1FCF7F2FBF4E7394A39493A4803F080FA394803F07DFA2368022BE2DDF0
:2049E000334A3449344803F075FA354B3548196803F070FA2368022BD5DD2D4A2D492E4837
:204A000003F068FA304B3148196803F063FA2368022BC8DD264A2749274803F05BFA2C4B11
:204A20002C48196803F056FA2368022BBBDD204A2049214803F04EFA4AF6CD31264803F0D8
:204A400049FA2368022BAEDD194A1A491A4803F041FA1A21214803F03DFA2368022BA2DD75
:204A6000134A1449144803F035FA1D4B1D48198803F030FA2368022B95DD0D4A0D490E4846
:204A800003F028FA184803F025FA2368022B8ADD164800F045F92368022B84DD144803F07C
:204AA00019FA80E704060020080600203CA50000B4A2000090A0000098A00000BCA2000027
:204AC000E0A40000F4A20000C8A4000004A30000A4A4000010A300001CA3000038A3000014
:204AE0005E17002058A3000068A30000B4170020B4A5000010B50446006830B1002100F06E
:204B0000FDFA54F8040F0028F8D110BDF0B5038883B0054633B14A2B18D188291BD00120D4
:204B200003B0F0BD1B4800F0CBFF044630B1A168201D00F0D9F92468002CF8D10122164BC0
:204B40001A704A2301202B8003B0F0BD002303202B8003B0F0BD0F48019200F0B1FF04460D
:204B60000028EED0019A031D9A4205D02468231D002CE6D09A42F9D1084E2146054800F095
:204B8000C7FFD4E90523376832600BB1E06998473760D6E7E00B0020711700206C0D0020B5
:204BA00010B50024054B06481C7000F085FF2146BDE81040034800F0A1BA00BF7117002015
:204BC000E00B0020F405002070B504460D48049D0078C4E90623656130B9A1600A48214695
:204BE000BDE8704000F06EBF084D094B2E68201D2B6000F079F92E602146BDE87040024846
:204C000000F060BF71170020E00B00206C0D0020F405002010B5044C82B024680094FFF7C3
:204C2000D3FF02B010BD00BF6C0D002070B50C4B04461B782BB92146BDE87040094800F091
:204C400041BF094D094B2E6804302B6000F056F92E602146BDE87040024800F033BF00BFE1
:204C600071170020E00B00206C0D0020F405002070B50C4B04461B782BB92146BDE87040D6
:204C8000094800F01FBF094D094B2E6804302B6000F03EF92E602146BDE87040024800F04B
:204CA00011BF00BF71170020E00B00206C0D0020F405002010B50A4B04461B783BB9C0E96C
:204CC00003332146BDE81040064800F021BF043000F040F92146BDE81040024800F018BF5A
:204CE00071170020E00B002038B50B4B1D785DB904460A4800F0E4FE10B90AE0006840B199
:204D00008442FBD1002038BD0430BDE8384000F009B9012038BD00BF71170020E00B002061
:204D2000F8B1F8B5002405460F4E104F54B1E3070DD5295D304603F0CDF8072C10D0013425
:204D4000002CF4D12978304603F0C4F8F7E7384603F0C0F8295D304603F0BCF8072CEED100
:204D6000F8BD034803F0B6B8A4A30000A0A3000090A30000704700BF10B5FDF78BFB0B4B0A
:204D80001A68D2E9003192680B44191A52B1D2E9003423441B1A9268994228BF1946002A56
:204DA000F5D14318024A136010BD00BFE80B0020E40B00202DE9F843038805464BB3592BBC
:204DC0002AD187292DD082291ED14FF000092B4FDFF8B0803C68BCB1002603E0A368264637
:204DE00093B11C46204600F081FA0028F6D022468821E06800F01AFA18B3404600F036FA80
:204E0000A3682646002BECD159232B800120BDE8F8831A4A1360F7E700232B800320BDE880
:204E2000F883164F39680029EED0CB689A4203D014E0CB68934210D189680029F9D13960CE
:204E4000E2E7E060A368BEB1B3603B68C4F808907BB1FFF791FF3C68BDE739608B68002B14
:204E6000D2D0D3E90204944214BF194688600346F5E7034A1360C7E73B60E7E7E80B0020CF
:204E8000E40B00200806002010B50446104800F0EDF91049E3680A684BB142B194420FD0DE
:204EA000134601E09C420BD09B68002BFAD10A4BA2601B680C60E360BDE81040FFF75CBF77
:204EC000054B1B68E360BDE81040FFF755BF00BF08060020E80B00206C0D0020014800F0EB
:204EE000C5B900BF0806002010B5044600F0E2F92046BDE81040FFF7C7BF00BF10B50446C8
:204F000000F0E0F92046BDE81040FFF7BDBF00BF10B5044600F0E4F92046BDE81040FFF70F
:204F2000B3BF00BFC068B0FA80F04009704700BF024B1868003018BF01207047E80B002080
:204F4000024B186808B1024B18687047E80B0020E40B002010B5144B04461A68824218D089
:204F60005AB19368984208BF13460AD02BB19A68A24206D01346002BF9D10023C4E902336C
:204F800010BDA2689A60FFF7F7FE0023C4E9023310BD82681A60002AF5D1044B1A60002343
:204FA000C4E9023310BD00BFE80B0020E40B0020034A04499079D37903EB00230B8070471F
:204FC000B41700205E1700202DE9F843294F3D68854249D0002D3AD02B4601E0002B36D049
:204FE0001B689842FAD1002B31D0234E837B89460446D6F80080DBB100238373002D35D0B0
:20500000AC4207D0AB7BDB0704D522468721284600F034F82D68002DF2D1A3683BB14C4543
:2050200005D034600022832104F10C0098473D68AC4214D04DB12B68A3420AD02BB11A683C
:20504000A24207D01346002BF9D1C6F80080BDE8F8832B4622681A60C6F80080F7E72368CD
:20506000C6F800803B60F2E72B46BCE78368002BD5D1EAE7700D00206C0D002070B5866894
:205080007EB1044602200A4BA0731C6004F10C000D46B0470238012804D9832D02D0012360
:2050A000A37370BD21462046BDE87040FFF78CBF6C0D0020002238B50A490B4B0C681A70FB
:2050C0007CB1012501E024685CB1E37B002BFAD0E581204600228221FFF7D0FF2468002CA2
:2050E000F3D138BD700D002075170020024B1878421C1A70704700BF7317002070B50F4D48
:205100002C68844206D034B1234600E01BB11B689842FBD170BD0028FCD003460A46012061
:2051200000211C60064C987326689981184681212B60FFF7A3FF266070BD00BF700D00209B
:205140006C0D002030B48A250023064A064815700649074A074C03700B601360237030BC1A
:20516000704700BF7317002074170020700D00206C0D0020721700202DE9F041214D2B782D
:20518000F3B9214E3378BBB12048214F0278013B02EB4201890001327C1802F01F0202704A
:2051A000A068DBB233707F5CD4F8048058B1812F1DD0827BD2071CD428781844BDE8F0810E
:2051C000FFF778FFDDE7134A146854B9F4E7A37BD90704D5424639462046FFF74FFF2468C9
:2051E0005CB12B78002BF2D0FFF764FFEFE70123837342463946FFF741FF337828781844E5
:20520000BDE8F081751700207417002072170020EC0B0020700D0020024A034B10781B780F
:2052200018447047741700207517002070B40C4D2C78202C11D00B4B0B4E1B78234403F01A
:205240001F0303EB43039B0001342C70F418C4E90120F154002070BC7047012070BC704766
:205260007417002072170020EC0B002018B1837B013B012B00D970470123024AC3731370DB
:20528000704700BF75170020FDF73CB910B5084C206858B1D0E90131002222609847236860
:2052A00023B1BDE810401868FDF72EB910BD00BF740D002010B541600446FDF7EBF8206096
:2052C00010BD00BF10B50446FDF7E4F8D4E90021C2F101031844884284BF5218226010BDAC
:2052E00010B50446FDF7D6F8206010BD10B50446FDF7D0F8D4E90032C3F1010318448242FE
:205300002CBF0020012010BD82B0074B01AA9A42019304D9CD2103F8011B9342FBD1002151
:20532000024802B0FFF7EABEC71700201806002038B5124CFDF700FA2378114DCD2B08D095
:20534000AC4202D30EE0AC4213D014F8013FCD2BF9D1AC4202D30CE0AC420AD014F8013FFA
:20536000CD2BF9D0FDF7E8F9AC4204D22C1BA0B238BDFDF7E1F94FF6FF7038BDC7170020D0
:205380000050002070B5038804463BB1902B0ED11748FFF7C7FD70B9012070BD4FF4A06149
:2053A0001348FFF7A1FD90232380012070BD00232380032070BDFFF7BBFF0E4D0E4B064694
:2053C000ED1AABB2984203D90C4B1B68002B03DC0748FFF793FDE6E7094A0A490A4802F043
:2053E00079FDAAB23146094802F074FDF0E700BF780D002000500020C717002004060020DD
:20540000B8A30000C0A3000098A00000C4A3000010B5044690F84C200346013280F84C20CC
:2054200080212030054AFFF7F5FB054B2246BDE8104019780020FFF7F9BE00BF1154000017
:20544000C3170020F8B5038804462BB1CB2B07D1822909D00120F8BDCB2323800120F8BD65
:20546000002323800320F8BDFFF706F9BFF35F8F0022114B1E681A60BFF35F8F0F4DFFF789
:2054800003F928680028E7D00D4F03E055F8040F0028E1D090F8453026FA03F3DB07F5D56A
:2054A000FFF722FC0028F1D02B683A4618460221FFF7B0FBEAE700BF940D00204004002005
:2054C0001D550000034A1368034303481360FFF7CDBE00BF940D002028060020044B1B785D
:2054E000834286BF034B53F820000020704700BFDCA500004004002010B5044690F8450092
:20550000FDF7FAFC10B994F8440010BD01280ABF94F84400002080F0010010BD70B50446AC
:20552000FFF7E2FB00B970BD04F120052846FFF7DBFB06462046FFF7DFFF01280ED00028A9
:20554000F1D1002EEFD12846FFF7B4FB0D4B22463046BDE870401978FFF768BE002EE2D070
:2055600000262846234684F84C60074A7E21FFF751FB064B30462246BDE870401978FFF7C9
:2055800055BE00BFC217002011540000C41700202DE9F843FFF7AAFD214B224C1870FFF79A
:2055A000A5FD214B214D1870FFF7A0FD0021204A204B10702268C5E9013142B30126DFF881
:2055C00080801D4FD8F80030916C92F845009B6B41F08C0998472368494693F84500FDF70A
:2055E00051FC2268D8F8003092F8450006FA00F23A601B6B98472368A96893F8453054F82C
:20560000042F06FA03F30B43AB60002ADAD10B480021FFF773FDBDE8F843044800F08CB9F8
:20562000C417002040040020C2170020880D0020C3170020C5540000E020024028060020BA
:20564000B4010010F8B5048807466C2C0BD07E2C04D0D4B100233B800320F8BD852936D11E
:205660001C4E002333601C4D1A4C05E00A282646236811D07E2B25DD284600F0D7FA431C13
:20568000F4D16C233B800120F8BDFFF72FFD134A104B10701C60E6E70025114A0F49D55481
:2056A0000978013328462360FFF7C0FD0D4B2A4618688521FFF7BAFD0028D2D17E233B80CF
:2056C0000120F8BD06495A1CC8542260D4E70120F8BD00BF180E00201C0E0020C5170020B5
:2056E000980D00206C0D002008B505490548802200F094FABDE8084000210348FFF7FEBCCB
:20570000240E00201C0E00203806002010B1837A012B01D901207047FEF7C6BF10B1837ABB
:20572000012B01D901207047FFF75EB810B50446FEF7AEFF30B10123E178034A8B401360E5
:20574000002010BD042010BDA02002400123C178024A8B4013600020704700BF90200240FA
:2057600010B584B08DF80F1018B1827A0446012A02D9012004B010BDFEF78AFF50B1002333
:205780002046CDE9003301220DF10F01FFF77CF804B010BD032004B010BD00BFB8B170B5AD
:2057A000847A82B0012C02D9012002B070BD044616460D46FEF76CFF58B100233246294645
:2057C0002046CDE90033FFF75FF802B070BD01207047032002B070BDB8B170B5837A82B0B7
:2057E000012B044602D9012002B070BD16460D46FEF74EFF58B1002200962B46204601923C
:205800001146FFF741F802B070BD01207047032002B070BD70B50F4C0F4E257833682846C6
:20582000DB6B98473368A078DB6B984701206378A84063B9094B18600123A178E2788B403D
:2058400012B9064A136070BD054A136070BD044B1860F1E7E0A00000B4010010A0200240B8
:205860009020024001280DD80123074A02EB4001497812F81020934011B1044A136070477D
:20588000034A1360704700BFE0A0000090200240A0200240012806D801230349034A11F891
:2058A00010108B4013607047E0A00000B0200240C20707D501230C4A117852788B407AB1D9
:2058C0000A4A136083070AD50123074A9178D2788B4012B1054A13607047054A1360704750
:2058E000034A1360EEE700BFE0A00000A020024090200240C20707D501230C4A117852786E
:205900008B407AB10A4A136083070AD50123074A9178D2788B4012B1054A13607047054A43
:2059200013607047034A1360EEE700BFE0A0000090200240A02002400146014800F0C2B87B
:20594000A40E002038B50546074800F0B9F848B10446A068284002D0636803B198472468DE
:20596000002CF6D138BD00BFA40E0020014800F0A3B800BFA40E00202DE9F041048806466A
:20598000772C07D07E2C37D0A4B1002303203380BDE8F081DFF8D0802E4D98F800202E4FA9
:2059A00000233B602B6012B32C4CE256002A41DB2B6832E0FFF79AFB294F2A4B254D3A68B2
:2059C00018702C60002A43D02346A046234C04F8038093680021802098472B68013357F888
:2059E00023202B60002AF2D1DBB21F4A1370772333800120BDE8F0811A4B1B788B4216D143
:205A0000144D164CDFF86080134F2B683A68E15C013201F07F01E1543A6098F800200133E1
:205A200093422B60C1DB3B68002BB9D1DFE70120BDE8F0810A4A0B4952F82320097800203F
:205A4000FFF7F4FB0028E0D17E23012033809FE71346CAE7AC0E0020A80E00207C17002020
:205A600028040020C61700207617002010B40E4B1C7864B10D4A1368984213D0002303E0D5
:205A800052F8041F88420BD00133A342F8D1084A0848135D63F07F03135510BCFFF7E6BB60
:205AA0001C46F4E70024F2E776170020280400207C1700204806002000230360704700BF96
:205AC0000068704710B404685CB1A142236819D00BB906E0134699421A680ED01C46002A49
:205AE000F8D100230B6002680AB90FE01A461368002BFBD1116010BC70472CB122600022EC
:205B00001A60EEE71A460B460260F8E70160F2E710B404685CB18C4212D023680BB906E0E8
:205B200013468B4205D01A681C46002AF8D110BC70470B682CB12360002310BC0B6070472C
:205B40000B680360F8E700BF03682BB100201B680130002BFBD170471846704700B10068DA
:205B6000704700BF10B5044642880021406804F011FA23886288A06802FB03F2BDE810408A
:205B8000002104F007BA00BF30B44588BDB141680B7863B100234A1C03E01478114601328F
:205BA0002CB10133AB42F8D1002030BC704701220A700588806803FB050030BC7047284635
:205BC000F3E700BF70B4448882685CB18A4206460BD00023058801E0914207D00133A342FE
:205BE0002A44F9D1FF2070BC704700237268D05C0028F8D00138D054726870BCD05C70470C
:205C000083688B4208D84288008800FB023081422CBF002001207047002070470023013A92
:205C20000160027143718371704700BF10B4817942790479521A224207D003464A1C0068BE
:205C40002240405C9A7110BC70474FF0FF30FAE708B50448FFF786FFBDE808400248FFF7B8
:205C600081BF00BF640600205806002038B50E48FFF78AFF044678B10C48FFF785FF0546CF
:205C8000206058B100F048F805F19C01A5F8800005F1820000F028F9204638BD2146024806
:205CA0002C46FFF78FFFF7E75806002064060020006800F19C01823000F016B910B5044692
:205CC00007482146FFF79CFF00B910BD21680548FFF778FF2146BDE810400148FFF772BFE8
:205CE000580600206406002010B5044609482146FFF786FF00B910BD2468B4F880102046A6
:205D000000F0D2F804F19C0104F18200BDE8104000F0FCB858060020F8B50E4D0E4C2A78A5
:205D200023881344802B01DD0020F8BD06460B4F394604F0B9F80A4B29781B7870181944CB
:205D4000C9B23944228804F0AFF8287823881844F8BD00BF77170020601700204014002032
:205D60006217002070B4134B134D1B782C78134A23441288DBB213449BB21A18802A15DC15
:205D8000013B1BB2002B0CDB0D4A591C1E181144324411F8016D013B1BB202F801695E1CBD
:205DA000F7D120442870012070BC7047002070BC704700BF6217002077170020601700207B
:205DC00040140020084A138883420ADB10B4074980B20C881B1A204408801380012010BC3D
:205DE00070470020704700BF6017002062170020014B1880704700BF60170020044A054B97
:205E000012781B7804481344DBB21844704700BF62170020771700204014002000487047A9
:205E200040140020014B1888704700BF60170020054B064A18781278054B10441B88C0B282
:205E4000184480B2704700BF77170020621700206017002038B5094D094C1A22002109481A
:205E600004F098F82946204600F09EF8294604F10800BDE8384000F097B800BF18A4000000
:205E80008817002098170020002304480449054A03800B801370FFF7DDBF00BF62170020EE
:205EA0006017002077170020802928BF802170B500230C4606460849084A094D0B8013707F
:205EC0002B80FFF7C7FF31462246064803F0ECFF2C80204670BD00BF62170020771700200B
:205EE000601700204014002010B50C461A22054903F0DAFF2046BDE810401022024903F05F
:205F0000D3BF00BF981700208817002010B50C461A220146044803F0C7FF2146BDE81040A7
:205F20001022024803F0C0BF9817002088170020024B23F810100120704700BF98170020F7
:205F4000014B33F8100070479817002008B5044B0D3803EBC00000F027F8012008BD00BF81
:205F600088170020024B0D3803EBC000704700BF881700200149024800F01AB818A40000DB
:205F800090170020054B10B51B689847044B5B689847BDE81040034B5B681847C8A1000004
:205FA000A4A40000C8A40000082203F07DBF00BF08B5082203F046FFB0FA80F0400908BDCE
:205FC000F8B5FCF767FA104E0746344600250D20FFF7C8FF2146FFF7EBFF103420B90135F2
:205FE000102DF4D10020F8BD0720FFF7A9FF06EB05152B7B8342F5D1A868381AB0F5206F33
:206000008CBF00200120F8BDC0140020F8B5174E0024374635460D20FFF7A4FF2946FFF7F2
:20602000C7FF1035631CF0B9102B1C46F3D10F2407EB0410A0F110042146102203F034FF2F
:20604000B4422046F6D10720FFF77AFF3873FCF721FAB8600D20FFF785FFBDE8F8400146EB
:206060000248FFF7A1BF002CE2D1ECE7C014002040B130B40D460446114628461A462346DA
:2060800030BC1847704700BF30B591B0FFF7B6FE0446FFF7C7FE6A460146204600F09AFA89
:2060A00000283ED00446FFF78DFED0B39DF810100C20FFF73DFF9DF813100820FFF738FF3C
:2060C0009DF817308BB1BDF81C5000F0E9F8854205D04FF6FF73BDF81C209A4221D16946F5
:2060E0009DF8170000F094F9B0B102A90D20FFF72DFF9DF815303BB14FF6FF710720FFF784
:2061000017FF204611B030BD9DF81A100720FFF70FFF204611B030BD69460E20FFF716FF6F
:20612000E3E74FF0FF34ECE7F8B505460C2014460E46A84700232074A37496B3E374637549
:206140000920A84700270123A075237667740720A847A07600F0A4F8E0830A20A8470128F6
:206160000CBF3B460323637600F09AF8A0830B20A84701281AD066B90323E375637E022B57
:206180000CD0E37DA3F10203B3FA83F35B092375F8BD0223E375637E022BF2D1012323754C
:2061A000F8BD0820A8476675E074C9E7E775E5E730B591B0044600F073F84FF6FF739842B0
:2061C0005CD040226846002103F0E4FE2D4B1A7822B35CBBFFF7CEFE6A46C1B22A48FFF74A
:2061E000A3FFFFF7C7FE00283CD04FF6FF73ADF800300D20FFF7B6FE014602A8FFF7D4FEF2
:20620000FFF7FCFD0E90FFF70DFE0F90684600F011F90546D4B9284611B030BD01221A7008
:20622000FEF7FAF8194B1870002CD3D00720FFF787FE0028CED1154D2978D9B189B2072064
:20624000FFF776FE2B7801332B70C3E7FFF78AFDA0B1FFF7E3FD0146684600F037F9284691
:2062600011B030BD0E20FFF77DFE01466846FFF79BFEBEE7012319462B70E0E74FF0FF3550
:20628000C9E700BF78170020415F0000791700200120FFF78DBF00BF0020FFF789BF00BF51
:2062A000014B1888704700BFB0060020002840D030B4037A022B10D00378022B15D00379F7
:2062C000B3B10024C37913F0030318BF012301B10C6002B1136030BC7047C579447A037997
:2062E00065B90CB9012BF2D0EBB100231C46EEE7447A14F0030418BF0124E3E753EA040007
:2063000018D0032D2CD1032C26D0022C1CD103BB022D34D00123032D1CD1A4F10204B4FAAD
:2063200084F46409D3E7023C012C8CBF00240124CDE77047022D08BF0123EBD1A4F10304E2
:20634000B4FA84F46409C2E7002BCED1022DE2D1F4E701230024BAE7002BC6D10123DCE7E8
:20636000022DD2D13CB1002BF3D1022C4FF00103E4D11C46ABE7002BB7D12346DEE7012350
:206380001C46A4E730B504460D46084683B00021062203F0FFFD637DD9075CBF01232B703B
:2063A000237E012B24D901AA694604F11000FFF77DFF009B0BB10223EB70019BABB9E37D0B
:2063C00003F00303022B03D0032B0CBF08230023AB70637E03F00303022B03D0032B0CBF8F
:2063E000082300232B7103B030BD02236B70E6E7E37D9A0706D0637E9B0703D0E28BA38B7E
:206400009A4202D000232375CDE701232375CAE702280CBF012207220A4400E01A461346CA
:2064200013F80109FF2803D19142F7D1012070470020704700B583B06946FFF7A3FF9DF83E
:2064400000309DF801009DF80220023303449DF8030013449DF8042003449DF80500134463
:20646000184403B05DF804FB43788278DB00120170B402F010020578C47803F008031343E1
:20648000027905F0070564012B4304F020049201234302F0400213430B7043798579467A1D
:2064A000C479027A03F001036D0043EA861305F00205A4002B4304F00C041201234302F07C
:2064C000300213434B7070BC704700BF70B504460D4682B06946FFF755FF294604F1100076
:2064E000FFF7C2FF9DF80030012B02BFA37E0322AB709DF8013018BF0222022B08D1A18BDF
:20650000531CA954A18BDBB2090A0232E954D2B29DF802303BB3591E13442144DBB211F8D0
:206520000169501CAE54C2B29A42F8D19DF80320022A08D1E18B5A1CE954E18BD2B2090A8B
:206540000233A954DBB29DF8040070B1C21D18442244C0B212F80149591CEC54CBB298424F
:20656000F8D102B070BD1346E0E7184602B070BD70B50278437884B002F007040846C2F388
:206580000011C2F3C0058DF804408DF80610C2F34014C3F34001C2F380128DF8055003F0F8
:2065A00001068DF80740C3F381058DF80820C3F301148DF80A109B090A2201A98DF809604D
:2065C0008DF80B508DF80C408DF80D3003F06CFC04B070BD012944DD2DE9F041144686B0EA
:2065E0000F4603A90546FFF7C3FF03A90A2204F1100003F059FC9DF8113073B3AE1C03A801
:2066000002AA01A9FFF752FE9DF81380B8F1000F44D0029B002B32D1B8F1020FA38368D007
:20662000B8F1030F4ED09DF81580B8F1000F2DD0019BC3B9A38BE383B8F1020F4ED0B8F175
:20664000030F32D0701B8742A7EB0003B8BF0020C4E90E6306B0BDE8F081AB78EE1CA37676
:20666000CDE700207047717816F8023B029A03EB01239BB2E383002ADED1A383DCE772784E
:2066800016F8023B03EB02239BB2C5E71E4904F10800FFF789FCA4F81E80D3E71A49204607
:2066A000FFF782FCA4F81C80BDE706F10800034604F1080213F8011D9E4202F8011BF9D15A
:2066C0000646BFE706F108000346621E13F8011D9E4202F8011FF9D10646A4E70A4904F1F4
:2066E0000800FFF761FC7378237216F8023B6372A8E705492046FFF757FC7378237016F887
:20670000023B63708FE700BF18A40000002230B51A4B83B01B68ADF8002005460193FFF7BC
:2067200005F810B1FE2003B030BD042228460DEB0201FFF733F8C8B9022269462846FFF775
:206740004BF804462846FFF701F8A4B99DF80030C22B02D0204603B030BD9DF80100A0F141
:206760001400B0FA80F0400903B030BD2846FEF7EDFFFF20D7E7FF20D5E700BF2CA400006C
:20678000052330B583B004468DF80430FEF7CEFF10B1002003B030BD0546012201A92046F5
:2067A000FEF7FCFF20B117E09DF80730DB070DD501220DF107012046FFF70EF80028F3D01B
:2067C0002046FEF7C3FF002003B030BD2046FEF7BDFF012003B030BD2046FEF7B7FF284685
:2067E000D8E700BF10B582B0E8B103780446FF2B03D02046FEF78AFF10B1002002B010BD85
:206800002046FEF7A3FFAB2320468DF80730FEF78DFF78B12046FFF779FF0128EED02046C0
:20682000FEF77CFFE9E70B4C2046FEF76FFF0028E3D1E5E701220DF107012046FEF7AEFF1F
:2068400018B12046FEF782FFE4E72046FFF798FFF7E700BF30A4000070B5174C002818BFDD
:2068600004462046FFF78CFF40B900252046FEF755FF00280CBF2846002070BD05462046BB
:20688000FEF754FF06460028EFD1B9212046FEF767FF60B92046FEF759FF0A262046FFF789
:2068A00035FF731E0028E1D013F0FF06F6D120463546FEF74BFFD9E730A4000010B50446A8
:2068C000FFF790FF00B910BD2046BDE81040FFF7C3BF00BF064B1868C20C830D02F4407244
:2068E00003F01C031343C0F381501843704700BF98130050044B05481B681A0302F47C131F
:2069000010401843704700BF9813005000F0C0FF6FF00902154B16491B68C3F30463152BA3
