:020000040000FA
:20000000005000206D0F0000650F00004D0F0000690F0000690F0000690F000000000000BC
:20002000000000000000000000000000690F0000690F000000000000690F0000690F0000E0
:20004000912E0000690F00005D370000690F00004D2600007D2B0000690F0000690F000052
:20006000690F0000B1370000690F0000690F0000690F0000690F0000690F0000690F000050
:20008000690F0000690F0000690F0000690F0000690F0000690F0000690F0000690F0000A0
:2000A000690F0000690F0000690F0000690F0000690F0000690F0000690F0000690F000080
:2000C000690F00001D460000294B1B689B0702D44FF000407047F0B5452183B0002002F050
:2000E00011F90DF106010222012001F061F838B901A8022101F086F84FF0004003B0F0BD57
:200100000DF106010222002001F052F80028EFD0BDF806301C0A44EA0324A4B2200BADF8E8
:2001200004400EF0D1FB0DF097FF0646C4F30B000F460EF0D9FB0CA3D3E9002304460D46BE
:20014000304639460EF03AFC02460B46204629460EF034FC0EF0E2FE06490FF03DF80FF07A
:200160008BF903B0F0BD00BF7B14AE47E17A843F740800200000C84208B51F4B1B68032BBC
:2001800033D1431E012B30D803461C491C4A012B0988108811D00EF097FB0022194B0EF068
:2001A0000DFC0022184B0EF009FC0EF0B7FE17490FF012F80FF060F908BD08460EF084FBAA
:2001C0000022104B0EF0FAFB09A3D3E900230EF0F5FB00220E4B0EF039FA0EF09FFE0B499B
:2001E0000EF0FAFF0FF048F908BD4FF0004008BD0000000000A064407C080020082500208A
:20020000062500200000F03E000059400000C8420000444000000000F8B55F4B1B68FBB1B8
:200220000546062200215D480FF0E2FB15F038073DD16A0714D002F079F9594C6FF009068B
:20024000206005E002F072F92368F31AC34203D501F0E4FB0028F5D0524B1B78DB0703D4C1
:200260004FF000473846F8BD4C4C6821012002F049F821460622432000F09AFF0646002861
:200280005FD0002120886288A38840BA52BA5BBA208062800846A38002F034F8042D3DD0E7
:2002A000022D59D0012DDDD1B4F9040038E002F03DF93B4C6FF00906206005E002F036F99E
:2002C0002368F31AC34203D501F0A8FB0028F5D0344B1B78D907C3D5304C6821012002F086
:2002E00011F8214606223B2000F062FF00210646084602F007F8002E43D021886288A3880F
:2003000049BA52BA5BBA202D21806280A38026D0102D30D0082D31D00027A3E7B4F90000FF
:200320000EF0E2FA1AA3D3E900230EF071FC0EF0F5FD1D490EF050FF0FF09EF807463846D9
:20034000F8BD2046062100F05DFF3146304601F0D9FF4FF0004785E7B4F90200E0E7B4F944
:20036000000001F085FA10490EF036FF0FF084F807463846F8BDB4F90200F2E7B4F904004D
:20038000EFE72046062100F03DFF69E7AFF300800000000000606040CC080020A40800209C
:2003A00040250020192500200000C842000000002DE9F04F23F0004555EA020493B03DD00E
:2003C000DFF8B4E121F0004474450F4683462EDC1E46944639D0754529DCDFF89CE1754567
:2003E00022D0002F8A468146CDE9002336DB4FF00008BCF1000F4CD15F4B9D4200F08E80B4
:200400005E4B9D4200F09D80B6F1804F00F097845B4B9E423DD1002F3BDB4846514613B005
:20042000BDE8F04F0DF0B0BFBCF1000FD9D004F1404404F5801454EA0B0309D100234F4C1D
:200440001846214613B0BDE8F08F08B9A542C4DD4C4813B0BDE8F04F0EF064B84A4B9D42DE
:2004600075DCA3F154739D420EDD2B15A3F2FF33142B40F36C84C3F134032CFA03F202FA9B
:2004800003F3634500F0AC844FF00008BCF1000FB6D0484651460EF039F8BBF1000F20D115
:2004A00024B1364B27F040429A421AD1002E05DA02460B46002031490EF0AAFB002FC1DAD9
:2004C00004F1404404F5801454EA080340F0618402460B460EF0BAF802460B460EF098FB45
:2004E000B0E7FB0F013B079358EA030332D0274B9D424FDD03F104739D4240F3BD83244B92
:200500009C4240F34183002E40F3418318A3D3E90023104619460EF051FA93E704F1404357
:2005200003F5801353EA0B0388D0194B9C4240F35683002EC0F22B83DDE9003418462146F2
:2005400080E7002EC0F2F383484651467AE74FF002084EE74A465346484651460EF076F820
:2005600002460B460EF054FB6CE700BFAFF300809C7500883CE4377E0000F07F0000F03F55
:200580000000E03F8CFB0000FFFF3F430000E041FFFFEF3FD04B3B40002B40F0378300221B
:2005A000CE4B0EF00BFA6FF034060C46CC4A2315C4F31304A3F2FF3344F07F55944203EB85
:2005C000060945F4401540F31383C64B9C4240F3E983002300240022CDE90C34CDE91034CE
:2005E0000024C14B09F10109CDE90823A5F58015DDE908AB294652465B4606460EF026F82E
:200600005246CDE90A015B4630462946CDE908AB0EF01EF802460B460020B3490EF0F8FAD9
:200620000A4601461346CDE90E120246DDE90A010EF0C4F90A4683469446002301460020A3
:20064000CDE902BC02936B1043F0005303F50023CDE90412DDE902AB19192F4604460D46F2
:2006600002460B46504659460EF0A8F902460B46DDE90A010DF0EAFFDDE90823CDE90A010B
:20068000204629460DF0E2FF02460B46304639460DF0DCFF52465B460EF090F902460B46E8
:2006A000DDE90A010DF0D2FFDDE90E230EF086F9DDE90445CDE9080122462B4620462946AB
:2006C0000EF07CF972A3D3E9002304460D460EF075F971A3D3E900230DF0BAFF22462B4628
:2006E0000EF06CF96EA3D3E900230DF0B1FF22462B460EF063F96CA3D3E900230DF0A8FF35
:2007000022462B460EF05AF969A3D3E900230DF09FFF22462B460EF051F967A3D3E900231F
:200720000DF096FF224606460F462B46204629460EF044F902460B46304639460EF03EF9DA
:2007400004460D46DDE9040152465B460DF080FFDDE908230EF032F922462B460DF078FF15
:20076000524606460F465B46504659460EF026F900225E4BCDE90A010DF06AFF32463B4662
:200780000DF066FF02980D4604462B462246504659460EF013F9002282468B46534B2046E9
:2007A00029460DF053FFDDE90A230DF04FFF02460B46304639460DF049FFDDE904230EF07F
:2007C000FDF8224606460F46DDE908012B460EF0F5F802460B46304639460DF039FF0646E1
:2007E0000F4602460B46504659460DF031FF34A3D3E9002302980D4604460EF0DFF852464F
:20080000CDE904015B46204629460DF01FFF02460B46304639460DF019FF2BA3D3E900233C
:200820000EF0CCF82AA3D3E9002306460F46204629460EF0C3F802460B46304639460DF090
:2008400007FFDDE910230DF003FF044648460D460EF04AF806460F46DDE9040122462B46EA
:200860000DF0F6FEDDE90C230DF0F2FE32463B460DF0EEFE029832463B4682468B460DF09A
:20088000E5FEDDE90C230DF0E1FEDDE904232FE0EF4E454A287ECA3F65DBC9934A86CD3FB5
:2008A00001411DA96074D13F4D268F515555D53FFFAB6FDBB66DDB3F033333333333E33FE6
:2008C000000000E009C7EE3FFD033ADC09C7EE3FF5015B14E02F3EBE0000F07F00004043C6
:2008E0008E98030079B60B000000F03F000008400DF0ACFE02460B46204629460DF0A6FE68
:20090000079A08F1FF3313434FF000064FF000030CBFD34CD34CCDE90201CDE90434DDE9B8
:2009200000231046194632461F460DF08FFE5B4652460EF043F8DDE9002380468946DDE9C2
:2009400002010EF03BF802460B46404649460DF07FFE3246CDE900013B46594650460EF058
:200960002DF80B46024680468946DDE900010DF06FFEBD4B044699420D468B4640F30C81E2
:2009800001F13F4303F5E003034340F0F481A0A3D3E90023DDE900010DF05AFE424606460B
:2009A0000F464B46204629460DF050FE02460B46304639460EF092FA002840F0DC81CBF3A6
:2009C0000A534FF480120020A3F2FE3342FA03F35B44C3F30A52A54DA2F2FF321541C3F359
:2009E000130423EA0501C2F1140A44F48014BBF1000F02460B4644FA0AFA40464946B8BF0E
:200A0000CAF1000A0DF022FE80468946DDE9000142464B460DF01CFE0D464FEA0A5B002453
:200A20007DA3D3E90023204629460DF0C7FF424606460F464B46204629460DF007FE024646
:200A40000B46DDE900010DF001FE75A3D3E900230DF0B4FF74A3D3E90023804689462046EA
:200A600029460DF0ABFF02460B46404649460DF0EFFD8046894602460B46304639460DF0A9
:200A8000E7FD32463B4604460D460DF0DFFD02460B46404649460DF0D9FD22468046894685
:200AA0002B46204629460DF089FF61A3D3E9002306460F460DF082FF5FA3D3E900230DF08B
:200AC000C5FD32463B460DF079FF5DA3D3E900230DF0BEFD32463B460DF070FF5AA3D3E931
:200AE00000230DF0B3FD32463B460DF067FF58A3D3E900230DF0ACFD32463B460DF05EFFF7
:200B000002460B46204629460DF0A0FD06460F4602460B46204629460DF050FF0022CDE99A
:200B200000014FF08043304639460DF08FFD02460B46DDE900010EF06BF8424606460F464A
:200B40004B46204629460DF039FF42464B460DF07FFD02460B46304639460DF077FD224601
:200B60002B460DF073FD02460B4600203D490DF06DFD8B44BBF5801FC0F22E815946DDE90D
:200B800004230DF01BFF5DE4002EFFF6BFAC002300241846214655E4DFF8D8C021F0004340
:200BA000634540F3E280324B0B4403430AD142464B460DF04BFDDDE900230EF085F9002820
:200BC0003FF4FDAE24A3D3E90023DDE904010DF0F5FE21A3D3E900230DF0F0FE32E4002E04
:200BE000D5DADDE90034184604F10043194629E4002300241A462346CDE90C23CDE910236C
:200C00000022184B0024CDE90823F1E40026CDE4FE822B654715973C00000000432EE63FC9
:200C2000EF39FAFE422EE63F396CA80C615C20BED0A4BE726937663EF16BD2C541BDBB3E39
:200C40002CDE25AF6A56113F93BDBE166CC1663F3E5555555555C53F59F3F8C21F6EA5018C
:200C60000000F0BF0000F03FFFFF8F40FFFF0F0000346F3FFFCB9040714B9C4284DD714B89
:200C80009C423FF740AC00226E4B0DF0DFFC5EA3D3E9002304460D460DF090FE5CA3D3E9DE
:200CA000002306460F46204629460DF087FE002282468B46644B204629460DF07FFE024618
:200CC0000B4655A1D1E900010DF0C0FC22462B460DF074FE02460B4600205C490DF0B6FC04
:200CE0002246CDE902012B46204629460DF066FE02460B46DDE902010DF060FE48A3D3E9C8
:200D000000230DF05BFE02460B46504659460DF09DFC02460B4604460D46304639460DF0CE
:200D200097FC00208B46824632463B46E0E54A465346002043490DF06BFFFFF783BB4A46A9
:200D40004846534651460DF039FEFFF77BBBBCF1000F38D1C3F1140345FA03F202FA03F3BF
:200D6000AB4247D0E046FFF74BBB384A934247DCB346B24653E62CA3D3E90023DDE9040130
:200D80000DF01CFE28A3D3E900230DF017FEFFF759BBB8F1010F7FF455AB01F100431946B6
:200DA000FFF750BB22A3D3E90023CDE90C2322A3D3E90023CDE910230022254B4FF48024A3
:200DC000CDE9082314E40DF0A1FBBBF1000F7FF4C1ABD846FFF764BB524600F03DF8CEE663
:200DE00002F00102C2F10208BCF1000F3FF408ABFFF74FBB02F00102C2F10208FFF700BB3C
:200E00001B15DEE5AFF30080000000604715F73F44DF5DF80BAE543E555555555555D53FF6
:200E2000FE822B654715F73F9C7500883CE4377E0000004003B8E23F06D0CF43EBFD4C3E2C
:200E4000FEFFEF3F0000F03F0000D03F0000E03F0000F83F00000000F8B5C1F30A530446CB
:200E60000D460E46174673BB034621F00046334328D0314B00220DF0A1FD304B04469F4253
:200E80000D461ADB0E46C1F30A53363B40F2FE723B44934220DC002B3DDC13F1350F2CDAB0
:200EA0004CF250339F4217DC05F0004343F0D27141F4B731224841F01F011BA3D3E900237A
:200EC0000DF07CFDF8BD40F2FF729342DED102460B460DF0BDFBF8BD05F0004444F0FC4113
:200EE00041F45F1141F4105111A3D3E90023154841F03C010DF062FDF8BD26F0FF4626F4D3
:200F0000E006363346EA03552046294600220E4B0DF054FDF8BD26F0FF4626F4E00646EA1C
:200F2000035520462946F8BD59F3F8C21F6EA5019C7500883CE4377E00005043B03CFFFFAB
:200F400059F3F8C29C7500880000903C044B1A68B2F5806F03D01B689B0500D4FEE7704759
:200F600028ED00E0FEE700BFFEE700BF08B506F06DFB104A10498A420DD2104801390346E0
:200F8000891A21F003010431014453F8040B8B4242F8040BF9D10A480A494FF00002884235
:200FA000B8BF40F8042BFADB03F0EAFCFFF7CEFF08BD00BF0000002096070020B0010100CF
:200FC00098070020A62E0020F0B5002706463C463D4683B0304604F07BFC0195019B9C421D
:200FE00006DD00BF019B01330193019BA342F8DB304604F08FFC0195019BC4F5C8749C429D
:2010000006DD00BF019B01330193019BA342F8DB0137B7F5487F06D0B7F5C87FCCBFC7F5BB
:2010200048743C46D6E703B0F0BD00BF38B5194D194C2B6820465B680121984701222B686B
:2010400011461B682046984706F080FB01F07AFF01F0F8FE00F0FAFD04F098FC04F010FC40
:201060000120FFF7B1FF01230C490D4A0D480968136003600B691020A2F5FF521268984758
:2010800006F068FB01F054FABDE838400020FFF79BBF00BFD801001000400340B00100103F
:2010A0000C4009400800094008B541F2342003F0C7F901F02FFD04F04DFB0548082101F093
:2010C000F7FB04F09BFABDE808400220FFF77CBF70250020002370B584B002A80821294CDC
:2010E000CDE9003301F0E4FB9DF80E309DF80F60E56A46EA03264AF6CD310220A8473146F2
:201100000320A8471A210120A847636B02A908221D4D0B209847A46A69460120A0472B6803
:20112000022B1ADC01A90220A04778B92B68022B08DC0021154804F01FF80020FFF744FF22
:2011400004B070BD0199124807F086FA2B68022BEFDD104807F080FAEBE70F4A0F49104813
:2011600007F07AFA0F4807F077FA2B68022BD9DD094A0A490A4807F06FFA00990A4807F095
:201180006BFACFE798FC00000406002048060020A0FB00008001010050FB000060FB000045
:2011A00068FB000078FB000090FB000001F01ABD00B583B013468DF807000A460DF10700E4
:2011C000012100F0CBFF03B05DF804FB0C4B187082B110B4541EE4B201340C4411F8010BB4
:2011E000A14203F8010FF9D10132D1B2044810BC00F064BE0132D1B2014800F05FBE00BF8C
:20120000C007002041B1CC224B1EDBB20133034403F8012D8342FBD1704700BF8138012884
:201220009ABF024B18680020704700BFF80700200322024B02481A6004F028BCF8070020A6
:20124000D8FB000010B5044682B07721002001F059F8002C14BF2523002301220DF10701ED
:20126000F4208DF80730FFF7B1FF02B010BD00BF30B5802885B005D081281ED01E4B1868A3
:2012800005B030BD01251C4C77210020256001F039F8182219498820FFF78AFFB6232A46B3
:2012A0000DF10F01E0208DF80F30FFF78FFF0020FFF7C8FF206805B030BD0F4C20680028C6
:2012C000DED061B10120FFF7BDFF00230C4A03210C4803F0E1FC0220206005B030BD094825
:2012E000019103F007FD01990846FFF7ABFF01231846236005B030BDF8070020E007002010
:201300003112000004080020F8B5524B1B68032B40F09D80431E012B00F299804E4C0622BC
:201320000021054620460EF063FB7721002000F0E9FF21460622F720FFF73AFF00287FD0A3
:2013400023794649E27860791B0143EA02330A8843EA1013C2EB131000FB00F0B1F9046006
:2013600007135200B1F9020006FB07F7C2EBD30300FB03F3B81300EBE3264FEA660CACF5D7
:201380007A4C4FEAAC0707FB07F7B1F90830B1F90A007A130CFB03F302FB00F25B1003EB33
:2013A000E2039B14C88803F5004300FB03F08E61C01322786378A4783AD0B1F90EE0FF121A
:2013C0000CFB0EFCB1F910E04FEA4C0C0EFB07CCB1F90C70240944EA03143F0444EA0234B6
:2013E00007EBAC071E4A04EB273402FB04F202F1434202F5A002002AB3BFB2FBF0F0520017
:20140000B2FBF0F04000C30803FB03F2B1F91430B1F916408708520B03FB07F304FB02F27C
:20142000B1F912105B1303EB22330B4400EB2310012D00D0F8BD06EB860080300012F8BD21
:2014400020460621FFF7DEFE4FF00040F8BD4FF00040F8BDF8070020FC070020E00700207C
:20146000CBF3FFFF813801289ABF024B18680020704700BF2C0800200322024B02481A6088
:2014800004F004BB2C080020F8FB000010B504464421002000F036FF002C14BF1024002442
:2014A0000222044B10461C801946BDE81040FFF78DBE00BF0425002010B5802882B005D0B6
:2014C00081281DD01E4B186802B010BD1D4C012023689B6B984723684FF480419B69012060
:2014E000984723684FF08041DB69012098470020FFF7CCFF01231846114A136002B010BD8E
:201500000F4C20680028DFD061B10120FFF7BEFF00230D4A24210D4803F0BEFB02202060C9
:2015200002B010BD0948019103F0E4FB01990846FFF7ACFF01231846236002B010BD00BFAB
:201540002C080020B4010010791400003408002038B5354B1B68032B0FD182070DD00328FA
:201560000ED0012805D0022807D1304B1B68184638BD2F4B1B68184638BD4FF00043F6E78D
:201580002C4D44210446002000F0BCFE294602220420FFF70DFE002844D02A88130A43EA69
:2015A00002239BB22B805B043CD5234D022229460120FFF7FDFD68BB1F480421FFF722FEC5
:2015C00000202C786B78A978EA7843EA042442EA01220028D1D090080DF0AAFD4FF0745134
:2015E0000DF0FAFD15490DF0F7FD0DF045FF104B0E4D1860A0080DF09BFD4FF074510DF0FB
:20160000EBFD0E490DF0E8FD0DF036FF01232860184638BD02222046A918FFF7C9FD002849
:20162000CFD1C9E7044DC7E72C0800202408002030080020042500202808002000007A440C
:20164000014B1868704700BF7408002070B506460E4C82B045210020256800F053FE6EB13C
:2016600041F2C2020123ADF80620236002220DF106010120FFF7AAFD02B070BD4FF486531F
:2016800005F002052560ADF80630EFE77408002000B5452183B0002000F034FE02220DF1CA
:2016A00006010120FFF784FDBDF90630002B08DB0023084A1021084803F0EEFA03B05DF8B8
:2016C00004FB064804F0E2F90222054B1A6003B05DF804FB911600005408002008FC0000D2
:2016E00074080020802810B50ED081280FD10C4679B10120FFF7AAFF00230A4A10210A4844
:2017000003F0CAFA012010BD0020FFF79FFF002010BD054803F0EEFA2046FFF797FF204603
:2017200010BD00BF9116000054080020813801289ABF024B18680020704700BF7C080020B8
:20174000032138B5134C144A2378116033B9012312482370BDE8384004F098B9104D43218F
:20176000002000F0CFFD2846042100F079FC00212070084600F0C6FD28886988020A42EA0A
:201780000022084D0B0A084843EA01232A800380DDE700BF162500207C08002020FC000051
:2017A00078080020082500200625002030B5802883B005D0812826D0264B186803B030BD2C
:2017C0000024254B254D2146042225481C802C800EF00EF92046432100F094FD022210231A
:2017E00010460DF10601ADF80630FFF7EFFC1D4B21461870204600F085FD01231846154AC2
:20180000136003B030BD134C20680028D6D061B1144D2B788BB90023134A0321134803F0B4
:201820003BFA0220206003B030BD104803F062FA01231846236003B030BD4321002000F071
:2018400061FD002000F0D4FB00212870084600F059FDE0E77C0800200625002008250020FB
:201860007808002016250020411700008008002008B5174B1B78032B28D8DFE803F0151EA0
:201880000C020DF031F800224FF07D530DF096F80DF044FB08BD0DF027F800220D4B0DF0C4
:2018A0008DF80DF03BFB08BD0DF01EF800220A4B0DF084F80DF032FB08BD0DF015F800228D
:2018C000064B0DF07BF80DF029FB08BD002008BD172500200000303F0000103F0000203F03
:2018E000813801289ABF024B18680020704700BFCC0800200222024B02481A6004F0C6B8AF
:20190000CC08002038FC000010B56821012000F0F9FC3F23094C012221466C202370FFF7F5
:2019200055FC4F23214601226B202370FFF74EFCBDE810400021084600F0E4BC1B250020A8
:20194000802838B50BD0812806D111F03F012DD1294B1B68DB043BD4284B186838BD284C17
:20196000072023689B6B984723684FF400519B690720984723684FF08041DB6907209847D2
:2019800023680C20DB6B984723684FF440729B6A4FF480610C2098474FF48054002219481D
:2019A000194B164904601A60086838BD4FF480500124154B154A114D196010600023144A62
:2019C000082114482C6003F067F92C60204638BD0D4B1048196003F08DF9FFF795FF0E4A38
:2019E000136813F00103FBD14FF48050034A054913600860106838BD80200240CC080020CD
:201A0000B4010010A0200240A008002090200240451A0000AC0800200428004010B5084C8D
:201A20006821012000F06EFC214601223A20FFF7BFFB0021084600F065FC207810BD00BF2A
:201A4000192500202DE9F041354C236813F0380F28D1344D03F03F032E78DCB25EB9002B66
:201A60003AD1FFF751FFBDE8F04100232E4A05212E4803F011B92C70002BF2D02C4FE44320
:201A8000682101203C7000F03DFC012228496C20FFF79CFB0021084600F034FC254805F029
:201AA0005DFEE0E7244E3278002AD2D00025234F682101203D7000F025FC394601221C203F
:201AC000FFF784FB07462946284600F01BFC2368002FBED03570BCE76821012000F012FC28
:201AE0000923134F012239466B203B70FFF76EFB3F23394601226C203B70FFF767FB01226B
:201B00000E491C202E70FFF761FB394601223A20FFF74EFB3146304600F0F4FB2C70AEE70A
:201B2000A00800201A250020F5180000AC0800201B250020803801001725002018250020CB
:201B40000022014B1A7070471C25002070B50024144B15481C7001F06FF9144A144D136851
:201B6000296823F0010313600B6A204698472B6820469B6A98472B6820461B6B9847012133
:201B80000C4B0D4A196013689B07FCD50B4C152023689B6B984723680021BDE870401B6AAE
:201BA000152018471C250020400500200C000140B80100102820086028200840B4010010B0
:201BC00010B5064C042023685B699847236804205B6B98470128F9D110BD00BFB801001000
:201BE000FFF7EEBF032801D000F016B908B5FFF7ADFF104B00219B68812098470E4B0021AF
:201C00009B68812098470D4B00219B68812098470B4B00219B68812098470A4B00219B68D2
:201C2000812098474FF48052074B1A60BDE8084000F0F2B8D8FB000008FC0000F8FB0000F2
:201C400020FC000038FC0000A020024070B505F07DFD0646FFF7B4FF3A4B4FF4A0601B685E
:201C6000DB6998470121384B384A196013689B07FCD54FF40055364C00F0A0F8FFF760FFBC
:201C8000002005F0DDF9334801F0D0F8236819209B6B9847236829469B69192098472368DB
:201CA00018209B6B9847236829469B6918209847236817209B6B9847236829469B69172016
:201CC000984723681B209B6B9847236829469B691B20984723681E209B6B984723684FF4E6
:201CE00080419B691E20984723680D20DB6B9847194A2368156000214FF480729B6A0D203A
:201D00009847236802209B6B9847236829469B690220984723680B209B6B984723682946BE
:201D20009B690B20984723681D209B6B9847236829469B691D20984706B170BDBDE8704095
:201D400005F008BDB80100102820086028200840B401001054050020A020024010B50B4B65
:201D60000B481B685B68984710F00C0F044603D1B4FA84F0400910BD0422064B02201A6067
:201D800005F0ECFCB4FA84F0400910BDAC010010002000400428004008B5064B02201B68F2
:201DA0005B6B9847012809BF034B0020186800F0010008BDB80100106020084070B5104DD6
:201DC00002202B685B6998472B6802205B6B984701280446F8D12B684FF44070DB6998476C
:201DE000084B094A1C6013689B07FCD5BDE87040064B01221B6806491B680648184700BF49
:201E0000B80100102820086028200840AC010010006CDC0200200040FF22214B10B51A7076
:201E2000FFF7BAFF20B100231E491F4A0B6013601E4B4FF440701B681B6A984701211C4B85
:201E40001C4A196013689B07FCD51B4C082023689B6B984723684FF400519B69082098478C
:201E6000236809209B6B984723684FF400519B6909209847236805209B6B984723684FF43B
:201E800080419B6905209847236806209B6B984723684FF48041BDE810409B6906201847D6
:201EA000920700200428004010040542B80100102820086028200840B40100102DE9F84F77
:201EC0000746474B47481B78474A5B0003603B780D46136000F02AFB444E00F5CC54193430
:201EE00033685B0608D500F021FB001B0028F7DB00242046BDE8F88F03230220336005F062
:201F00002DFC00F013FB394E00F5CC5419343368D80737D4FFF722FF012D034638D9002865
:201F2000E6D00124A046DFF8C0A0304E05F1FF39631E3B4402E00134AC422BD213F8012FC0
:201F4000A145CAF80020F6D90220C6F8008005F005FC00F0EBFA00F5CC5B0BF1190B3368E8
:201F6000D90708D4FFF7FAFE0134AC4203460FD20028DDD1BCE700F0D9FAA0EB0B00002870
:201F8000EDDBB5E700F0D2FA001B0028BFDBAFE7002BADD00523154C0220236005F0DEFB0A
:201FA00000F0C4FA00F5CC5519352368DA0711D4FFF7D4FE044600F0B9FA0C4E00F5CC5599
:201FC000193533685B0694D500F0B0FA401B0028F7DB8DE700F0AAFA401B0028E5DB87E7A6
:201FE0001D25002000280040082800400428004038B5174B17491B78174A5B000B60106062
:2020000000F094FA154D00F5CC5419342B685A0606D500F08BFA001B0028F7DB002038BD11
:20202000072302202B6005F099FB00F07FFA0B4D00F5CC5419342B68DB0703D4BDE83840B4
:20204000FFF78CBE00F072FA001B0028F3DBE5E71D25002000280040082800400428004061
:202060002DE9F84F394B3A4A1B7882465B0043F001031360894600F059FA364E00F5CC55EF
:202080001935346814F0400408D000F04FFA401B0028F6DB00242046BDE8F88F0B230220A3
:2020A000336005F05BFB41F699162A4D09F1FF38E7B247451CDA00F039FA00EB060B2B68E7
:2020C000D9070ED4FFF74AFE01340028E2D00923214A022012680AF807202B6005F03EFBDC
:2020E000E6E700F023FAA0EB0B000028E7DBD1E70523184C0220236005F030FB00F016FA7D
:2021000000F5CC5519352368DA0718D4FFF726FE04460028BED0104BD1441B680D4E09F89A
:20212000013C00F003FA00F5CC55193533685B06B1D500F0FBF9401B0028F7DBAAE700F0D5
:20214000F5F9401B0028DEDBA4E700BF1D2500200028004004280040082800402DE9F04F10
:202160000446DFF89C91634D99F800000E46400028602078604983B008609246019300F07C
:20218000D5F95E4F00F5CC5519353B685A0609D500F0CCF9401B0028F7DB0024204603B038
:2021A000BDE8F08F032302203B6005F0D7FA00F0BDF9524F00F5CC5519353B68DB072CD422
:2021C000FFF7CCFD012E03462DD90028E5D04FF001082644484F494D444406E0FFF7BEFDE7
:2021E000B44203461FD00028D7D014F8013B02203B60C5F8008005F0B1FA00F097F900F58B
:20220000CC5B0BF1190B2A68D007E7D500F08EF9A0EB0B000028F6DBBFE700F087F9401BDB
:202220000028CADBB9E7002BB7D00B2241F6991599F800302F495B00304C43F001030B60BB
:202240000220226005F08AFA019BAAF10206DFF8A8801E440AF1FF37BE421BD000F066F956
:2022600000EB05092368D9070DD4FFF777FD002893D00923D8F80020022007F8012F236034
:2022800005F06CFAE8E700F051F9A0EB09000028E8DB82E70523194C0220236005F05EFA73
:2022A00000F044F900F5CC5519352368DA071BD4FFF754FD044600283FF46FAF0E4B019A34
:2022C0001B6892440AF8013C00F030F90B4E00F5CC55193533685B067FF560AF00F026F902
:2022E000401B0028F6DB58E700F020F9401B0028DBDB52E70028004008280040042800408C
:202300001D2500202C4B10B504461970FFF744FD00284ED0294B1A78A24249D0002228483A
:2023200028491C7002600A601B782BB3012B1AD1254C4FF4C041236808209B699847236876
:202340004FF4C0419B690920984723680922DB6C08211E489847236805209B6B98472368A2
:2023600006209B6B9847BDE81040194B01221B6818491B6815481847134C4FF4C041236885
:2023800005209B69984723684FF4C0419B6906209847236806220521DB6C0C48984723687F
:2023A00008209B6B9847236809209B6B9847DAE710BDFFF703FDADE71D2500209207002044
:2023C0000428004010040542B401001000200040AC010010006CDC0210B5064C0420236844
:2023E0005B699847236804205B6B98470128F9D110BD00BFB80100100020002170B51B4AD3
:202400001B4BC2E900011B6804205B6B9847012801D0FFF7E1FF164B00201B68DB69984767
:202420000121144B144A196013689B07FCD5134A13491368096823F4807323F00103114C33
:2024400013600B682046104998470423312640F22120012223600D4D0D4903F1864303F5FC
:2024600010132E6008601A6070BD00BF98070020B801001028200860282008400C000140C8
:20248000C801001000000140002100043C0001400800014010B40949094A0B68146808686F
:2024A0008342FAD1DA010023064902EB5462C1E9002310BCD1E90001704700BF0820094061
:2024C0000C2009409807002010B50B490B4A0B68146808688342FAD1DA010023084902EB2F
:2024E0005462C1E9002302F049FD00B910BDBDE8104002F023BD00BF082009400C2009402F
:202500009807002010B505F021F9044B1C6808B1204610BD05F01EF9204610BD08200940B9
:20252000704700BF0146012000F052B805F02EBB2DE9F04105F00AF90124002580464FF453
:2025400080314FF480701A4E1A4B1B4F32683D601C60186019601368284623219847336815
:2025600020461B6824219847336825211B6802209847124A1249136843F4E02313600D609D
:2025800005F004FB0F4B1049104A1B6800F50070086014603C601B6914209847B8F1000F8B
:2025A00001D0BDE8F081BDE8F04105F0D3B800BF840100100420094000002443002009404D
:2025C00008200940B00100101C200940A0022443431E012B10B416D9042812D100231A4669
:2025E00010F004001CBF104C216013B101210F4B196012B101220E4B1A6010B101220D4B71
:202600001A6010BC7047012808D103460A4A116010F0020204D0094C2160E1E70023F7E736
:20262000002BEED01046E1E72020094080022443A0022443C0022443182009401C200940E9
:20264000014B1868704700BFD008002008B5FFF76DFF184B1860FFF737FF174B1B686BB911
:20266000164B1B68E3B9164B1B6833B100204FF480321449144B08601A6008BD4FF4807265
:20268000114B1A6005F082FA00F205200F4B20F4FF7020F001001860084B1B68002BE2D0C3
:2026A000002001220A49084B08601A6002F038FED9E700BFD0080020A000244380002443C2
:2026C000C0002443C0022443042009401C20094080022443012203490348044B08601A60E4
:2026E000704700BF00000840FFFF0F00000C084038B505F02BF8114AB0FA80F01368012B9A
:202700000AD001230E4C0F4D0F49104A400925600B60136068B938BD0D4C0949094D14601C
:202720000D60094C0949400923600B6013600028F1D0BDE8384005F00DB800BF000C084008
:2027400000000840FFFF0F000C0008400401004351E5CC1A012203490348044B08601A6081
:20276000704700BF00000840FFFF0F000C00084008B5064803F0B4F930B10121044B054AEE
:20278000196013689B06FCD508BD00BFD4080020000222431410094070B5054604F0D6FF46
:2027A0000B4C294606460B4803F09CF9FFF7E0FF236868681B689847236868689B6898475D
:2027C0001128F9D106B170BDBDE8704004F0C2BFA0010010D408002038B598B100221349E7
:2027E00013480B68134D144C006823F4C0530B602A602260C36801209847104A13689B06A1
:20280000FCD438BD04460E4803F06AF90028E5D005C814430028FBD1002CDFD0034A136865
:2028200023F4C05343F40063136038BD04100940A0010010800122430002224314100940A4
:20284000D408002038B5054604F080FF04462946054803F08FF90020FFF7BEFF04B138BDD3
:20286000BDE8384004F076BFD4080020F8B50546C0B10078C0B1C9B12C460D44C4F10107CA
:2028800004E014F8010F38B1AC4205D000F056F9631C07EB0406F4D100F064F90128FBD0CC
:2028A0003046F8BD0646F7E70646F5E70E46F3E710B40D4B0D4C1A780133FF2A11D1A34242
:2028C000F9D10B4C59B101392144013800E019460B4613F80129A14200F8012FF7D110BC91
:2028E0007047014CEEE700BFC8FF0100D0FF0100F012005038B50C4D02202B685B699847B8
:202900002B6802205B6B984701280446F8D12B684FF40070DB699847044B054A1C60136823
:202920009B07FCD538BD00BFB801001028200860282008402DE9F04340F2F275DFF8DC8052
:2029400083B0FFF7D7FFD8F800302A4EDB682A4898473368294C5B69152098472368DFF822
:20296000C090274F23F4FE63D9F8002023F0020323603D60D36B1D2098474FF0FF334FF0E6
:2029800000502049D9F8002008600093D2F840901C211D221848C847D8F800206023D2F8D0
:2029A000048019494FF4E1321348C047142140F2011340F2013C154A15481160026815499A
:2029C00042F0100202600868134A002818BF634613603D600B6853B115202368326843F0C8
:2029E00050032360136903B0BDE8F043184703B0BDE8F083B0010010001000403810004037
:202A00004410004090200240006CDC02341000402C100040D808002030100040D001001085
:202A2000B401001008B5064B02201B685B6B9847012809BF034B0020186800F0010008BDE4
:202A4000B80100106C20084038B50446FFF7EAFF18B1264A13681907FCD4032C03D0244BAE
:202A60001B6803B138BDFFF7DDFFA0B1214B22481B68DB689847214B15201B685B699847C5
:202A800040F2F2701E4A1F49136823F4FE6323F00203136008601C4D4FF400702B681B6AB8
:202AA0009847032C16D00121184B194A196013689B07FCD51D2000F0D5F91C2000F0D2F9E1
:202AC0004FF0FF3000F0CEF9BDE838404FF0FF3000F0C8B92B684FF400709B6A98472B6818
:202AE0004FF400701B6B9847DDE700BF18100040D8080020D001001000100040B0010010E1
:202B00003810004044100040B8010010282008602820084010B504F019FE0446054800F039
:202B200085F90022044B1A6004B110BDBDE8104004F010BE68050020D808002010B5044657
:202B4000FFF770FF38B1054B2146BDE810401B680348DB691847FFF7EDFEF4E7D00100106D
:202B60000010004008B5FFF75DFF18B1024B1868C0F3C00008BD00BF1810004070B5FFF7E6
:202B8000B9FE40F2F2710C4B0C4A1B68116013F0500F0DD00A4C0B4E0B4D06E03368284613
:202BA0001B699847094B1B681BB92368DB06F5D570BDC0B29847EFE7401000404410004059
:202BC00018100040D001001000100040D8080020034A136823F00403136030BF704700BFA2
:202BE00010ED00E070B504F0B1FD02F053FB18B1BDE8704004F0AEBD7D4802F071FF022427
:202C0000054648B16B6823B19847844228BF0446E4B22D68002DF5D1FFF788FC754B06464F
:202C20001B686BB3744B1B681B1A022B3ED4A3F28F23002B24DA022C22D102F09FF930B33F
:202C4000012402F0A3F90546FFF724FC2D1A002DCEDDFFF7F5FC00EB45218B1BA3F28F231C
:202C6000002B2FDA013C012CC2D88B1B082B26D406F58036731A31EA230128BF314608E086
:202C800002F07CF90028DCD1012C40F0A58006F580310220FFF79CFC584A136823F00403E3
:202CA000136030BFBDE8704004F054BD002C00F0988002F063F900289AD00024C1E706F181
:202CC0000801E6E7012CD0D0022C91D12046FFF77FFC474802F004FF044600286CD006258D
:202CE000A3680BB1022098472369246825EA0305002CF5D1FFF72EFD6B0760D4002D61D1C5
:202D000000F080F90020FFF767FD3D493D4A0B683D4823F003030B601368016843F00F031E
:202D200013608B69392098470023384A38491360184613600B6004F0A1FD062D48D0354CC1
:202D4000354D364E2B682368326823F00303236053680321324898472B4B1B689B6B984703
:202D60002B6804F0A3FE00212E4A336811602C485B6801219847012123682B4A43F00303F3
:202D8000236011602B6804F0C3FEFFF7F1FCFFF79BFBFFF7DFFC164802F0A2FE044628B1A4
:202DA000E36803B198472468002CF9D104F0D2FCBDE8704004F0CEBCFFF7CCFC0625002213
:202DC000194B1A60104B28461B689B69984797E7022004F0C7FCB2E7022C7FF409AF711E0E
:202DE00074E702F0CBF800287FF42BAF00E700BFDC080020800224431820094010ED00E05D
:202E00000010094008100940B80100104010094020042243242208402C200940D801001001
:202E200000400340800104430C4009400146014802F058BEDC0800200146014802F09ABE3C
:202E4000DC08002010B5054802F046FEBDE81040034B20211B6803201B681847DC08002016
:202E600084010010431C0ED010B5074B04461B684FF4C0421B68002198470022034B43EA37
:202E800084031A6010BD7047B4010010001A4442024B1868186002F065BD00BFE0200240EE
:202EA00070B51B4B0C461B6805465B68984714F00C0320F0E06222F4EC2207D0042B1DD049
:202EC000082B21D00C2B08BF42F4403214F003030DD142F4C04223060D4B2846BDE87040C4
:202EE0001B6848BF42F480221B6800211847022B07D0012B08BF42F48042ECE742F4003243
:202F0000E4E742F40052E6E742F48032DEE700BFB4010010094B1968C140CA0706D4084B8C
:202F20001B6823FA00F000F00100704753F8502C22FA00F000F00100704700BFD0200240ED
:202F4000C02002400022412300B585B002A8CDE90223FFF721FC042004F0F4FE032805D13C
:202F600002A8FFF76FFC05B05DF804FB0321042004F0BCFE042004F0E5FE0328FAD10090C6
:202F80001C234FF040520021044804F031FC02A8FFF758FC05B05DF804FB00BF00A00C40EB
:202FA0000022412300B583B06846CDE90023FFF7F3FB012004F0C6FE012803D0012103201E
:202FC00004F094FE6846FFF73DFC03B05DF804FB0022412300B583B06846CDE90023FFF79C
:202FE000DBFB012004F0AEFE012803D0044B986B04F098FB6846FFF725FC03B05DF804FB99
:203000004800001010B54123002482B06846CDE90043FFF7C1FB0320214604F067FE01207C
:2030200004F090FE20B96846FFF70CFC02B010BD044B986B04F076FB6846FFF703FC02B0FE
:2030400010BD00BF4800001070B50388044653B1B3F52F7F03D182290AD0012070BD00236E
:203060002380032070BD4FF42F732380012070BD094B0A4E1D69FFF76DFB03F08BF903F08D
:2030800043F98021A847002880B2ECDD03F036F9F3689847EFE700BF98FC00009CFF000021
:2030A000024B186800F00100704700BF9C21084038B510F0030305460C4602D102881105D4
:2030C00008D404F043FB1B4B1B68DB0714D450B3002038BD438004F039FB164B1B68DA0767
:2030E000F5D52B8813F4405F06D003F44063B3F5006F04BF104B1D60104B11491D600B68E6
:203100004CF25032236003E00B68013A2360DED013F0FF0FF8D050B12078A0F10100B0FAFC
:2031200080F0400938BD04F015FB0020D1E704F011FBF1E79C210840E008002000100440CC
:20314000041004400A4A01E0013A0ED0438803F44063B3F5806FF7D1428802F44062A2F50C
:203160008060B0FA80F0400970471046704700BF20A1070030B583B004F0E8FA254C054617
:20318000236819201B6A9847236812201B6A9847236819205B699847236812205B690834C2
:2031A0009847236801205B699847236801205B6B98470128F9D11849184B194A0860186096
:2031C00013689B07FCD50023124C16481649226803600B60136919209847236812201B6996
:2031E0009847A5B140F2FF350024104B104A114911480D60046001A91A601048FFF758FF0E
:20320000A0F10100B0FA80F0400903B030BD04F0A1FAE7E7B00100102C20084028200860B7
:203220002820084010100460141004600010044051000706000004601C1004400100060461
:2032400010B586B01422002101A80CF0D1FB012140F60A0214489DF81130046861F303034F
:2032600001A869468DF811300594ADF80420FFF71FFF012815D10D4801E001380FD0BDF8A8
:20328000063003F44063B3F5806FF6D1BDF8060000F44060A0F58060B0FA80F0400906B023
:2032A00010BD002006B010BDF008002020A1070000B587B01422002101A80CF099FB012120
:2032C00040F609029DF8113001A861F3030369468DF81130ADF80420FFF7EAFE012803D0BC
:2032E000C0B207B05DF804FB104801E00138F8D0BDF8063003F44063B3F5806FF6D1BDF87F
:20330000063003F44063B3F5806F0BD1084B01201A78002AE5D1074A05991870116007B0E5
:203320005DF804FB002007B05DF804FB20A107001E250020F008002030B587B004F006FABB
:20334000324C0546236819205B699847236812205B6998472E4B1B68DA072AD4FFF7A8FF65
:20336000002401212B482C4B2C4A0460196013689B07FCD52A4C012023689B69984723684C
:2033800001205B6B98470228F9D1204C192023681B6A9847236812201B6A984723681920FA
:2033A0001B699847236812201B69984755B307B030BD00231B491C4A0B6002A8194613600A
:2033C00010220CF015FB012140F60D029DF8153002A861F3030301A98DF81530ADF8082029
:2033E000FFF766FE0128B9D1104A01E0013AB5D0BDF80A3003F44063B3F5806FF6D1BDF829
:203400000A30ABE704F0A6F907B030BDB00100109C2108402C20084028200860282008400F
:20342000B8010010101004601410046020A1070008B504F0E3FB052803460CD0032805D00E
:2034400068B903220A4B01201A6008BD0222084B01201A6008BD064A0120136008BD0128C8
:2034600001D0002008BD0521014A116008BD00BFD021084008B5FFF77DFE012804D1FFF7D5
:20348000DFFE012800D108BDFFF756FF002008BD08B5FFF70DFFFFF7D3FE012800D108BD1B
:2034A000FFF74AFF002008BD70B5164B164A197812680029154C18BF0024D30700D470BD97
:2034C00004F044F900210646114A1248124B134D10601C602B6842F8081C1B6A1920984762
:2034E0002B6812201B6A98472B6819201B6998472B6812201B699847002EE0D1BDE8704018
:2035000004F028B9202500209C2108400000C080181004600000408014100460B001001097
:20352000084B1B7833B1002002460749074B0A6018607047064B0749074A002814BF1846D3
:203540000846F2E72025002010100460141004600800C0800200C0800000C080044A054B6B
:203560001178054A002918BF00231360704700BF202500200000C08014100460014B18686E
:20358000704700BFE008002038B5044615460A4600210CF02DFA0122637B258062F3030386
:2035A000637338BD014B1860704700BFE408002038B5064B064C1D68064A00234FF43441BA
:2035C0000548256001F068FB012038BD04300440EC0800205D360000F80800201A4B1B6888
:2035E00083B32DE9F0419B68984710B90020BDE8F08104F0ABF8154B804600201F680023E6
:20360000134E17F18044326840EB00059D4208BF944206D33760B8F1000F0ED00120BDE86B
:20362000F081FEF783FF0B4A0B4913680860013313603760B8F1000FF0D104F08BF80120C7
:20364000BDE8F08100207047E408002004300440EC080020F4080020E808002070B5134B36
:203660001B68B3B19B689847D8B9114C236A984701280ED1FFF7B2FF636A0546984745B18B
:20368000BDE8704000230B4A4FF434410A4801F003BB0023BDE87040064A8021064801F0FC
:2036A000FBBAFFF79BFF0546E9E700BFE408002098FC00005D360000F8080020F8B5224E7B
:2036C0003368002B3DD09B680546984728BB1F4C236A9847FFF782FF636A98471C4BB5F100
:2036E000404F1C6820D8002033681A49B3F90C600968F717721A67EBE173561943F100072E
:20370000301847EB0401090241EA106143F60952002300020BF0D6FEF8BDFFF75FFF0C4B9B
:20372000B5F1404F1C68DED9FEF700FF0A4B1B68C3F17E4303F57203C34248BF04F1FF3437
:20374000D1E71846F8BD00BFE408002098FC0000F4080020F0080020E808002010B5104BDB
:203760001B68DA0704D4FFF705FD012800D010BD0C4C23685B0204D46FF00042094B1A60C8
:2037800010BD0122084B09481A7001F0B9FD6FF480036FF000422360024B1A60F0E700BFFD
:2037A0009C21084010100460212500207C05002008B5124B1B68D90707D4114804F04CFF89
:2037C000FFF7D8FC012800D008BD03F0BFFF0D4B1A6812020BD40B4B1A6812F00A0F1CBF15
:2037E0006FF00A021A60BDE8084003F0B3BF6FF4000205481A6001F083FDECE79C2108401D
:2038000050FC0000101004607C050020014B1878704700BF2225002008B5FFF741FC30B1AD
:20382000034B5888A0F10200B0FA80F0400908BD1C09002030B583B0FFF732FC154C10B1FC
:203840006388022B08D001A91248FFF731FC012805D0002003B030BD012003B030BDFEF7DD
:2038600065FE6388022B0DD06FF03F052D1A04E0FEF770FF6388022B04D0FEF757FEE8425E
:20388000F6D46388A3F10200B0FA80F0400903B030BD00BF1C09002008B5B4290A460146A5
:2038A00028BFB42202480BF0C7FF002008BD00BFF20B002010B5012488B002A840F6020279
:2038C0001821FFF761FE104A9DF8183011680F4A898823F00F03ADF81A1002A801A98DF873
:2038E00018308DF816400792FFF7E2FBA04202D0002008B010BD02A8FFF724FC001BB0FA5B
:2039000080F0400908B010BDCC050020A005002008B5FFF7CFFF012801D0002008BDFFF75D
:2039200089FFC0B208BD00BFF8B50E4D00200E4F2C680E4E06E02379022B06D024682B68F0
:20394000A34209D02379032BF5D13B782BB124682B680120A342F5D1F8BD304601F0D0FCB7
:203960000120EBE7E40B0020202500207C05002030B583B0FFF702FE0446FFF791FB08B9A4
:2039800003B030BD01A90E48FFF792FB0128F7D1FEF7CCFD638803F44063002BF0D16FF085
:2039A0003F052D1A06E0FEF7D5FE638803F44063002BE5D1FEF7BAFDE842F4D4E0E700BF44
:2039C000010001040B280BD00C2801D001207047042A08D139B10A4B00201B680B607047EB
:2039E000082A00D109B902207047064A4B1E073112F8010903F8010F8B42F9D100207047AB
:203A0000180900204B09002008B5FFF749FB30B1044B5B88022B14BF0220012008BD0220BD
:203A200008BD00BF1C09002000B585B0002102A808220BF0DDFF42F2034302A801A9ADF894
:203A40000830FFF735FB20B19DF90A30803303D0002005B05DF804FB9DF80C0000F00C001B
:203A6000A0F10400B0FA80F0400905B05DF804FB30B583B0FFF714FB18B1204C6388022BDB
:203A800002D0012003B030BDFEF750FD1C4D2D1AFFF706FB60B1FFF7C7FF48B1FEF746FDAC
:203AA000C54205D5FEF756FEFFF7FAFA0028F2D101A91448FFF7FCFA6FF03F05FEF736FD4A
:203AC0002D1AFFF7EDFA60B1608802280AD1FEF72DFDC54205D5FEF73DFEFFF7E1FA00289B
:203AE000F2D1608842F202439842CAD042F20743C01AB0FA80F0400903B030BD1C0900208E
:203B000000FEFFFF010001040B2810B502D00124204610BD082A13D191B1114A01F10803D1
:203B200013F8010D8B4202F8010BF9D1FFF7B8FA18B10C4B5B88022B05D00024204610BDCB
:203B40000224204610BDFFF793FF012814BF03240024FFF76FFE012818BF0324D8E700BF35
:203B6000440900201C09002030B585B0FFF798FA20B3144B5D88022D20D142F2034402A895
:203B8000082200210BF034FF9DF80C3065F301038DF80C309DF80C0000F00303022B0ED11B
:203BA000082200210DEB02000BF022FF01A902A8ADF80840FFF77CFA0028EBD1FF2005B03F
:203BC00030BD00BF1C09002008B5FFF71FFE012814D0FFF765FA88B1094B5B88022B0DD147
:203BE000FFF75EFA30B9FFF7BFFFFF2806D0C0F3801008BDFFF718FF0028F4D0002008BDF7
:203C00001C09002010B5FEF791FC194C241AFFF747FA60B1FFF708FF48B1FEF787FCC442B9
:203C200005D5FEF797FDFFF73BFA0028F2D1FFF71FFFFFF781FBFFF7E5F900220D4B0E48E1
:203C400019794280022900D11A710C4B1A79022A04BF00221A710A4B1A79022A04BF00220A
:203C60001A71084B1A79022A04BF00221A7110BD00FEFFFFB40900201C090020400A0020E2
:203C8000CC0A0020580B002008B5FFF7BFFD012801D0FFF7B7FF012008BD00BFF8B5FFF74E
:203CA000B5FD01282ED0FFF77BF9FFF7F9F918B11A4B5B88022B25D001258424184A194815
:203CC000577946791849194B65F3830765F38306577146714F795E7965F3830765F38306EC
:203CE00010600160C480D480CC804F710B601A60DC805E71FFF76CF9FFF7BCFBA84203D07A
:203D00000020F8BD0120F8BDFFF7CEFBFFF7D2FD0128F5D1BDE8F840FFF78CBD1C09002024
:203D2000B4090020400A0020CC0A0020580B002010B584B0072800F2B080DFE800F01E6242
:203D40002731345D6D04564C2177FFF7A9F918B36388022B20D1FFF78BFE01280CBF0024CC
:203D60000324FFF795FB01287ED0FFF763FD012818BF0324204604B010BD012900F087809A
:203D8000002974D00224204604B010BD444C6186FFF786F90028DBD10024204604B010BDDE
:203DA0003F4C2186D1E731F00703EBD147F605733B4CC1F34000227E61F3000260F3820235
:203DC0002276208B374A03401078C1F3800143F00203814223831170B7D104F11801022243
:203DE00031480BF029FD03A93048FFF761F900280CBF03240024BDE731F00103C2D1CCB29D
:203E0000B8E7A1F10B030F2BBCD8254CC9B2A37B8B42C1D0A17398E701F115031A2BB1D8C2
:203E20006FF014030C24224A01E052F83430994227DD14F1FF34F8D2FFF732F90028ABD03C
:203E400003A8042200210BF0D3FD1022184B03A803EBC404A38802A9ADF80E30ADF80C2025
:203E60000024FFF725F985E7FFF7B8FB7DE70191FFF7CCFC01288FD0FFF7C4FE01990C4615
:203E800078E70B4B0B4A03EBC4031360D4E7FFF705FF012880D003246CE701246AE700BF13
:203EA0001C090020202500209E0900209C090020E0FC0000CC050020B9B170B50C4684B0EA
:203EC000172800F2B280DFE800F09E99AB2F180C1283504A45B0B0B0413D3834B095918DC2
:203EE0000C890020086004B070BD022070475C4B00201B681B680B60F5E70023594A0B60A6
:203F0000137E03F001030B60127E520744BF43F002030B60544B1B78002B57D00B68002008
:203F200043F004030B60DEE74E4B00201B8E0B60D9E7052300200B60D5E76FF01403002085
:203F40000B60D0E71A2300200B60CCE70B2300200B60C8E7454B00201B780B60C3E7444B75
:203F600000201B785BB20B60BDE7FFF799F800285DD03C4B5B88022B59D10026082202A8DB
:203F800000210BF035FD02229DF80C3042F2034562F383038DF80C300BE0002102A80BF015
:203FA00027FD01A902A8ADF80850FFF781F8002848D09DF80C2002F00C02082AEDD0002EFF
:203FC00045D19DF90A302360803347D000208AE7244B002093F91C300B6084E71823002085
:203FE0000B6080E70A2300200B607CE7202300200B6078E7032300200B6074E7194B002017
:204000009B7B0B606FE7FFF74BF830B1154B5888A0F10200B0FA80F040092060002062E790
:20402000104B00205B8E0B605DE701205BE7FFF735FE012808BF0646A0D06FF07F03032031
:20404000236050E780238DF80A30002EF5D0FFF7DDFB0128B5D0FFF7D5FDB2E7032042E728
:20406000CC0500201C090020202500201F2500209307002070B588B00546FFF711F818B117
:20408000344B5B88022B1ED0FFF708FE012816D10446FEF74BFA6FF01F031E1AFFF700F86C
:2040A000A8B1FFF7C1FC01280FD1FEF73FFAC642F4D4002C47D10225284608B070BD012509
:2040C000284608B070BD0024E3E70028F1D1182102A842F60142FFF757FA00221E4BEDB2E6
:2040E0008DF81750069304929DF81430012062F303038DF81430FFF713FA02A801A9FEF73B
:20410000D7FFD8B1154D2A7800E0CAB1BDF80A3003F44063002BF8D0BDF80A50ADB2B5F54D
:20412000105518BF0125FFF719FA002CC8D0FFF76DFB0128C4D0FFF765FDC1E70125F2E736
:20414000FEF746FDDFE7FFF761FB0128B3D0FFF759FDB0E71C090020F20B002020250020B9
:2041600010B50C46B42C2246014628BFB42204480BF062FB2046BDE81040FFF77BBF00BFEE
:20418000F20B002010B5FFF741FB012823D0FEF787FF18B1214B5B88022B1FD0FFF77EFDCF
:2041A0000128044611D1FFF7DFFCFF2805D000F0030010F1FF3418BF0124FFF727FB012879
:2041C0000AD0FFF71FFD204610BDFFF71FFB012801D0FFF717FD0124204610BDFEF7A6F9C0
:2041E0000F4C241AFEF75CFF60B1FFF71DFC48B1FEF79CF9C44205D5FEF7ACFAFEF750FF74
:204200000028F2D1FFF7B0FCFF28E4D000F0030010F1FF3418BF0124DEE700BF1C0900204A
:2042200000FEFFFF2DE9F043324F83B0814688463E68FEF77BF9304D2D1A03E0FEF776F9D6
:20424000C5421AD53479022CF8D0032C10D139680E7AF6B2062E02DDB51F45450FDD002562
:2042600028460B680D720D713B6003B0BDE8F0830025284603B0BDE8F0833479E5E70931E9
:2042800048462A460BF0D8FA04223968F31CCB5CDFF870905BB289F80030331DCB5C05360F
:2042A000DFF8648003F03F030DEB0200314488F800300BF0C1FA0198FFF700FA0F4B104AFC
:2042C0001B7810604BB1002228463B6819681A7239601A7103B0BDE8F08399F800100420EB
:2042E00049B289B202F0AAF898F80010204602F0A5F8E8E7EC0B0020FAFEFFFF202500201E
:2043000018090020930700201F2500202DE9F0410025394F3948FEF789FDFFF789F8384659
:204320008C2229460BF064FB8C22294634480BF05FFB8C2229463348334C0BF059FB8C2204
:20434000294632480BF054FBDFF8E480304B314E2946802220461F60C8E900750BF048FB9B
:20436000304642F202024FF2F0034FF0A60C012742F6010E20F8022BE26827491340A2699E
:2043800084F81CC01140254A94F837C01A43244BE260244A0B4367F3030CC4F800E0A361AF
:2043A00084F837C004F118016261C4F8108002226560A560E583C4E90855A5630BF03CFAD4
:2043C0003A4604F11A01301D0BF036FAFFF766FCB84203D02C462046BDE8F081044612481E
:2043E000FFF7E0F8FFF7E4F82946104800F0C4FE2046BDE8F08100BFB40900208C050020DB
:20440000400A0020CC0A00201C090020580B0020EC0B00209C090020007C008000011AB1D0
:204420000702FF6FA4090020D0FC00007C050020E40B002008B500F08BF880B208BD00BFD6
:2044400000F014B938B50C4D04202B685B6998472B6804205B6B984701280446F8D12B68D4
:2044600040F20140DB699847044B054A1C6013689B07FCD538BD00BFB80100102820086071
:2044800028200840034B1B68002B0CBF02200120704700BFA80C0020F8B503880446002B8B
:2044A0002ED0B3F5847F05D1184B1B788B4205D00120F8BD002323800320F8BD144D2B687D
:2044C00073B1144B144A1B6812685B68022017460026984730182B6847F1000198472E6036
:2044E0000E4B40F201401B689B6A984701210C4B0C4A196013689B07FCD50B48FEF79CFC73
:204500004FF4847323800120F8BD00BF94070020A80C0020CC01001004800240B80100102E
:204520002820086028200840D005002008B5064B04201B685B6B9847012809BF034B00208D
:204540001868C0F3400008BDB80100103C2008402DE9F041284B1B6883B12848002302466A
:2045600012F8011B002939D10133042BF8D100274FF0000838464146BDE8F081FFF7D6FF62
:20458000002836D01E4A1F4B12681A420ED11E4A0121134611601A68002AFCD110464FF400
:2045A000807103F0A3F80122184B1A6003F0CEF80646134A1368DB07FCD5154B154A1B68AA
:2045C00012685B680220154600249847271845F10008002ECED103F0BDF8CBE700210E4A01
:2045E000C15402EBC303D3E9007838464146BDE8F081FFF727FFC5E7A80C0020AC0C002030
:204600000880024001000080F09F0240A8025042CC01001004800240A007002038B50024C7
:204620000D4D0E4A2C6013680D4923F00103096813604B6931209847224620464FF480718A
:2046400003F054F80122074B2A6019782246BDE83840054800F028BEA80250420C800240D9
:20466000B001001094070020E405002010B5074C2378802B00D010BD00F076FD00212070A6
:204680000348BDE8104000F077BD00BF94070020E405002008B503F059F8003018BF01200A
:2046A00008BD00BF80F31088704700BF827A044B03EBC2035B68181AB0FA80F040097047E8
:2046C000B00C0020474A837A02EBC303D3E84F1F11F0FF0F03D0BFF35F8F032070472DE922
:2046E000F041012184B0C3E8471FBFF35F8F002F76D10446817A3C4B02EBC10250601B685D
:20470000C078DB6B394E9847394DA37A326805EB031352695868B0469047A37AD8F800201D
:2047200005EB03135868536B984701280646F4D1A37AD8F8002005EB0313D26998689047B7
:204740002C4B2D4A1E6013689B07FCD50320A37A2A491B01EA58536923F00F035361A37A3C
:204760001B01EB581862A37A096822891B01E8580E683AB1227A637A002A2CD0002B14BFCD
:2047800003270227082163683A46CDE9003100231B49B047144A2178A37A12681B010091B2
:2047A000566CE858A2784FF0FF336178B047A37A124E1B01EA58536843F002035360A37AFE
:2047C00032681B01E85803A9136998470028F6D104B0BDE8F081002B0CBF03270127D1E723
:2047E0000320F5E7B00C0020B4010010B801001064FD00002820086028200840C4010010DA
:20480000006CDC0270B5214D837A05EBC3025268904201D0042070BD1D491E4A096802EB2F
:20482000031304460A6A9868904701211A4B1B4A196013689B07FCD5194E607833689B6B9A
:20484000984733684FF4005160789B6998473368A0789B6B984733684FF40051A0789B69AC
:204860009847336820789B6B9847336820784FF400519B6998470020A37A05EBC3035860EC
:20488000A37ABFF35F8F05F8330070BDB00C0020B801001064FD00002820086028200840B8
:2048A000B40100102DE9F04F304D877A85B005EBC7056C68A04203D0042005B0BDE8F08FE9
:2048C0009A462B4B01912B4E90461A6806EB07130446526B58689047012845D1A07A264AAD
:2048E00000013318DB6812681A423DD0DDE90E329F184745B8BF4746002F33D0D8BF0DF132
:204900000C0B24DD0025DFF874900DF10C0BA845D4BF0021019B3058C8BF595D0391D9F803
:2049200000305B689847A17AD9F8003009017058DB68594698470E9BAB42C4BF039B0AF83D
:204940000530A07A0135AF424FEA0010DFD10B4D01E0A07A00012B6830581B695946984777
:204960000028F6D10020A8E70520A6E7B00C0020B801001064FD000078200840C40100102C
:2049800038B5664CFCF752FBFDF736FD00F0C6FC00F016FC0021624800F0EEFB00F042F98E
:2049A000FDF798FE00F016FA00F0F2FCFCF77CFB01F090F901F08CFD00F020FB2368022B6E
:2049C00023DC0822574958480AF036FF0021574800F0D2FB4FF0FF3004F03EFD236805464F
:2049E000022B00F38180FCF775FB514800F0C4F8FDF77EFE00F0FEFB0446FDF7ABFE14F0AA
:204A0000FF0FF7D1FCF7D2FBF4E74A4A4A494B4803F022FE4A4803F01FFE2368022BD0DD51
:204A2000444A4549454803F017FE464B4648196803F012FE2368022BC3DD3E4A3E493F4834
:204A400003F00AFE414B4248196803F005FE2368022BB6DD374A3849384803F0FDFD3D4B8C
:204A60003D48196803F0F8FD2368022BA9DD314A3149324803F0F0FD4AF6CD31374803F00B
:204A8000EBFD2368022B9CDD2A4A2B492B4803F0E3FD1A21324803F0DFFD2368022B90DD26
:204AA000244A2549254803F0D7FD2E4B2E48198803F0D2FD2368022B83DD1E4A1E491F4846
:204AC00003F0CAFD294803F0C7FD2368022B7FF778AF144800F054F92368022B7FF771AFB8
:204AE000234803F0B9FD6CE7124A1349134803F0B3FD204803F0B0FD2368022B7FF773AF41
:204B000055B1A81C00F02CF92368022B7FF76BAF174803F0A1FD66E72846F3E704060020BF
:204B2000080600207025002014270020DC0600204C01010084FD000060FB000068FB0000A8
:204B40008CFD0000F0000100C4FD0000DCFF0000D4FD00009CFF0000E0FD0000ECFD00000D
:204B600008FE00000A25002028FE000038FE00008001010050FE000010B50446006830B15C
:204B8000002100F0F9FA54F8040F0028F8D110BDF0B5038883B0054633B14A2B18D1882953
:204BA0001BD0012003B0F0BD1B4800F099FF044630B1A168201D00F0C7F92468002CF8D1FC
:204BC0000122164B1A704A2301202B8003B0F0BD002303202B8003B0F0BD0F48019200F003
:204BE0007FFF04460028EED0019A031D9A4205D02468231D002CE6D09A42F9D1084E21468A
:204C0000054800F0B7FFD4E90523376832600BB1E06998473760D6E7C00C002023250020FF
:204C20004C0E002010B50024054B06481C7000F053FF2146BDE81040034800F09DBA00BFF8
:204C400023250020C00C0020F405002070B504460D48049D0078C4E90623656130B9A16084
:204C60000A482146BDE8704000F03CBF084D094B2E68201D2B6000F067F92E602146BDE84A
:204C80007040024800F02EBF23250020C00C00204C0E0020F405002010B5044C82B0246883
:204CA0000094FFF7D3FF02B010BD00BF4C0E002070B50C4B04461B782BB92146BDE87040E7
:204CC000094800F00FBF094D094B2E6804302B6000F044F92E602146BDE87040024800F015
:204CE00001BF00BF23250020C00C00204C0E0020F405002010B50A4B04461B783BB9C0E9BA
:204D000003332146BDE81040064800F033BF043000F046F92146BDE81040024800F02ABFEF
:204D200023250020C00C002038B50B4B1D785DB904460A4800F0D4FE10B90AE0006840B1C7
:204D40008442FBD1002038BD0430BDE8384000F00FB9012038BD00BF23250020C00C00207A
:204D600000B58BB002462821684606F007FF6946024803F071FC0BB05DF804FB84FE00001E
:204D8000F8B1F8B5002405460F4E104F54B1E3070DD5295D304603F05FFC072C10D001342F
:204DA000002CF4D12978304603F056FCF7E7384603F052FC295D304603F04EFC072CEED1DE
:204DC000F8BD034803F048BC9CFE000098FE000088FE0000704700BF10B5FDF75BFB0B4B4B
:204DE0001A68D2E9003192680B44191A52B1D2E9003423441B1A9268994228BF1946002AF6
:204E0000F5D14318024A136010BD00BFC80C0020C40C00202DE9F843038805464BB3592B99
:204E20002AD187292DD082291ED14FF000092B4FDFF8B0803C68BCB1002603E0A3682646D6
:204E400093B11C46204600F095FA0028F6D022468821E06800F028FA18B3404600F050FAE3
:204E6000A3682646002BECD159232B800120BDE8F8831A4A1360F7E700232B800320BDE820
:204E8000F883164F39680029EED0CB689A4203D014E0CB68934210D189680029F9D139606E
:204EA000E2E7E060A368BEB1B3603B68C4F808907BB1FFF791FF3C68BDE739608B68002BB4
:204EC000D2D0D3E90204944214BF194688600346F5E7034A1360C7E73B60E7E7C80C00208E
:204EE000C40C00200806002010B50446104800F007FA1049E3680A684BB142B194420FD082
:204F0000134601E09C420BD09B68002BFAD10A4BA2601B680C60E360BDE81040FFF75CBF16
:204F2000054B1B68E360BDE81040FFF755BF00BF08060020C80C00204C0E0020014800F0C8
:204F4000DFB900BF0806002010B5044600F0FCF92046BDE81040FFF7C7BF00BF10B5044633
:204F600000F0FAF92046BDE81040FFF7BDBF00BFC068B0FA80F04009704700BF024B1868F4
:204F8000003018BF01207047C80C0020024B186808B1024B18687047C80C0020C40C002050
:204FA00010B5144B04461A68824218D05AB19368984208BF13460AD02BB19A68A24206D0E3
:204FC0001346002BF9D10023C4E9023310BDA2689A60FFF701FF0023C4E9023310BD8268FB
:204FE0001A60002AF5D1044B1A600023C4E9023310BD00BFC80C0020C40C0020034A04496F
:205000009079D37903EB00230B807047702500200A25002010B541600446FDF773FA206053
:2050200010BD00BF10B50446FDF76CFAD4E90031034A0B44C01A90428CBF0020012010BDEC
:20504000FEFFFF7F2DE9F843294F3D68854249D0002D3AD02B4601E0002B36D01B68984270
:20506000FAD1002B31D0234E837B89460446D6F80080DBB100238373002D35D0AC4207D0C7
:20508000AB7BDB0704D522468721284600F034F82D68002DF2D1A3683BB14C4505D034601F
:2050A0000022832104F10C0098473D68AC4214D04DB12B68A3420AD02BB11A68A24207D06A
:2050C0001346002BF9D1C6F80080BDE8F8832B4622681A60C6F80080F7E72368C6F80080CA
:2050E0003B60F2E72B46BCE78368002BD5D1EAE7500E00204C0E002070B586687EB1044617
:2051000002200A4BA0731C6004F10C000D46B0470238012804D9832D02D00123A37370BD15
:2051200021462046BDE87040FFF78CBF4C0E0020002238B50A490B4B0C681A707CB1012589
:2051400001E024685CB1E37B002BFAD0E581204600228221FFF7D0FF2468002CF3D138BDBB
:20516000500E002027250020024B1878421C1A70704700BF2525002070B50F4D2C688442C5
:2051800006D034B1234600E01BB11B689842FBD170BD0028FCD003460A46012000211C609E
:2051A000064C987326689981184681212B60FFF7A3FF266070BD00BF500E00204C0E00205D
:2051C00030B48A250023064A064815700649074A074C03700B601360237030BC704700BFBD
:2051E0002525002026250020500E00204C0E0020242500202DE9F041214D2B78F3B9214E06
:205200003378BBB12048214F0278013B02EB4201890001327C1802F01F020270A068DBB24F
:2052200033707F5CD4F8048058B1812F1DD0827BD2071CD428781844BDE8F081FFF778FFB5
:20524000DDE7134A146854B9F4E7A37BD90704D5424639462046FFF74FFF24685CB12B7805
:20526000002BF2D0FFF764FFEFE70123837342463946FFF741FF337828781844BDE8F081FE
:20528000272500202625002024250020CC0C0020500E0020024A034B10781B781844704790
:2052A000262500202725002070B40C4D2C78202C11D00B4B0B4E1B78234403F01F0303EB1D
:2052C00043039B0001342C70F418C4E90120F154002070BC7047012070BC7047262500208B
:2052E00024250020CC0C002038B5837B034CDB07256801D5FFF700FF256038BD4C0E0020E5
:2053000018B1837B013B012B00D970470123024AC3731370704700BF27250020FDF700B916
:2053200010B5084C206858B1D0E90131002222609847236823B1BDE810401868FDF7F2B8E3
:2053400010BD00BF540E002010B541600446FDF7A1F8206010BD00BF10B50446FDF79AF861
:20536000D4E90021C2F101031844884284BF5218226010BD10B50446FDF78CF8D4E9003200
:20538000C3F10103184482422CBF0020012010BD82B0074B01AA9A42019304D9CD2103F8D7
:2053A000011B9342FBD10021024802B0FFF7E4BEA62E00201806002038B5124CFDF7CAF947
:2053C0002378114DCD2B08D0AC4202D30EE0AC4213D014F8013FCD2BF9D1AC4202D30CE0C5
:2053E000AC420AD014F8013FCD2BF9D0FDF7B2F9AC4204D22C1BA0B238BDFDF7ABF94FF60A
:20540000FF7038BDA62E00200050002070B5038804463BB1902B0ED11748FFF7A9FD70B920
:20542000012070BD4FF4A0611348FFF78DFD90232380012070BD00232380032070BDFFF74F
:20544000BBFF0E4D0E4B0646ED1AABB2984203D90C4B1B68002B03DC0748FFF77FFDE6E706
:20546000094A0A490A4803F0F7F8AAB23146094803F0F2F8F0E700BF580E002000500020C5
:20548000A62E002004060020B0FE0000B8FE000068FB0000BCFE000010B5044690F84C206A
:2054A0000346013280F84C2080212030054AFFF7F3FB054B2246BDE8104019780020FFF714
:2054C000F3BE00BF99540000A12E0020F8B5038804462BB1CB2B07D1822909D00120F8BDFA
:2054E000CB2323800120F8BD002323800320F8BDFFF7D0F8BFF35F8F0022114B1E681A60CB
:20550000BFF35F8F0F4DFFF7CDF828680028E7D00D4F03E055F8040F0028E1D090F84530F0
:2055200026FA03F3DB07F5D5FFF7FEFB0028F1D02B683A4618460221FFF7AEFBEAE700BF0E
:20554000740E00204004002089550000034A1368034303481360FFF7D3BE00BF740E0020B3
:205560002806002010B5044690F84500FDF7D2FC10B994F8440010BD01280ABF94F8440017
:20558000002080F0010010BD70B50446FFF7CCFB00B970BD04F120052846FFF7C5FB064611
:2055A0002046FFF7DFFF01280ED00028F1D1002EEFD12846FFF79EFB0D4B22463046BDE8FA
:2055C00070401978FFF770BE002EE2D000262846234684F84C60074A7E21FFF75DFB064BD2
:2055E00030462246BDE870401978FFF75DBE00BFA02E002099540000A22E00202DE9F843FB
:20560000FFF7B2FD214B224C1870FFF7ADFD214B214D1870FFF7A8FD0021204A204B107070
:205620002268C5E9013142B30126DFF880801D4FD8F80030916C92F845009B6B41F08C0909
:2056400098472368494693F84500FDF729FC2268D8F8003092F8450006FA00F23A601B6BFD
:2056600098472368A96893F8453054F8042F06FA03F30B43AB60002ADAD10B480021FFF7A2
:205680007BFDBDE8F843044800F066B9A22E002040040020A02E0020680E0020A12E002090
:2056A0004D550000E020024028060020B4010010F8B5048807466C2C0BD07E2C04D0D4B1F7
:2056C00000233B800320F8BD852936D11C4E002333601C4D1A4C05E00A282646236811D081
:2056E0007E2B25DD284600F0E3FA431CF4D16C233B800120F8BDFFF737FD134A104B10701E
:205700001C60E6E70025114A0F49D5540978013328462360FFF7C8FD0D4B2A4618688521F0
:20572000FFF7C2FD0028D2D17E233B800120F8BD06495A1CC8542260D4E70120F8BD00BF04
:20574000F80E0020FC0E0020A32E0020780E00204C0E002008B505490548802200F0A0FA64
:20576000BDE8084000210348FFF706BD040F0020FC0E00203806002010B1837A012B01D998
:2057800001207047FEF79EBF10B1837A012B01D901207047FFF736B810B50446FEF786FFD6
:2057A00030B10123E178034A8B401360002010BD042010BDA02002400123C178024A8B40AC
:2057C00013600020704700BF9020024010B584B08DF80F1018B1827A0446012A02D90120FB
:2057E00004B010BDFEF762FF50B100232046CDE9003301220DF10F01FFF754F804B010BD6B
:20580000032004B010BD00BFB8B170B5847A82B0012C02D9012002B070BD044616460D4666
:20582000FEF744FF58B10023324629462046CDE90033FFF737F802B070BD012070470320CF
:2058400002B070BDB8B170B5837A82B0012B044602D9012002B070BD16460D46FEF726FF92
:2058600058B1002200962B46204601921146FFF719F802B070BD01207047032002B070BDE6
:2058800070B50F4C0F4E257833682846DB6B98473368A078DB6B984701206378A84063B988
:2058A000094B18600123A178E2788B4012B9064A136070BD054A136070BD044B1860F1E771
:2058C000B0FB0000B4010010A020024090200240C20707D501230C4A117852788B407AB1FC
:2058E0000A4A136083070AD50123074A9178D2788B4012B1054A13607047054A1360704730
:20590000034A1360EEE700BFB0FB0000A020024090200240C20707D501230C4A1178527822
:205920008B407AB10A4A136083070AD50123074A9178D2788B4012B1054A13607047054A23
:2059400013607047034A1360EEE700BFB0FB000090200240A02002400146014800F0C2B830
:20596000840F002038B50546074800F0B9F848B10446A068284002D0636803B198472468DD
:20598000002CF6D138BD00BF840F0020014800F0A3B800BF840F00202DE9F0410488064688
:2059A000772C07D07E2C37D0A4B1002303203380BDE8F081DFF8D0802E4D98F800202E4F89
:2059C00000233B602B6012B32C4CE256002A41DB2B6832E0FFF7C8FB294F2A4B254D3A6864
:2059E00018702C60002A43D02346A046234C04F8038093680021802098472B68013357F868
:205A000023202B60002AF2D1DBB21F4A1370772333800120BDE8F0811A4B1B788B4216D122
:205A2000144D164CDFF86080134F2B683A68E15C013201F07F01E1543A6098F800200133C1
:205A400093422B60C1DB3B68002BB9D1DFE70120BDE8F0810A4A0B4952F82320097800201F
:205A6000FFF722FC0028E0D17E23012033809FE71346CAE78C0F0020880F00203825002045
:205A800028040020A42E00202825002010B40E4B1C7864B10D4A1368984213D0002303E000
:205AA00052F8041F88420BD00133A342F8D1084A0848135D63F07F03135510BCFFF720BC05
:205AC0001C46F4E70024F2E72825002028040020382500204806002000230360704700BFEC
:205AE0000068704710B404685CB1A142236819D00BB906E0134699421A680ED01C46002A29
:205B0000F8D100230B6002680AB90FE01A461368002BFBD1116010BC70472CB122600022CB
:205B20001A60EEE71A460B460260F8E70160F2E730B4056865B1A9422B6816D02C460BB9E9
:205B400006E0134699421A6806D01C46002AF8D10D60016030BC70474CB1226000221A60F2
:205B600005680D60016030BC70471A460B460260F4E700BF10B404685CB18C4212D0236822
:205B80000BB906E013468B4205D01A681C46002AF8D110BC70470B682CB12360002310BC44
:205BA0000B6070470B680360F8E700BF03682BB100201B680130002BFBD170471846704771
:205BC00000B10068704700BF10B5044642880021406809F00DFF23886288A06802FB03F200
:205BE000BDE81040002109F003BF00BF30B44588BDB141680B7863B100234A1C03E01478BE
:205C0000114601322CB10133AB42F8D1002030BC704701220A700588806803FB050030BC6F
:205C200070472846F3E700BF70B4448882685CB18A4206460BD00023058801E0914207D091
:205C40000133A3422A44F9D1FF2070BC704700237268D05C0028F8D00138D054726870BC75
:205C6000D05C704783688B4208D84288008800FB023081422CBF00200120704700207047AD
:205C80004188034649B100205B68194413F8012B02B901308B42F9D170470846704700BF83
:205CA0000023013A0160027143718371704700BF10B4817942790479521A224207D00346AE
:205CC0004A1C00682240405C9A7110BC70474FF0FF30FAE708B50448FFF776FFBDE80840BA
:205CE0000248FFF771BF00BF64060020580600200148FFF7C5BF00BF5806002038B50E482A
:205D0000FFF774FF044678B10C48FFF76FFF0546206058B100F086FA05F19C01A5F88000FB
:205D200005F1820000F066FB204638BD214602482C46FFF779FFF7E75806002064060020C8
:205D4000006800F19C01823000F054BB10B5044607482146FFF786FF00B910BD2168054800
:205D6000FFF762FF2146BDE810400148FFF75CBF580600206406002010B504460948214647
:205D8000FFF770FF00B910BD2468B4F88010204600F010FB04F19C0104F18200BDE81040F1
:205DA00000F03ABB5806002038B50F4D002818BF05460E48FFF794FE58B10446211D284610
:205DC00000F09CFB40B92046FFF7FAFE04460028F4D14FF0FF3038BD054A064B9068241A7F
:205DE000A01003FB00F038BD10FF00005015002070060020ABAAAAAA38B10368072B04D8DB
:205E00000C4A52F82330984210D00B4A1368072B0AD830B4074D5C1C03608160146045F84C
:205E20002300012030BC70470020704781600120704700BF2015002024160020F8B5064684
:205E4000174F184C184D36B309B3F3687068C91A91FBF0F14A1C01EB410118D0B86800EB64
:205E60008100FFF7ADFE88B1B968401A83100C3004FB03F30DD07168F06801FB030121B1A8
:205E8000EB5C32681341DB07DDD50846F8BD0020E7E70020F8BD3046FFF792FE3046F8BD4C
:205EA00070060020ABAAAAAA2816002010B504461048FFF715FEB8B10F4B9968401A9CB16A
:205EC00010F10C0F10D00D4B801003FB00F3E168606800FB031141B109482268C35C13418D
:205EE000DB0702D5084610BD00212046BDE81040FFF7A4BF5015002070060020ABAAAAAA35
:205F0000281600202DE9F04F744E83B0002918BF0E460546304617469846FFF745FF441CEF
:205F20001ED0002D00F08C806C68EB68224600FB04340021204609F05BFD7CB3EB686A685C
:205F4000E31A93FBF2F35A1C06D0012264492D68C85CAA400243CA54204603B0BDE8F08F72
:205F6000604C2046FFF742FE8346E0B159465E48FFF7B8FDA3680BF104003146ABEB030B69
:205F800000F0B8FA002D5BD01BF10C0F6C6840F09E8000212246084609F02AFD002420463D
:205FA00003B0BDE8F08F4146384607F05FFE0028F4D0FFF7F9FE411C49D0A16800EB40032B
:205FC00011EB830343D0494A175C002F3BD002F800B09B46424A0192454FDFF81881ABEBA8
:205FE000010A07F1200957F8043F4FEAAA0C08FB0CFCD3B19968C1B11AF10C0F15D0DA68A5
:20600000586800FB0C2080B1019A1B6812F80CE04EFA03FE1EF0010F07D08847A168ABEBA8
:20602000010A4FEAAA0C08FB0CFCB945DBD10023019A59462C4802F80C30FFF79BFD95E7A0
:2060400000235B68FFDE9B46254B0193C4E72648FFF746FD0028A1D04FF0000ADFF88C8081
:20606000244FDFF87C9002E0FFF7AAFDF8B1A168431A9B1007FB03F318F803C0BCF1000F0A
:20608000F2D119F80330CDF80490C3B1DA0748BF0CF1010C5B10F9D1BBF1000F01D0D44560
:2060A000E2DABCF1000F10D0E2468346DCE7BBF1000F3FF473AF0A4BA16801938CE7BBF1B3
:2060C000000F02D0BAF1000FCED0834684E709484FEAAB0B00FB0BF027E700BF10FF000041
:2060E000281600207006002050150020401500201C150020ABAAAAAA10B504460846FFF765
:2061000053FE84B1431C0ED06368E26803FB00233BB1064A2168125C0A4112F0010F08BF2F
:206120000023184610BD0023184610BD2816002028B311B3C3684268CB1A93FBF2F35A1C23
:206140001BD070B401240F4E0568F25C04FA05F522EA0502F254C26845688B1A93FBF5F3B0
:206160005A1C0DD001682046074D04FA01F1EA5C22EA0102EA5470BC7047002070477047B5
:206180002046F8E72816002040150020A8B191B1C2684368891A91FBF3F35A1C0BD00121EF
:2061A00010B4064C0268E05C01FA02F20243E254084610BC704700207047704740150020E5
:2061C000B0B199B1C2684368891A91FBF3F35A1C0CD0012110B4074C0068E25C01FA00F00E
:2061E00022EA0002E254084610BC704700207047704700BF4015002088B179B1C368406892
:20620000C91A91FBF0F14B1C08D0054B01EB4101986810EB810002D0043070470020704761
:2062200070060020F8B50E4D0E4C2A7823881344802B01DD0020F8BD06460B4F394609F046
:20624000FBFA0A4B29781B7870181944C9B23944228809F0F1FA287823881844F8BD00BF3A
:20626000292500200C250020381600200E25002070B4134B134D1B782C78134A2344128827
:20628000DBB213449BB21A18802A15DC013B1BB2002B0CDB0D4A591C1E181144324411F80F
:2062A000016D013B1BB202F801695E1CF7D120442870012070BC7047002070BC704700BFFF
:2062C0000E250020292500200C25002038160020084A138883420ADB10B4074980B20C88CD
:2062E0001B1A204408801380012010BC70470020704700BF0C2500200E250020014B188028
:20630000704700BF0C250020044A054B12781B7804481344DBB21844704700BF0E250020A6
:2063200029250020381600200048704738160020014B1888704700BF0C250020054B064AC1
:2063400018781278054B10441B88C0B2184480B2704700BF292500200E2500200C25002054
:2063600038B5094D094C1A220021094809F040FB2946204600F0BEF8294604F10800BDE817
:20638000384000F0B7B800BF10FF00004425002054250020002304480449054A03800B801D
:2063A0001370FFF7DDBF00BF0E2500200C25002029250020802928BF802170B500230C462C
:2063C00006460849084A094D0B8013702B80FFF7C7FF31462246064809F02EFA2C802046A3
:2063E00070BD00BF0E250020292500200C2500203816002010B50C461A22054909F01CFA81
:206400002046BDE810401022024909F015BA00BF542500204425002010B50C461A22014661
:20642000044809F009FA2146BDE810401022024809F002BA5425002044250020024B23F8FD
:2064400010100120704700BF54250020014B33F8100070475425002008B5044B0D3803EBD6
:20646000C00000F047F8012008BD00BF44250020024B0D3803EBC000704700BF44250020C0
:206480000149024800F03AB810FF00004C25002070B505460D480E46FFF722FB68B1044657
:2064A000012D0CD01DB963680BB1984730B92046FFF786FB04460028F2D1002070BDA36843
:2064C000002BF4D030469847F0E700BFB8160020054B10B51B689847044B5B689847BDE8E7
:2064E0001040034B5B68184798FC00009CFF0000DCFF0000082209F09FB900BF08B50822B1
:2065000009F068F9B0FA80F0400908BD10B50948FEF7CEFB0848FFF7C9FC48B1064C037A52
:2065200001465B0803722046FFF788FC0028F6D110BD00BF782500207C06002001460148F2
:20654000FFF7DABD7C06002080B110B50446FBF7A1FF2368C01AB0F5963F05D2207A0328BF
:2065600094BF0020012010BD002010BD00207047F8B5074615460E4600292DD002292AD101
:2065800001463748FFF7B8FD0446002837D0FBF781FF237A20602B44102BA8BF10232372A9
:2065A0000C35FBF777FF2368ED01C01AB0F5963FADB221D2237A042B35BF19230A234B217E
:2065C0005A2103FB05F5A388264A01FB0353A2FB03235B09A380F8BD01462148FFF78CFD2D
:2065E000044660B1FBF756FF237A20602B44102BA8BF10232372D4E719234B21E1E7394659
:20660000002309221648FFF77DFC04460028E2D0B0F9063003B36FF03B029342A8BF134675
:206620006FF058029342B8BF13464FF470625A33B2FBF3F3B3F5C07F28BF4FF4C073A38060
:20664000FBF728FF237A20602B44102BA8BF1023022E2372A5D1A3E74FF48073EFE700BF30
:206660007C0600201F85EB5138B505460420FFF7EDFE294604B21C48FFF73EFD78B15A23FB
:20668000B0F9062004EB8404640003FB0244174AE31782FB0424C3EB6414C48038BD034664
:2066A000294609221048FFF72DFC0028F6D0C480B4B16FF03B0294426FF05803A8BF144645
:2066C0009C42B8BF1C464FF4706204F15A03B2FBF3F3B3F5C07F28BF4FF4C073838038BDCD
:2066E0004FF48073FAE700BF7C0600201F85EB5138B50948FFF7DAFB60B10446064D214624
:206700002846FFF715FD21462846FFF797FB04460028F4D138BD00BF7C06002010B5002133
:206720000548FFF769FBBDE810400023034A4FF4E1310348FEF7B0BA7C0600200D6500003A
:2067400078250020F8B5FBF7A5FE104E0746344600250D20FFF78CFE2146FFF7CFFE1034D5
:2067600020B90135102DF4D10020F8BD0720FFF76DFE06EB05152B7B8342F5D1A868381A0D
:20678000B0F5206F8CBF00200120F8BD7C170020F8B5174E0024374635460D20FFF768FE1A
:2067A0002946FFF7ABFE1035631CF0B9102B1C46F3D10F2407EB0410A0F110042146102286
:2067C00009F03AF8B4422046F6D10720FFF73EFE3873FBF75FFEB8600D20FFF749FEBDE8F1
:2067E000F84001460248FFF785BE002CE2D1ECE77C17002040B130B40D46044611462846FB
:206800001A46234630BC1847704700BF30B591B0FFF77AFD0446FFF78BFD6A460146204636
:2068200000F09AFA00283ED00446FFF751FDD0B39DF810100C20FFF701FE9DF813100820D7
:20684000FFF7FCFD9DF817308BB1BDF81C5000F0E9F8854205D04FF6FF73BDF81C209A421F
:2068600021D169469DF8170000F094F9B0B102A90D20FFF7F1FD9DF815303BB14FF6FF71B6
:206880000720FFF7DBFD204611B030BD9DF81A100720FFF7D3FD204611B030BD69460E2052
:2068A000FFF7DAFDE3E74FF0FF34ECE7F8B505460C2014460E46A84700232074A37496B324
:2068C000E37463750920A84700270123A075237667740720A847A07600F0A4F8E0830A2058
:2068E000A84701280CBF3B460323637600F09AF8A0830B20A84701281AD066B90323E375C6
:20690000637E022B0CD0E37DA3F10203B3FA83F35B092375F8BD0223E375637E022BF2D172
